:20000000003A01201515020039FB021039FB021039FB021039FB021039FB021039FB0210B5
:1C00200039FB021039FB021039FB021039FB021039FB021039FB021011FB021002
:20004000BA492DE9F04F0446B74ADFF8E8920E68A578507800279046ADF1540D29460C29B1
:2000600007D9DFF8CCB2DFF8D0A2203933290FD94FE3DFE811F069055A0544052905090519
:20008000F304EF04D904C3044E03B604B2049204DFE811F07F047B04770467046304E8027A
:2000A0004D042B04AD0283023F033F033F033F033F033F030704EC03CF03B403550299038A
:2000C0003402FC013F033F033F033F033F033F03E801B5019C013F03880379017F037303E6
:2000E000660354012A01E50062035E035403C000440382004103670046003400E1788DF889
:200100002A7031F07F0006D011F07F0F0CBF381C0120CA49087053210DF12A0300F0EABC40
:2001200008F1110332203946012227F011FD08F1120333203946012227F00AFDC84898F8D8
:2001400011100078012905D04FF4006120F00CFB00F0FDBC4FF40061642228F07DF800F0FC
:20016000F6BC8DF82B7078B9E41C204627F02EFF0546A01C0446083027F028FF024621465C
:20018000284625F080FE00E012208DF82B0051210DF12B0300F0AEBCE01C27F017FFE51C7A
:2001A000AE784FF6FF748DF80A600546ADF80850AC4218D0E01EA84215D0A01EA84212D0FD
:2001C00002208DF80C00ADF80E5003A81DF042FC012818BF4FF001090CD1BDF80E00ADF8E5
:2001E0000800012000E038468DF80B0002A81FF00FFA8146E41EAC4204DC012088F82A00C4
:2002000088F82B6023F0DAFB8DF82C904F210BAB00F070BC20798DF82E00E078012814D0B7
:20022000022809D0032805D052200DF12E0125F0BDFF0FE03C4600E0012452200DF12E0136
:2002400023F0FCFB88F8004004E052200DF12E0123F0F4FB4D210DF12E0300F04BBCE17862
:2002600038465EB13279914205D1F2880DEB4003401CC0B21A813668002EF3D18DF830003A
:200280009DF83000012404EB4000C0B205461BF03BFD5FEA000806D18DF830704921224626
:2002A0000CAB00F028BC02469DF8300002F8010B38469DF8301081420ADC652049212A4645
:2002C000434623F013FE404623F058FA00F03FBC0DEB400108310B7813700988401CC0B2C4
:2002E00009125170921CE4E7301CE4788DF8317013D03E4601798C420BD11EB905680B49B8
:200300000D6002E001683160056823F037FA284601E0064600680028ECD11DF003FD0DF1F0
:2003200031034721E6E3C046585F0020446000209B750020A05E00204E5B0020E01C10F89C
:20034000014B27F043FE0146C5480068224650B13E4603799A4202D1C388994205D00646DE
:2003600000680028F5D1012008E006B9BC4E0168316023F003FA1DF0D5FC38468DF8320038
:200380000DF13203CDE739460DF12200062207911DF026FBE01C07A926F080FC8DF8220004
:2003A000079870B101888DF8231046888DF8256009128DF8241031128DF8261000798DF894
:2003C0002700432106220DF1220394E364788DF8377048B1012805D002281CBF01208DF826
:2003E000370004D1022000E004200FF0B3FB24F01F04202C40F0AB830DF1370379E3204643
:2004000090F80180C01C27F0E1FD59460A7849468E6856B13C4633799A4202D1F388984223
:2004200005D034463668002EF5D101200EE03CB9346804B93C468C6004E0C046A05B00200B
:2004400030682060304623F099F9384628F01F088DF83800B8F1200F40F079830EAB48E307
:20046000145B002020464478C01C27F0AFFD01465846007821F012FD24F01F048DF83900BA
:20048000202C40F064830DF1390332E3E41C204627F09CFDA41CADF8080014F8010B0421EA
:2004A0008DF81000204626F006FD0646201D10F8019B10F8018B27F089FD044631464A4679
:2004C000434602A800941EF0CBFF8DF83A009DF810000F280FD1022053468DF81000188812
:2004E00031464A46ADF80800434602A800941EF0B7FF8DF83A000DF13A036BE22078264672
:20050000042806F1030614BF16F8010B02208DF81000304627F05AFDD34CADF80800B01C8F
:20052000012610F8011B2670027802A820F098FC8DF83B000DF13B03277032464BE20220B8
:20054000E41C8DF81000204627F040FD4E46A11CADF808000C7A706827F0A2FE7168C4F3A9
:20056000400804F00104B8F1010F0F7204D17268107A40F040001072012C03D1087A40F022
:2005800080000872484602A93422092320F0F2FC0DF13D038DF83D00ABE20226E41C8DF86E
:2005A0001060204627F012FDA41CADF80800204627F00CFDA278804602A84146144626F0CB
:2005C00025FE8DF845009DF810000F280CD1504600888DF8106041462246ADF8080002A81C
:2005E00026F014FE8DF845000DF14503F2E10226E41C8DF81060204627F0E8FCA41CADF80D
:20060000080014F8010B8DF84700204627F0DEFCA41C14F8019B804602A90DF147004246F1
:2006200000944B46019722F0BBFE8DF846009DF810000F2811D1504600888DF810603E4612
:2006400002A94246ADF808004B4600940DF14700019622F0A5FE8DF846000DF1460348E2C8
:2006600044600020A946E51CA878B846FE280BD1E878FF2808D12078082805DB284627F019
:20068000A5FC294625F096FE284608A926F0BAFE041C0ED118201BF037FB5FEA000807D018
:2006A000BDF8200039461822434627F051FA00B1C82419201BF028FB061C20D05CB9701C0A
:2006C0002946082226F06AFF06F109004146102226F064FF04E0701CFF2118221DF080F980
:2006E0003470652049461922334623F0FFFB3046394619221DF074F9304623F03FF8B8F16E
:20070000000F00F024824046394618221DF068F9D9E502271BE21DF057FD18E2E01C27F035
:2007200055FCE51C0246A81C10F8011B1EF03EF84E210DF12D038DF82D00DBE18DF82F70C4
:2007400026F0D4FF0DF12F034C218DF82F00D1E120461DF0FFFCFAE120461FF051FEF6E1C9
:20076000E01C27F033FC6179A2791EF086FF46210DF133038DF83300BCE1E01C27F026FC8A
:200780006179A27913F04AF945210DAB8DF83400B0E1E01C12F08AFF44210DF135038DF80F
:2007A0003500A7E1E01C27F011FCE51CA91C0B4608310A46194620F081FE42210DF1360334
:2007C0008DF8360096E10220E41C8DF81000204627F0FCFB4E46A11CADF808000C7A706860
:2007E00027F05EFD706802A9352209230472484620F0C0FB0FAB8DF83C00EBE00220E41C4A
:200800008DF81000204627F0E1FBADF80800A0780DF13F0602A933228DF83F000123009664
:200820004846019722F0BCFD0DF13E038DF83E005FE10220E41C8DF81000204627F0C6FB90
:20084000ADF80800A0780DF1410602A932228DF84100012300964846019722F0A1FD10AB7E
:200860008DF8400045E1C046286500200220E41C8DF81000204627F0A9FBADF80800A0783D
:200880000DF1430602A931228DF84300012300964846019722F084FD0DF142038DF84200CE
:2008A00027E10220E41C8DF81000204627F08EFBA41CADF808000421204626F0FCFA4E46DB
:2008C000221D014612F8018B7068137826F05AFE02A900F8018B302203704846062320F070
:2008E00049FB11AB8DF8440003E10126E41C8DF84860601C27F06AFB814604F10B0027F021
:2009000065FB804694F800A0637BA07B24F05CF90093E01C49465246434615F0CBF812AB5F
:200920008D498DF84800042027F080FB05E60126E41C04218DF84960204626F0BCFA21792D
:200940001FF0B2FE85498DF84900022027F06EFB83490DF149030320E6E720461CF092FB95
:20096000F5E0E41C204627F031FBA11C0B4608310A46194620F0A2FD0DF14A038DF84A003A
:20098000B7E020461BF01BFFE1E020461BF0D4FEDDE0204611F038FAD9E0E01C27F016FBFE
:2009A0004E464FF6FD740F22ADF8084071688DF8102002230412152201F8010B48460C70C0
:2009C00002A9B77020F0D6FA39468DF84B000DF14B03B170012229468DE020461AF0CAFA76
:2009E000B5E0E41C204627F0F1FAA11C0A7A3B4623F0D2FD13AB8DF84C00EBE70220E41CD3
:200A00008DF81000204627F0E1FAADF80800A01C27F0DCFA0146112202A826F0F7FB0DF169
:200A20004D038DF84D0064E00220E41C8DF81000204627F0CBFAADF80800A01C27F0C6FA17
:200A40000146102202A826F0E1FB0DF14E038DF84E004EE0204610F0DDFD78E00220E41C77
:200A60008DF81000204627F0B1FAADF80800A01C27F0ACFA0146052202A826F0C7FB0DF1A5
:200A80004F038DF84F0034E00220E41C8DF81000204627F09BFAA41CADF80800204627F069
:200AA00095FA4E467268A1781070726803125370706803230422817002A9484620F05AFA3C
:200AC00014AB8DF8500014E00220E41C8DF81000204627F07BFAADF80800A01C27F076FAF5
:200AE0000146032202A826F091FB0DF151038DF8510029460122652023F0F8F927E00226CC
:200B0000E41C8DF81060204627F060FAADF80800A01C27F05BFA0146324602A826F076FB44
:200B20000DF152038DF85200E3E7E41C204627F04DFAA41C14F8011B227824F079F80DF1F8
:200B400053038DF85300D4E7204618F09BFE384615B0BDE8F08FC0464944020073640200D0
:200B6000556B01002DE9F04F04464FF6FE70ADF15C0DADF854009B4840784FF00008022856
:200B800012D19848007878B92089002807BF302041461020012110F037FB8DF8568052202A
:200BA0000DF1560122F04AFF6068217A08AA13F061FF002800F0A1849DF822000228B4BF7C
:200BC000012747469DF824000228A8BF4746BDF82A104FF6F87088420ED04FF6FE70401F33
:200BE000884209D04FF6FE70001F884204D04FF6FE70C01E884200D1474627F0B1F99DF8D3
:200C00002310884240F07984002F00F0768475484078022804D19DF85100002840F06D84EE
:200C2000208D9DF82660678EADF84C00ADF82E7056B161689DF821209DF83C30012026F0E5
:200C400001FD002840F059849DF82570DFF85C92DFF85CA24646002F49D19DF83D00474669
:200C600058BBBDF82A00034622F028FD4546022808BF0125002D9DF8225018BF012749469E
:200C80000988994208BF47F0020727B1002D14BF402120210F43184622F010FD012808BFA8
:200CA00047F00107002D3BD01298007826F08BFF012818BF27F0010732E09DF8411041B1F2
:200CC000FF2906D09DF84000119A23F063FF50B126E05246BDF82A10508F884205D092F88B
:200CE0004A0004281CD101261AE0222718E0BDF82A10FF2024F0BCFE002804BF3D1C0827E0
:200D000008D09DF8250047F001052C2740F001008DF8250005F00305012D08BF47F0110795
:200D200030489DF82650407830F0010005D107F002010E4308BF47F08007DFF8B0C295B91A
:200D400061460E787EB107F0220122290BD007F04201422940F0D18312990978062918BF9C
:200D6000072940F0CA83F9094FEAA7155AD3BDF82A20129948B96046C01C0078800804D39E
:200D80000878401E0A282FD909E00878C01E01282AD9001F28D0C01E26D0801E24D0B8F1A2
:200DA000000F21D148460088904240F0A6830D780520BDF82C408DF8110004A825F02EFEA3
:200DC000002800F09A830269032313271370511C0F704C7022128A70CD7044800AF0C4FA01
:200DE0008BE3C046585F002068081BD30878032802D148780D2815D09DF8280038B1BDF897
:200E00002C000E990EF02AF9012800F072839DF8270038B1BDF82A000D990EF01FF9012867
:200E200000F0648309F10E00B4F844100088884209D1CDF80080208DB4F8421094F84620C5
:200E400043460CF067FA9DF82600002849D0208DB4F8421022F02CFB061C2BD19DF85100C8
:200E600090B99AF8900001283BD112980078062801D1680835D2BDF82E104FF6F870C01DBC
:200E8000884240F0AD8038E3042025F021FD011C00F033836420087001274F70208D48809E
:200EA0009AF8000021F044FA27E3C0464E5B0020145B00209DF821106068F3780A18527B01
:200EC0009A4203D0F27040467060606840180421401C25F0F0FF7168814200F20E83401C8B
:200EE0007060A3484078022800F06A8230F0010040F003839AF832008008C0F0FE829DF891
:200F0000510058B1BDF82C0026F0FFFA002800F0F4826168487800F0DF0048709DF8320022
:200F200038B161688879401E8871C0B28DF8320008B907F07F07380924D39DF82500F9084D
:200F40004FF4805814D279091AD3811011F0070F01F0070604D0072E1CBF761EF6B20EB994
:200F600007F07F0700F0E30040EA8600C0B205E020F01C00C11021F0030108438DF8250013
:200F8000616808729AF84A00042800F0E081092800F0DD8117F0610F40F0EC809DF822006C
:200FA000012811D112980078052800F0D98003280AD1BDF82A0026F0A8FA28B1218D08A8BA
:200FC00015AA002301F086FB9DF8320080B99DF82200012804D112980078032800F08D82BC
:200FE00008A8214620F046FB87E2C046435B002025F0BBFF002840F080829DF83D00002839
:201000006DD19DF82400BDF82A10FD100028ADF854102ED13A0930D29DF82220012A28D06E
:20102000084600211DF066FA002620B14079012816D0022814D0BDF85400B4F8441022F0EC
:2010400037FA28B1807825F076FC08B1082807DBBDF82C0026F059FA18B104208DF824005C
:201060000126BDF82A10002E08BF022272D09DF824006A0838BF002300D340230DF13D0247
:201080001DF072FA30B16168087848F0200800F03F0008709DF83D0040B1BDF82A1010A83C
:2010A00022F0ECFA48F04008ADF854009DF82200012806D0BDF82A00BDF82C10002219F00E
:2010C000ADFC68082CBF40220022BDF82C10BDF82A0016F06DFC08B148F0200833E09DF888
:2010E00040009DF84110119A23F054FD00282ED09DF8410038B9BDF82A00ADF8540027F0DF
:201100006FF800BB1DE011999DF8286001EB400030F8020C002EADF854000CBF082110213B
:201120009DF8270008B10831C9B29DF82500002200B1012266688918491CCAB2905D401E3B
:20114000905548F0400825F003FA81469AE0BDF82A100B22BDF82C0000231CF04BFFCCE1B4
:20116000218D08A815AA002301F0B4FAC5E1C046585F002078084FF000095DD39DF833004D
:20118000B4F828B0C24D494616901E20EA79169B934206D1BDF82C302A88934201D1AE78F9
:2011A0002EB9401E05F1080501F10101EED11E2921D0AE79E6B1BAF84810584624F034FD51
:2011C00008B1761EAE71C84833210279FF2A02D00288934504D0491E00F12400F5D102E06F
:2011E000A879401EA871A8794828A4BF4E46AE7127F0600720E025F0ABF981469DF83200EB
:2012000020B9208DBDF82C10884215D0218D08A84A4611F0EBFF58B1380932BFBDF82A00B5
:201220004FF6F870C01D48F00408ADF8540003E027F020074FF00009B8094FEAA71510D3E5
:2012400094F8460094F8476094F948308DF81000E26B8DF8116004A98DF8123008A804F094
:20126000C7FE68080ED3218D08A815AA4B4601F031FA5FEA000905D012980078012808BF55
:2012800048F01008BDF854104FF6FE70884208BF4FF000099C48C07E01282BD1618E4FF6DE
:2012A000F870C01D884225D0218D884222D0BDF82A204FF6F870401C90421BDDBDF82C000D
:2012C000884217D026F08CFFA0B10179012918BF02290FD101218DF810104088ADF81C0095
:2012E00004A820F09BFC28B105A820F00BF808B122F064FB37F07F0000F0FF80B9F1000F0A
:2013000000F0FB8020891AF0FFFC071C00F0F5806168228926F042F9002605969DF82200EF
:201320008DF81000CDF80090CDF8048004AD0296BDF854100395228D237A384616F054F864
:20134000002800F0DA80384622F018FAD5E04946BDF82A00098881420AD022F0AFF9022844
:2013600006D09DF8250000F00300012840F0C5809DF8220090B112980178042904D19DF89A
:201380003C10022900F08A800078072803D19DF83C1004297ED0032875D0AEE094F8460035
:2013A0008DF8100094F847708DF8117094F948608DF81260E26B08A804A904F019FE9CE0F2
:2013C0009AF84A00042818BF092840F09680B80969D212986908C0F090800178042903D166
:2013E0009DF83C10022959D00178072903D19DF83C20042A4ED0032945D00C297DD1401CDE
:20140000414A10F8014B0578174601215120D21CFD7026F065FE3A4801263B4606705F7934
:20142000384844B9002F14BF4EF660244FF47A7450F8270003E0203000684EF660244443DB
:2014400003204146B4FBF0F44FF480400FF0DCFE9AF8000002211FF087F9680808D2A80835
:201460004BD39AF800000221224626F0F2FE44E04FF48040214618F05BF94FF480403146C7
:201480000FF0C2FE39E008A8002114F01FF934E0441C002008A81CF035F82EE0002008A92B
:2014A0000CF0E8FE29E094F8460094F847709DF832508DF8100094F948608DF81170012D17
:2014C0008DF812607FF476AF208DBDF82C1088427FF470AFBDF82A0022F0F0F8022808BFB9
:2014E0008DF8328066E7C0462C2A0020BDF82A0001E0BDF82C0020F099FD17B0BDE8F08FBA
:201500002C5C0020809C0200585F00202DE9F04FC14DC24CDFF808A3C44E88465FEA1840BA
:20152000ADF11C0D80F09E826F78DFF8F892DFF8F8B25FEA580080F01B82384630F001003E
:2015400040F091805FEA980058D25FEA981044D25FEAD830C0F087800120022124F04AFD91
:20156000C5B20DB3E8001AF0CFFB071C1DD0C04C82464FF0010933262079012818BF02282F
:201580000DD18DF804906088ADF8100001A820F045FB20B102A9504626F082FE8246761EBA
:2015A00004F12404E8D100E0002797B175B10F204FF6FC768DF80C001F24ADF8046001A973
:2015C0002A463B46C248009417F0A4FD384622F0D5F888F4804000F007BC207A38B9207865
:2015E000062802D1072026F05DF825F027FBE07910211FF04FFB88F02000F5E3207AE8B993
:201600002178E079082917D125F0BEFC092026F049F8BF480078052806D0072809D10720BE
:20162000012106F0A3FA04E0012024F0D3FD1EF0C5F925F003FB13E010210FE026F08AFC7E
:20164000EF2803DB002024F0C5FD09E026F082FC1030C0B226F090FCE07901211FF01AFB2F
:2016600088F00200C0E3CE48CE4B0668B3F900005FEA581180F04E815FEA181028BF88F043
:20168000080080F0B1835FEA582080F0D1805FEAD80080F0B78037F001001CD15FEAD8100E
:2016A00019D32069A0B118F097FF20690768206922F064F827615FB1FA8802E0F888801AC1
:2016C000F8803F68002FF9D1E079402126F0C4FD88F0400088E35FEA182064D25FEA982086
:2016E0005CD2C84C5FEA18302CD25FEAD82027D314201AF009FB071C1FD0002524342E4699
:20170000207A012812D10097042029463246142322F0EAFD50B920683860606829461422BB
:201720003B467860042023F087FB26726D1C0C34C82DE5DB384622F021F888F4806053E346
:20174000002051E318201AF0DFFA071C23D000252E46207A012812D1009706202946324621
:20176000182322F0C1FD50B9206838616068294618223B467861062023F05EFB26726D1CB6
:201780000C34032DE5DB3846314618221CF028F9384621F0F3FF88F4006025E31BF064FAEF
:2017A00088F4007020E31EF009F9207805281DD1E07904211EF0D8FFE07904211EF0FCFB91
:2017C000062025F06FFF687830F0010007D15046007800F00700022801D026F095FA22F0D0
:2017E000EDF81BF041FA20F031FB01E022F0E6F8012023F0FFFD0320012106F0B7F988F01E
:201800008000F1E2FF20032123F06AF826F0BAFBC24901200860FEE7585F0020785D0020AD
:2018200064740020145B0020AC5F0020607400204A4692F84A00082818BF042845D12432FF
:201840002120742126F04CFCBF4E6878716832880024B146A2423DDC30F001002DD1044C4D
:20186000FF25002694F82100802822D102E0C0462C2A00206788ADF8067023798DF8083015
:20188000A1798DF80A1062798DF809202088ADF80400E77984F82150237D8DF80B70A769B8
:2018A0008DF80C3031461022032001AB049723F0C3FA761C2434332ED4DBBB48006800B16E
:2018C00080470020022123F00BF888F480708BE2A05E0020A30003EBC403CF5C37F07F0CBC
:2018E00013D017F07F07CF540B4405D101A8FF210C221CF075F801AB012021460C2223F04B
:201900009BFA6878D9F804103288641CA4B2A1E7D6600020B0F1FF3F37465C4602D1B8482E
:201920000078A0805FB17968087818B1486800781DF024F83F68002FF5D1B4F90400B0F196
:20194000FF3F02D0C0B21DF019F826F00FFBBD49088025F0E7FD687C012806D14C46207832
:201960004FF40061642226F077FC88F010003BE2012025F097FE30466778017935461222C6
:2019800001F0070A11F0070F16D1022F0CD0012F12D1082025F086FE26F0B6F90BE0C046B0
:2019A00064650020B05F0020082025F07BFE0020014614F065FA0246BAF1010F18BFBAF10A
:2019C000020F45D107B3032F1ED0012F40D1BAF1010F3DD10A2025F065FE4C4620784FF4ED
:2019E00080611EF0C1FE502005A924F0DFFBBDF81400A4F84800BDF8140000211BF076F91C
:201A00002DE0C046603E002026F056F9002818BF032F16D1022025F045FEB449E068097838
:201A20001EF042FE0246A879000911D28AB959464878401CC0B20428487004BFB848E060AC
:201A400006E026F084FB0146012014F019FA02462AB1E07901214FF47A7226F0FDFB88F039
:201A60000100C1E1DFF8C0B2B5E10646AD4A33782778116868781A46521E00F08781521EC6
:201A800000F09480183A00F0A081B93A00F099812A3A00F083801B1F77D05B1E6ED05B1EDA
:201AA00054D05B1E3CD05B1E2CD05B1E40F0908120BB707FDBF8109000BBB9F1000F06F1A6
:201AC000050A1BD0BAF1000F18D04F46B81C5146082225F003F818B9FF68002FF6D104E01E
:201AE000384620F047F8DBF81090B9F1000F05D19BF800004FF400611EF036FE304625F013
:201B0000BDF865E1012818BF022840F06181307918F0E8FA21F052FF5AE1C0467C05204374
:201B2000002840F055813079012800F05181022806D0042840F04C8130461AF065FC47E1B1
:201B4000304615F0E7F843E178650020012840F03F817088002840F03B81301D01A923F0DB
:201B600081FA012840F0348126F000FAADF80C00361D029601A818F0E1FC29E1002840F040
:201B80002781304614F046FC22E1012818BF022840F01E8130460AF091FB19E1002900F0D6
:201BA00017813046884713E1B4630020012818BF022840F00D81584680795E46072818BFF4
:201BC000082805D1237A1BB9012105F0CFFF2778032F00F08D800A2F14D0042F18D00D2F67
:201BE00016D00E2F14D00C2F12D0002F00F0F08020F02CF9E07910211FF04CF8E8E0C04652
:201C00009B7500207E48007800F0070001286FD0277A6078002F32D10020E0720746F77026
:201C200021F09CFB80B96878022803D1082001210FF0EAFA052025F035FD42F2107024F084
:201C4000EDFFC5E0945D0020062025F02BFD68480078000904D34FF4004001210FF0D4FA05
:201C6000687830F0010007D16648007900F00700022801D026F048F820F0E8F8A8E0E17A49
:201C800001280BD003281ED1687802281BD1594900260E7001270320677113E0491CC8B2F5
:201CA0000428E07204DB54480078012809D00AE0524800884FF6FF7181421CBF0426A67210
:201CC000E8D10020607023F055FC22F0ADFE48480078000902D3287D012879D16078032839
:201CE00076D1082001210FF08FFA71E001610020207A002848D1E07910211EF0CBFF21F0AA
:201D00002DFB98B96878022803D1082001210FF07BFA052025F0C6FC012021F0CFFE57E07C
:201D200000F8FF0754610020D06000206F78207837F001070AD10A2808D13149097801F000
:201D40000701022902D02B4A0821117003280BD120F07CF8B079022806D1012023F04AFB31
:201D60000220012105F002FF062025F09BFC687830F001002CD12248007800F00700022856
:201D800026D025F0C1FF23E00020C6E7022F1FD1012818BF02281BD126F060F928B115F024
:201DA000A3FFA8B16878022808D026F08DF900280CBF0020012022F001FA09E01BF0EEFF88
:201DC00006E0304606F076F802E0304608F04AFB069824F093FEE0791EF02EFF0028069019
:201DE0007FF443AE88F4004007B0BDE8F08FC046667400205E5B00200C6100205C5B0020AB
:201E00006474002060740020B84A2DE9F04F0846ADF14C0D11780F90000C80F0308492460A
:201E2000B34D0F9A6878920B80F0FF83022813D10F9A520810D39AF850000F2807D19AF813
:201E40004A0020B1012802D0002022F0C7F80F9880F0010000F033BC0F9A920980F01A8333
:201E6000DFF89492DFF8948230F0010740F0B8820F9A520980F039820F99C90980F0C0818C
:201E80009C490F9F0A78390A80F0AB813946490A40D23946090B28D20F999AF80370490BDC
:201EA00019D20F99C90BC0F09B824C46A06A70B1297D01290BD18047E06A00B180479AF86A
:201EC00000004FF480414FF47A7226F0C2F90F9880F48040F3E327B100208AF8030021F0BF
:201EE000B5F90F9880F48050E9E321F0AFF9687C01280BD1A97C49B19AF800004FF47A72FB
:201F000012FB01F24FF4006126F0A3F9384680F40060D4E326F02AF84FF6FE7B834500F0B4
:201F20005C819AF832008008C0F0578100263446304624F073F8071C19D03879012816D08F
:201F4000022814D0F879411CF9719AF88B1081420DDABC727C72388823F0D4F9388801A93E
:201F600024F028FA01A81FF0CDF921F027FD761C332EDDDBA8F11C0614275D46119436F861
:201F80001C0F85420CD0307B9AF88B40411C8442317305DA1198B0747074308823F0B2F99E
:201FA0007F1EECD14C46032104F13C0010F8047F0FB17F1E0770491EF8D1B04C332605F106
:201FC000010934F8240F81451FD001208DF804006788ADF8107001A81FF020FEA8B1A8F15D
:201FE0001C05142735F81C0F2188814208D0BDF80610814204D002A8A91C25F0D9F910B170
:20200000284625F05AFA7F1EECD1761ED9D1119D2C46284624F002F848B1077937F004070A
:2020200005D1807A24F087FC08B1641CE4B26D1C332DEEDB24F0BEFB119E5FEA00080ED00D
:202040003546284623F006FE28B1807C24F073FC08B1761CF6B26D1CEDB2A845F1DCA0199A
:20206000C7B2002F4CD0B80019F04EFE1090002808BF119F46D0BA00FF211BF0B1FC119EF9
:202080003546B44218DD284623F0C8FF031C10D0187930F004000CD1987A24F04CFC011C76
:2020A00007D0009718885A7A109B1AF0CBFB761CF6B26D1C332DE4DBB8F1000F22D0119C8A
:2020C000204623F0C7FD061C0AD0B07C24F033FC011C05D00097109B3088727C1AF0B2FBC7
:2020E000641CE4B2A045EBDC0CE0C046145B0020585F00206E6400202C5C00209C1E002052
:20210000119810909AF83000002808BF4FF0620805D025F08BFAC0F154005FFA80F80320B4
:20212000B8F1600F98FBF0FAA8BF4FF01F0ADDF84090ABF1020BB8F1000F0EBF119D202575
:20214000DDF84480BA45A6BF3C1C45F040055446032014FB00F0801C8DF8050001A824F011
:202160005DFC4E46031C26D01869082104F01F02017045EA02014170801CA4B12246C01E13
:20218000361F16F8041F00F8031F318809124170B17801F0070CF178521E01F0070141EAF0
:2021A0000C118170EDD1A3F802B001209876184609F0DAF800E00120E90906D2641EE4B2CB
:2021C0000CB109EB84093F1BFFB205F040052843B1D0109808B121F0D1FA0F9880F4807048
:2021E0006DE2104306D1A948C178012902D100218170C17020F004F8384680F080005EE242
:20220000A34C1E2600214FF006084FF00409A778002F43D07F1EFBB26079A37025F09EF88F
:20222000071C3AD06BB9787B022808BF87F80D8033D087F80D803868407BF02120F064FE70
:202240002BE0A3791BB9787B032812D025E023791BB3E078401EC3B2E370F3B99AF8250033
:20226000E0702079401EC3B22371787B032814D133B92046394621F0C1FA0EE0082A00202E
:2022800087F80D9025F063FF00F00F00401C38819AF8000020211EF0FDFC0121761E04F112
:2022A0000804B4D19AF80000012910D040211EF05BFA95F82A00012813D1002085F82A00A2
:2022C00095F82B0017F00EFF21F078FB09E0402121F034FA28B99AF800004021642225F0B6
:2022E000B8FF0F9880F04000E9E10846102121F025FA30B99AF8000010214FF47A7225F067
:20230000A8FFBB48DFF8EC82417808F2AC54491ECFB217BB012141700020052124F03EFDF9
:20232000071C1BD006253846052124F037FD0646388978B1401E80B2388158B97889C0081F
:2023400002D3387B22F0C6FF7D733868407BF02120F0DAFD371CE6D100E0477064274FF66A
:20236000FE7600252079A0B1FF2812D0401E2071C0B270B96079032805D1608821880222B8
:202380001DF07EFE6079012803D0268066806571A5717F1E04F10804E4D108F15A0408278E
:2023A000207A401E2072C0B230B9C648214623F0C9F890B9668025707F1E04F10A04EFD1CB
:2023C000C14AC82112F8080F08B1401E1070491EF8D10F9880F0100071E120F02FFAE4E7A4
:2023E0004C460F992778890834D20F992289890A12D20F99C90A38BF0020C0F06081022856
:2024000001D11BF0CBFCBAF8480001211AF06EFC0F9880F4806052E1BAF8485004F1080112
:202420005020AAF8482021F009FB2689142744466089854205D0864204D0204625F03DF8C8
:2024400000E066817F1E04F11C04F1D10F9880F4007034E16FB9BAF83E10012022F0CEFB7D
:20246000687802280DD19AF8000001211EF07CF907E001A825F0B8FE25F066FD01A91EF0B2
:2024800051FB0F9880F0020019E1C046503E0020441C00200846202121F050F928B9DAF80D
:2024A0001000002808BF012616D026F095F8044625F038FD4FF47A716043B0FBF1F1DAF8A9
:2024C0001000002808BF002004D088428CBF4FF0FF30081A460865D00020042124F05EFC2E
:2024E000071C5FD0FF254FF0FF3B06244FF001093846042124F052FC10903889864204D870
:20250000801B83B23B8113B149E000203881BB7B012B02D17889C0083BD3002B36D08DF8A7
:2025200004508DF805508DF806B03968086AC97F02AA12F09FFA4FF00008012808BFC8464B
:202540005FEA08001DD0788A40F08000ADF83600B87B8DF838007889000908D3BDF83600F0
:2025600040F48070ADF83600387B8DF83A007B6913B1187BADF8180001A9002202A803F089
:2025800037FD7C73387B1AF0BDFE08E087F80D9005E07C733868407BB72120F0B5FC109F25
:2025A000002FA5D10CF0BEFF9AF800300020012124F0F4FB18B1184620211EF06BFB0020BA
:2025C000042124F0EBFBB3B278B152460789147824F0E4FB20BBBB42AEBF0027FF1ABFB2B1
:2025E00020464FB920211EF055FB002012E0C04668750020201B00207A00202125F02CFE64
:2026000025F0EAFF044625F08DFC4FF47A716043B0FBF1F0CAF810000F9880F020004EE040
:202620000289BA42D8BF171CD2E725F051FE274C0546201D0068074698B157F80C1C9AF82A
:20264000000021B94FF400511DF0B6FC03E04FF400511EF01FFB204639460022001D22F078
:2026600085FC284625F0B4FF2FB13846FEF77AFA384624F043FA0F9880F400501FE0084655
:202680001EF0DAFA071C17D0114920310A78FF2A0FD03C780B460020944207D0401CC0B279
:2026A000C200D1189A5CFF2AF6D102E0496838468847384624F022FA0F9880F4004013B0DD
:2026C000BDE8F08F6D300200E423002080650020849802002DE9F04F064693460020ADF1B5
:2026E0003C0DABF80000B06A099303460078884625F069FA48B17089044620F0DFFF0228DD
:2027000004BFABF80040B36A01D0002009901878C84DDFF82493401E0A2800F20B84DFE861
:2027200010F02F03B3020C04A0028D0151010904BE00880066000B00BD4C207D012840F05D
:20274000F9835B1CB06913F8015B1F7825F078FD002800F0F7830379002B00F0F383032B18
:2027600080F2F0830E2D1CDCDFB9D04907752DB901EB85010A6BC261096B0AE001EB850154
:202780000B6B9A01A2EB8302C2610A6B9101A1EB82018161012180F8201021F00FF90025F3
:2027A00000E001250320B689E4788DF8190006A824F034F9071C00F0C58338690C2100F8A7
:2027C000011B00F8015B04700124BC7724F0AAFE786204A9304623F0EDFD10B17C7704A8A7
:2027E00038627E80BC76384608F0BEFDAAE35C1C207820F01F0700F01F00012840F09A8386
:20280000641C04A8214625F04BFD284604A95D3024F0CEFD002800F08D83002F40F08A83AD
:202820000834A2786178207801EB022121F0CCFF88E3688F7189884240F07C835C1C14F80D
:20284000016B04A8214625F02BFD284604A95D3024F0AEFD06F01F0726F01F06002800F0E6
:202860007183002E40F06E83780019F04DFA011C00F0688367B18446083438466378227844
:20288000401E04F1020402EB03222CF8022BF5D1009110F006F9084620F070FF52E35C7850
:2028A0009A1C34F07F0704F01F0E40F04B83377F03201EFB00F0801CC1B2B94240F04283B8
:2028C000002714F01F0F04BF4FF6FE7C614618D0D9789B7870464D4603EB012C5378117872
:2028E00012F802EF01EB03213EF0770340F02A832B888B4208BF0EF00707521C401EEDD16B
:20290000BFB960464FF6FE72824212D004F06002602A0ED04D462A88A30907D2E30902D2F6
:20292000904203DD0EE3904203DD0BE39142C0F20983B08925F054FC002836D1B0894FF6F8
:20294000FF7123F071F9041C14D122F05BFA041C00F0F88200211C221BF042F8B0894D4624
:202960000E35208028886081AA23A3740622227401216174207C0C2805DB0620072F2074AA
:20298000BCBF7F1CFFB2677400202073A01C24F083FA002840F0D682307A002800F0D282CF
:2029A000B169A01C25F07CFCCCE20021C171017A0C2905DB0621072F0172BCBF7F1CFFB28C
:2029C0004772BFE2484671890088884240F0B282307F022840F0AE82AA4CA01D00884FF6A6
:2029E000FE71814240F0AE82162023F071FF071C00F0A88201213970B07900280CBF081C44
:202A000002207870B06A4078B872000902D2B08921F04CFCB169B81C25F042FC0020F87474
:202A2000287839461FF084FCB089E0808AE2C046585F0020145B00204E5B0020708920F0A5
:202A40003DFE002840F076825F78B94987B10C2F03F1020380F276828C463D465A78187885
:202A60006D1E03F1020300EB02202CF8020BF5D1484675890488DFF8D892AC4200F0B28065
:202A8000B37C002B00F05E823B1C0A974FF0000811D0A74A38464146921E32F8023F9C42FD
:202AA00006D0401E01F10101F7D104E0509C02000A914FF00108284600211BF01BFD002897
:202AC0000B907ED0407901287BD10B98807910F0180F76D00B984188384624F04DFC10B9C6
:202AE000B8F1010F6DD109F55F794FF6FE704FF000080C97B6F80CB0CDF820904FF0010A43
:202B00000D90C14611E0B8F1010F08BF4FF0010908D025F01CFBC0B290FBF8F101FB08F178
:202B2000A0EB01094FF00008C246089D14271C3D35F81C4F4FF6FE70A04213D0A34511D09F
:202B40000C98214624F018FC60B96B7C53B1072B08DA08F10100BAF1000F5FFA80F801D1D3
:202B6000C14521DD7F1EE3D1B34D332735F8244F0D98A0421AD0A34518D00C98214624F0A6
:202B8000FBFB98B96B7A8BB1072B0FDA287901280CD002280AD008F10100BAF1000F5FFAFB
:202BA00080F803D1C14501DC0D9407E07F1EDDD1B8F1000F02D0B9F1000FA4D00D980B9913
:202BC0004880B37C5A4C581EB074F77C00970A9D0195029401220392B189B269708917F0D4
:202BE0008FF9AFE1B4890C2F80F2AC818846ADF81040BD488DF812700168CDF8148009B15B
:202C000004A8884720461EF0CFF8C82803D14FF6FE701EF0C9F8C82880F2948109EBC0008D
:202C200000F6CC05686808B120F0A8FD2FB1780019F06AF8686010B984E1002068606C8002
:202C4000C2486F70007828706878002800F07A816868002800F076817A00414624F09EFCFA
:202C600070E1307F022840F06581099828B94D4671892888884240F06581099831460BF062
:202C8000F9FA5EE12C5C0020B5F84810404620F00FFCA846074608202FB17D781DB906217F
:202CA000397007257D70B16A0A79CC788B794D7891F802A0CF7904EB02244A7902EB032943
:202CC0006A0928BF1020AA0924BF0830C0B235F0700340F03781327F904240F0338105F04E
:202CE0007005680938BF002006D306A8083125F0D7FA25F010050820A90907D3B16A091817
:202D000004A8083125F0CCFA25F020052046514622F0E8FD08280DDA8D4B410001EBC001E8
:202D2000C9188879B84240F30D818F71002002E0441B00200420B8F83A10A14219D048B98A
:202D4000B189484601222B4610F0B6F928B1F9E0201B0020042840F0F58006A804AE00909A
:202D600049463A46534601962046029513F026FDE8E0B189484601222B4610F09DF9E1E076
:202D8000B5F84810404620F093FB4FF00609041C03D06078002800F0CD80B06A81784778BA
:202DA0000891C378017900F1050A03EB0120099040461FF009FB9AF8001009185FFA81FAED
:202DC000B80928BF4FF00E0937F0780040F0B28007F01800182800F0AD80307F814540F0E3
:202DE000A9804FF00009CDF800900899B089524643461BF0F3FB032800F09C80002807F0C3
:202E000078074DD117F0180F18D195F8310028B1B089414601223B4610F04EF909984FF6D6
:202E2000FE714A463B4610F047F9002838D14FF6FF70ABF8000039E0082A002047F00107A0
:202E4000780928BF47F00207B08939461BF052FB90B1817911F0180F0ED0417901290BD1B9
:202E600054B14088B5F8481020F022FB20B1437813B1607898425DDCB089414601223B46B4
:202E800010F01AF960B94FF6FF70347AABF80000002C0CBF4946B169B089524624F0A8F9DB
:202EA000BBF800104FF6FF70884243D1012000900899B089524643461BF090FB099839465B
:202EC0001FF096FE698F81422ED1099825F088F960B10079012818BF022807D1099804A984
:202EE00023F068FA08E0C046B85D002024F01AFB014604A825F0D4F9307A012803D1B1697B
:202F000006A825F0CDF906A8009004AF0197B06A407840F0300002900999089BB0894A46CD
:202F200013F04CFC48460CE0B06A80F805A023F00FFB06E04FF00009F4E70999304612F055
:202F4000C5FB099009980FB0BDE8F08F725F00207A1B00202DE9F04FAA4C04F12C00076813
:202F6000ADF1540D17B1002087F84500DFF8908217F148060BD0B86DA04DAE6128B9404604
:202F80000068D0F84C058047AE697068A86025F09FF91390082015F0E7FD1BF0CDFF45462F
:202FA00010B17FA025F010FB1EF05CFA0CA824F0F3FE042600200CA98DF8306024F0F4FEDA
:202FC000206424F0E9FC04A824F04EFE002004A98DF8106024F050FEA06324F0E7FC08A89A
:202FE00024F052FE002008A98DF8206024F054FEA16BE06319B972A025F0E6FAE06B10B9F5
:2030000074A025F0E1FA206C10B977A025F0DCFA2868D0F8E00380472868D0F8180280471A
:203020002868D0F8F00280474046006807260025A03001686F5827B1384680474046006834
:20304000A030761E05F10405F3D1D0F8B8028047EB2024F091FFE06A002770B16846FF21F1
:2030600008221AF0BDFCE06A6946082223F036FD04F12C05012818BF2F68634805C8E84697
:20308000391C88E805001ED1082018F03DFE061C54D0B51E032725F05AF805F8020F7F1EB7
:2030A0004FEA20206870F6D13020F82705F8020F3146082204F14800F77124F06FFA304642
:2030C00020F05CFB04E004F14800082224F066FA012008216A4624F0FDFF04F14805002856
:2030E00018BF092826D123F0D7F980081DD26846FF2108221AF074FC02AEFF210822304695
:203100001AF06EFC012000210822334624F020FD80B930466946082223F0E0FC28B928465F
:203120003146082224F03AFA04E0012008212A4624F0D6FFE220294620F080FC23F0ACF96A
:20314000400834BF00260126304D5520012105F1320224F0BFFF18B916B1002022F04AF9CA
:203160002B4DE22005F13C0123F020F830461DF04BFC6846002110221AF032FC687830F074
:2031800001004CD1234F69461022384623F0A6FC002841D168463946102224F0FFF93EE0C8
:2031A00052616E646F6D5F736565644175746F6D617469632829206661696C656400C0462B
:2031C00041455343434D206F70656E206661696C656400C0414553454342206F70656E2097
:2031E0006661696C656400C054524E47206F70656E206661696C656400C046C0405E002094
:2032000014010020583100206C9F0200D0600020585F0020609C0200684622F0BBF86220A9
:2032200010216A4624F056FF28B926B1622010216A4624F055FF6846002110221AF0D0FBEB
:20324000304614F0A5F9304620F05EFF304614F07FFC6878A8B9684622F09CF840F20110A6
:2032600010216A4624F036FF30B92EB140F2011010216A4624F034FF6846002110221AF0E6
:20328000AFFB1EB10020012121F02AFB282018F03BFD0028606400F04181206B616B221D81
:2032A0001CF024FBD149087010211DF0F3FC616C201D0860206B616B04F108021CF016FB3F
:2032C000C9490968D1F84C138847616C04F108004860206B616B04F10C021CF007FB0FF09B
:2032E00023F8616C04F1300704F10C0004F1340888603868D8F8001004F110094A461CF076
:20330000F5FABB4E002170706A8EB170301D05F14C0100F1300B028006F1340024F0C0FF5F
:2033200005F1440395F82300F3606A783070022A11D1287801280ED1DFF8B8A200214FF480
:20334000B47250461AF04CFB4FF6FE703C235B1E2AF8060BFBD1606CC0F80C90D8F80010D6
:20336000386804F114021CF0C1FAA349A34A0870A34BB260606C736204F11802A14BD8F81E
:203380000010B36204F114030361386812921CF0ADFADFF8749289F80700022289F8242053
:2033A0004FF6FE70A9F81C0024F0BCF897484FF0000AC0F800A0B248594624F071FF94485C
:2033C000FF210E221AF00CFB9248944B8360944AC26091494160934B0361934A42619549D5
:2033E0003161924B8361924AC26153460370924A7261924B924AB3619348924BF26194490B
:203400001861924ED96009F130009E601FF0EAFF1FF082FF9A4809262C30761E40F804AB82
:20342000FBD14E46F07948F201011EF037FDF0794FF400411EF032FDF07948F221011EF048
:203440002DFDF07948F222011EF028FDF07920211EF024FDF07921211EF020FDF0792221EE
:203460001EF01CFD616C129848613868D8F8001004F11C021CF03AFA764E48F2150130707E
:203480001EF00CFD307838211EF008FD734B744AF36071483261616C706102234FF6FE726E
:2034A000386886F8283004F11C038B61D8F80010328404F120021CF019FA6A4904F12003FF
:2034C000694A0870694E606CD8F80010C3613868166004F1240632461CF008FA69496B78EA
:2034E000087023B991F833300BB10221E97148F202011EF0D3FC606CD8F800100662386885
:2035000004F128021CF0F2F920705949087024F015FD4870616C04F1280048621CF0DCFE93
:2035200010F0BCFC139825F053F823F0DFFE22F0A1FE2D480068D0F8D40090F8430017F0DC
:2035400069FF29480068D0F8582400210120904722F068FE00214748234F01707868C068BA
:20356000007828B938460068D0F858240846904719F05AF84048414A0721002322F0C6FD15
:2035800018F0F0FA20F0FCFD10200DF142018DF842005A2020F052FA4FF4FA7010A9ADF817
:2035A0004000552020F04AFA03200DF143018DF84300592020F042FA05208DF84400386882
:2035C000D0F8302411A9E02090476878022807D12878012804D14FF4004001210DF014FE0A
:2035E00015B0BDE8F08FC046140100209B7500200C610020341D00201C650020D5370100CB
:20360000CD9B0100A97C0200785D0020B85F0020221B002098630020DDDC00009D5A0200C4
:20362000CDF401004F49020045600200B53002006D6002009D810100915D01000965020053
:20364000B5B500006C6400209D5C0100FDCE0100A54F0100486100206145020095590200F4
:203660005D6102006865002074650020FD38020058650020A3750020F46200205583020008
:203680008C5D0020D06000202DE9F04FADF13C0DC54C0B90C3480C91002147780E919FB172
:2036A00037F0010608D0022F12D1207900F0F80141F00201204605E02046017901F0F80125
:2036C00041F00101017103E0207900F0F8002071261D3078402537F00102657100F0070009
:2036E000307005D18E20A0716FB940F0010009E0022F08D1AB4980200978A071012902D126
:2037000040F00800A0710E99F170317150256572A020B071F171B072F172A089099140F4AB
:203720003050A0812174B2B1022F1CD101201BF039FF28B9206820F00F0040F0020004E0D0
:20374000206820F00F0040F001006FF30F1048F22021014306E0216894484CF21017084059
:2037600047EA00012160934B9149A0791F780A9381F8320067B90E981DF046F98C4890F878
:203780003200000911D30E9808A98DF8200009E0084690F83200000907D301200DF12101F9
:2037A0008DF82100522020F049F91CF095FD22F073FE800838BF0E9803D30E9821F01AFEB4
:2037C00001200028DFF818A30D9040F0D8800FF041FE5FEA000B40F0C380754ADDF8388098
:2037E000212074212432174624F074FC002859D12120414674223B4624F0AAF9002851D18A
:203800006B48408F4FF6FE7181424BD0684890F84A004FF00108082806D0042804D012F0C2
:203820000DFDDDF838803DE0C14642200DF122018DF8229020F002F907F12F01432020F06D
:20384000FDF807F12C01472020F0F8F807F11C014A2020F0F3F807F11A014B2020F0EEF8F9
:2038600007F12401284620F0E9F807F11601532020F0E4F807F12D01542020F0DFF807F1E5
:203880001801E12020F0DAF8494890F83200000938BFDDF8389052200DF122018DF822907A
:2038A00020F0CCF80E9D17E0DAF804100E9AA80000EBC5000C23401881460090294601203E
:2038C00020F012FD30B999F80000FF2804BF099889F800006D1CADB23248BAF80010407867
:2038E000A942E1DC30F0010001D111F06FFFA148001D006800B180471EF0BCFEB8F1000F58
:203900001BD024F033FB0A99888318B9307800F0F800307023484078022818BF012104D1B0
:20392000234A0998032182F84A000A98393741703946143024F0B4FC01E04FF0090B8C4D3A
:203940000999184FA81C0180787818B91FF006FD38464078BBF1000FA94605D10E9904E005
:203960001048DFF80C92407801210D9110490A9D91F83C20012707FA02F1E9609EE00FF03B
:2039800069FD12F05BFC0A4A21207421243224F0A7FB02A8FF210C221AF022F80E9D5746CE
:2039A00012E0C046585F0020607400200000FFFF145B0020785D0020294601200C2202AB57
:2039C00021F03AFA6D1CADB23888A842F4DCC148407830F001000ED102A8FF21102219F07A
:2039E000FFFF0E9D03202946102202AB21F024FA6D1C332DF6DB5F48006800B1804709989C
:203A0000ADF80800162018F07FF9071C10D0FF21162219F0E5FF384602A9022223F0BEFDE0
:203A2000422016213A4624F05BFB38461FF0A6FE09980E990622ADF8100002A819F0D0FF2B
:203A4000142018F061F95FEA00081BD0A4480C300768A7B103270225A8B202A906224044A3
:203A600023F09CFDAD1D7F1EF6D104A94046022223F094FD4C201421424624F031FB404682
:203A80001FF07CFE182018F03FF9071C10D00E9D1822294619F0A4FF0620294618223B46D2
:203AA00021F0CAF96D1C032DF6DB38461FF066FE1FF00AF98748DFF8B89040780D99884D84
:203AC000012967D1B44F2437F0B101280AD002280ED1307800F0F80040F0020007E0C046CA
:203AE00078650020307800F0F80040F001003070A24822F031FF002808BF099809D00A9A2F
:203B000004210320917204E03178022001F0F8013170DDF8288088F8010024F018FB0B9957
:203B20006C4E00F07F000818643080B20E90B06B0221C8F80C00FF2020F0D2FE96494FF6AB
:203B4000FE70431C48870E46F0870998A1F8483020F084FF5F484078012810D10C98012883
:203B60000AD0099902A8082219F03AFF02A804E080640020AC63002009981FF03FFF2120C3
:203B800074213A4624F0ACFA0998022120F0A8FE50484078DDF834A018B9A08940F00100B8
:203BA000A081EF6887B9122018F0AEF80646002EEE606ED04FF6FE70B61F0327411C26F83A
:203BC000060F7F1E7180FAD1BAF1000F61D1099906AB4C20022223F0BBFF002852D1BDF8DB
:203BE000180000284ED004284CDA182018F08CF803274FF002084FF6FE7B0646099CEB68DC
:203C00001FFA88F14C2006221B1923F0A1FF78BBE868015B8B452BD056B300962018099A73
:203C200041881823062020F05FFB3069EA6800F2E93333611019418805F11002880000EBF6
:203C4000C100E9681350081973694188880000EBC1008018E96843600819418818223346CC
:203C6000062021F0E9F809993046182219F0B8FE7F1E04F1060408F10608C0D116B13046AA
:203C80001FF07CFD134B099971200822443323F05FFF10484778381C06D123F043FC24F051
:203CA00013F80C48477817B124F006F818B10120A870099EEE703248324EC9F80C00C9F87D
:203CC00010607FB137F0010006D122F043F92F480BE0C046585F002022F03CF92C4804E019
:203CE000503E002022F036F92A482749BAF1000F086019D0284890F86500A8B92748407803
:203D000090B9DDF82480622102AA40461AF014FD02A8414621F033FD404616F0E3F902A88D
:203D20001022414619F05CFE0A98006950B10A9C1034076820681FF021FD0A993846002804
:203D40000861F6D10A9A099F01200146107002F1090457728520093224F0BCF928B9852007
:203D600039460122234623F0F3FE0E9823F024FA22F000FC50460FB0BDE8F08F4061002015
:203D80005D080100797D020040630020659001007B6E0200719C0100145B0020585F0020AD
:203DA0002DE9F04F0446B14DB1480021ADF14C0D001D2E680768A0780C910146102910DC12
:203DC000102900F0AC80002900F0A682491E012940F2F581891E00F04D81491E00F01C81BB
:203DE0003CE3113966D0491E1ED0491E03D0491E00F03A8332E3207967798DF81000E07806
:203E00008DF8117023F010FA002808BF022005D00C3004A9022223F0C1FB0C988DF8200074
:203E2000132108AB012233E3204634460421C61C304623F040F80C9F0121002C35D0A268B2
:203E4000904203D02468002CF9D12EE06CB3361D304624F0BBF8B778804657B92868844223
:203E600018BF251C2068286020461FF087FC0C991BE0B81C17F048FF051C04BF10210C9FA0
:203E800013D00C9828706F7061683A46A81C414423F084FBBE1C642012212B46F2B220F04A
:203EA00025F828461FF06AFCF5E23170334612217770ECE220460126C41C8DF82160204650
:203EC00024F084F86F68A3780FB3B3B938680090686818300190787E0290B87E0390396966
:203EE000BA8AFB8A381D09F013F88DF8210068681FF044FC0C9868600CE03968E41C1A4682
:203F000009180846214623F049FB0C9800E010208DF82100112132460DF12103B8E2254649
:203F2000B94C89462D1DA07815F8011C002936D0491E10D0491E02D0481E5FD05CE0287801
:203F400023F042FF002861D041680978E170007820710C984CE02D78002857D1E1200DF16C
:203F6000230122F023F99DF82300854242D00126A670304623F0E2FD0C9809A98DF82400BA
:203F800052201FF05BFD28461EF056FE90B3657020783146642224F05FF9BA2028E0002855
:203FA00034D1E1200DF1250122F000F9CB4E9DF825103C36307888421CD0DDF8308001256E
:203FC0005220A5700DF126018DF826801FF036FDE12031461FF032FD52200DF126018DF8F6
:203FE00026501FF02BFD404623F0A8FD4046A07002460CE00C9A0AE00220F9E7284623F0F9
:20400000E5FF0C9AA97824F0B6F800B901228DF822200DF122031FE210218DF82710E17826
:204020008046DFB17A681278384691420ED03F683FB17A681278914205D038463F68002F90
:20404000F7D102200BE03968016002E0B1493868486038461FF092FB0C9800E001208DF821
:2040600027000DF12703CDF83480A5E0986500206065002001218DF828100C990D900C22A2
:2040800004A819F0ADFC25460224ED1C8DF81840284623F09BFFAF1CADF8100017F8010B95
:2040A0008DF8190017F8010B23F08EFE8146384623F08CFFBD1C0E9015F8010B15F801AB7C
:2040C00015F8018B2E788DF82900700017F01CFE0F9000286CD06D1C4EB183463746284623
:2040E00023F074FFAD1C7F1E2BF8020BF7D1B9F1000F57D0CDF8409015F8013BDDF83C907D
:204100003746AB460C2FBDF8105011934ADA28461CF04AFEC82815D14FF6FE701CF044FE80
:20412000C8280FD1C34890F8CC38012100F6D40C0C981CF8082B9342C4BF131C081C491C25
:20414000C829F6DBC74C4FF6FE7604EBC0046068668018B11FF012FB0C9860606FB17E0089
:20416000304617F0D1FD6060002808BF102419D060684946324623F011FAC94865800078CD
:2041800067700DF1290620701099CDF800B00E9A0196119BCDF808A004A8CDF80C8008F020
:2041A000B7FE04460F988DF828401FF0E7FA02E010208DF828000AAB0D9881464CE194F8E3
:2041C00001B001210228814604F103048DF82B101CD114F8010B03288DF8180005D0204657
:2041E00023F0F4FEADF8100004E004A82146082223F0D4F9083414F8010B8DF819002046AC
:2042000023F0E4FEA41C0FE06865002002208DF81800204623F0DAFEA41CADF8100014F87C
:20422000010B8DF819000C98ADF81A0014F8010B23F0CAFD8046204623F0C8FEA41C0D901D
:20424000B9F1020F14F8010B14F801AB14F8017B8DF82A001CBF14F8016B06F10A0006D171
:20426000204623F0B3FEA41C064606F11400B8F1000F80B242D0FA2832DD6C68002C3DD1C2
:2042800006F11C0017F040FD04466C6024B30C9804F11C0504A98DF82B000C222560201DD3
:2042A00023F07CF9C4F810800D98A082E6829DF82A50257684F819A0A7760F23E376794CAF
:2042C000207808214FF47A7223F0C6FFC8B1207808211CF0DFFC14E0102010E0145B002052
:2042E00000940DF12A000D9A019041463346CDF808A004A8039708F00BFE00E002208DF88F
:204300002B002BF01F0BBBF1200F40F0C4800DF12B03A1E0606500204FF0100A89468DF89F
:204320002CA0504617F0F0FC071C00F094805D48E41C7860207823F047FD00287CD1207888
:204340000C9E3870B04687F80C80142017F0DCFC0028B8606BD014F8011B01706278217870
:20436000A61C01EB0221418031787278B41C01EB02218180817914F8022B01F0F00102F031
:204380000F020A438271B96814F8010BC871BD68EB79464673B1580017F0B6FCA860B868E8
:2043A0008568002D08BF564604D03046BA68D179814231DC2078B9680873BD682B7B73B1D7
:2043C000580017F0A1FC2861BD682B69002B08BF564606D0641C4046297B814210DC102EA4
:2043E0002BD1A86810B11FF0C9F9BD68287B18B128691FF0C3F9BD6828461FF0BFF91CE0DC
:20440000627821782B6901EB022123F81010BD68A41C421CD0B2DFE7637821789268451CF1
:20442000A41C01EB032122F81010E8B2BEE7564603E0C046201B0020B8268DF82C603EB96D
:2044400038461EF0CFFF8DF82C009DF82C0010B138461FF093F90BAB4946E3E402200C90EC
:2044600019E0C046EC2300200C988DF810008DF81100E07804A922F04DFA9DF81170142196
:204480009DF810008DF81D7007AB8DF81C00022264201FF02BFD0C9813B0BDE8F08FC046A2
:2044A000725F00209B7500202DE9F04FDFF8BCB2DBF80000D0F8D41091F883A0B8300168C5
:2044C000DFF8AC820F78ADF1240D2FB941460F7817B1D0F89404804720F07AFC81274646E2
:2044E000A4493770BAF1020F086002D1A249FF200870A24C0020A249A08106460891BAF105
:20450000010F079127780E702069A7701AD0007ADBF80060801E85B2D6F80001C089A842C8
:20452000C0F20183216A0831096804F118000422016004F11901A67EE37E607E06914978B2
:20454000A2812DE0467A007A06F0070100EB01218DB2710938BF281F04D306F0070100EB2F
:204560000120801E36F07F0685B240F0DC82DBF80000D0F80001C089A842C0F2D482216AAA
:2045800004F1180008310A68097902600522017104F11901A281237F0691E67EA07E8978F8
:2045A00000EB06206081C1F301182371DBF8001001F1B80CDCF800100978ED1EADB2002917
:2045C00008BFB8F1020F00F0AE82B8F1020F00F3AA8219B110F0070F00F0A582667800F09C
:2045E00007039B1E022B08BF002E00F09C82DFF8A49231B149460978862902D1002B40F0EC
:204600009282001300F0020002284BDA334341D1DCF81C0090F88300022838D0216A891851
:204620000831097805A8521C017097B2A78123F04FFE054649460878862825D1DBF8000092
:20464000403001680A6832B9D0F80C058047DBF80000006C02689DF9140023F077FE5077E2
:20466000DBF80000016C096800228A77006C9DF914100068C177284623F0AAFF608900F09D
:2046800010001DF0A1FA02E0284623F0A1FF22F081FE4AE249460878862803D120F024F8E5
:2046A000A77866788FB186B9012F00F03C826089022F03D110F0070F40F03582032F05D1AD
:2046C00000F00701032901D02DE26089010980F02A82011301F00201022902DA810A80F0BD
:2046E0002282BAF1010F19BF0699497806998978C1F381098E11B9F1010F00F01482012E37
:2047000000F01182B8F1020F13DA00F00701012918BF03290DD1B9F1000F0AD1002E00F0BA
:20472000028259460968AC3109680F78002F00F0FA81B149B8F1020F09D08A5D11F80910E0
:204740008918CFB216B3C10920D3BF1E0BE072184944127909798918CFB2C10912D259EAB2
:20476000060313D0BF1CFFB210E0C04614010020A275002084750020E54700208C720020DC
:20478000A475002059EA060308BF0227C0F30020391A60718D42C0F2C681DBF80030ED1BDA
:2047A00029182181D3F850122D187435A8B2884700286578606100F0B6810021742219F025
:2047C0000FF90020E07061894FF0FF081DB9079A01F020001070079805784FF0000C002D95
:2047E00040D06579002D3DD101F00700032809D0012837D1DBF80000D0F8D40090F882509A
:20480000002D2FD0BAF1010F18D0DBF80400406905781DB123F0E8F8FE280CD0DBF8000036
:20482000D0F84C028047C8B9DBF80000D0F84402804778B112E00420E07012E0DBF800001E
:20484000D0F84C02804748B9DBF80000D0F84402804718B9618994F803C003E00420E07071
:20486000618984466569238905F1740205F17400AA65BAF1010F6860B24A2B812089A98127
:204880001378A5F85C0007D0069A5078C0F30111107806E0A7750020069A9078C0F3011179
:2048A000507800F0780008434CEA00002874002B85F80E800CBF2079002085F8306085F867
:2048C0003A9085F84900A089002FA0EB030086B2A68100F02581DBF80000E780D0F8D40097
:2048E000216A90F883903A4689190831684616F047F8BF19B8B2B9F1010FA08107BF0698C3
:20490000807806984078C0F301182846077CB9F1010F07F0400A07BF0699897806994978CB
:204920006D46C1F38106002E42D0B8F1020F4FF0000302D1BAF1000F0BD19DF801209DF899
:20494000001001EB0221A0F844100DF10205A0F842107D4FB0F84410B7F85A208A4203D0CD
:204960004FF6FF728A4220D1032E11D06A78297801EB022189B24186B7F85820AD1C01200D
:204980008A4211D04FF6FF728A4218BF181C0BE060692946323023F083FC60694F373946F8
:2049A000323022F005FD08350346002B00F0B580B9F1010F07BF06988078069840788711A7
:2049C00021D06169B8F1020F03D0087CC00903D309E05AEA060306D16A782878AD1C00EB29
:2049E0000220A1F84200032F08D068782A7802EB00220A8507E0C0467CA402006069294649
:204A0000283023F04DFC59460968AC310A686089177887B1B8F1020F0DDA00F00702012A0E
:204A200018BF032A0BD162692EB9484BB2F842201B88934271D100F00702032A05D0012A65
:204A400014D1886A90F8820080B1D1F89C116069884758B90020069FE070B9786669787820
:204A6000C1F3011100F0780008433074B9F1010F56D1DBF80020B8321068007810B1B8F101
:204A8000020F4DDA08980078002849D06079002846D1D1692079E778DFF8B490DFF8B48015
:204AA00091F88310012912D0494600250223CD708A1C137017B143F01003137003219070DA
:204AC000404680F8731042671CF0A8FD28E0D2F8702305460DF11501E92090479DF815604D
:204AE000052336B94946072201F10C000270082204E0494601F10C00037018224A7302214F
:204B000000228170C27017B141F010018170A8F80431C8F810010571D6E71BF053F804E042
:204B200004F000F801E022F089FE23F0D1FB216A0A68002313710968216223F049FD09B086
:204B4000BDE8F08F91720020405E00209A5E002044640020A85300202DE9F04F0446B54EB3
:204B6000A578F06A4FF0000BADF14C0D2946312911DC312900F0E280DFF8C882B24F1429BC
:204B800014D91C3900F06281491E00F01B81133900F0E9807FE2323900F0BA80491E69D0D2
:204BA000491E012929D9891E17D074E2DFE811F06402A502A1025002990273027302240209
:204BC0004E010A010D02F8018F0273028902DE0173027302C901B801760240B1C06830B124
:204BE000E01C23F0F3F9F16AC968884700E003208DF8380036210EAB61E201270028A8460E
:204C00008DF839702ED0406A60B3204602A921F0F5FE342D044618BF584602D123F0D6F9C1
:204C2000A41C2578E0B902A822F0C4FF641C01280DD1BDF80C002946224621F0A5F8BDF87D
:204C40000C00012803D1E22021461EF0F7FEF06A466A02AB93E803002A462346B04702E0F8
:204C6000042000E003208DF8390041460DF139033D46A5E0002840D0C06900283DD020468A
:204C800002A921F0BBFE054602A822F093FF012818BF584603D1BDF80C0022F0AFFE0446CA
:204CA000284623F093F9AD788046F82DA8BFF725A81C5FFA80F9484617F026F8071C1AD0FE
:204CC000A4B9F06ABE1C02ABC469009693E8030042462B46A047041C08D1584638704A46A6
:204CE00033213B467D7061201FF000F938461EF045FD1CB90DE2102400E0032408A859464D
:204D0000022218F06DFE8DF82040332108ABFCE168B1806A58B104A9204621F06FFEF06A3C
:204D2000826A04AF97E803009047014600E0594602A822F027FC32210422D8E160B18069AA
:204D400050B1204602A921F059FEF06A826902AF97E80300904700E003208DF83A00312176
:204D60000DF13A03ABE101258DF83B5010B3006900B3204602A921F041FE042122F09BF82C
:204D80005FEA000814D016F0BFFFF46A071C14D05946424618F024FE246902A803C84246DA
:204DA0003B46A0478DF83B0038461EF0E7FC04E0052000E003208DF83B0030210DF13B0303
:204DC0002A46A3E1E41C8DF83CB0204623F0FEF8A846092D064609D0A01C23F0F7F80746AB
:204DE000201D23F0F3F8A41D054602E0A778E578241D242E03D12088352606AC06903046E6
:204E000020F03EFF7919884216DB27B930462946224620F0B9FF30462946224623F060F94A
:204E200030B9012E0BD1E22021461EF007FE04E00A2002E05831002002208DF83C004146FF
:204E40000FAB3CE19B750020ACA402002646F61C304623F0BBF8A9468046B8F1240F46D098
:204E600022F0CCFD0446082D08BFB67803D0B01C23F0ACF80646404620F002FF86422BDADD
:204E80005CBB801B85B2F82DA8BFF725A81C5FFA80FA504616F038FF071C1BD0B81C594696
:204EA0002A4618F09DFDBB1C404631462A4622F04FFE48B958463870524649463B467D7061
:204EC00061201FF013F800E00A2438461EF056FC1CB91EE1102400E002240AA859460222C8
:204EE00018F07EFD8DF8284049460AAB0DE135205946042207AB22F02BFE38B9BDF81C2027
:204F0000584602210425ADF8262002E00120594602258DF824008DF8251009AB08214FE77D
:204F2000E01C23F053F8242802D020F0A9FE00E058468DF82C00001213210BAB8DF82D0065
:204F4000E3E0E01C23F042F80546601D23F03EF80146242D03D0284623F030F900E05846A1
:204F60008DF83F0012210DF13F03A8E0E078211D70B1401E0AD10878012805D020B15220C1
:204F800010A921F013F908E0522002E0022002E0E0201EF053FD8DF840000F2110AB8EE07F
:204FA00041460125087814F8031F8DF842500429A8BF022003DA37F811101BF0D5FB8DF83C
:204FC00042000B210DF14203FAE6E41C20780428A8BF02200ADA601C22F0F8FF2678414665
:204FE0000246087837F8161023F036F98DF843000A210DF1430362E0E01C22F0E7FF064699
:20500000601D22F0E3FFE779E51C0146242E19D0B94205F1050510DD30465A4623F05AF8D9
:205020008DF844009DF8440009280ED16FB1304639462A4623F054F807E030462A4623F0FA
:2050400049F800E058468DF84400072111AB36E00127E41CE2208DF8457021461EF0EEFC0B
:2050600030B938460821224623F03AF88DF8450003210DF14503FBE5E078284C30B1401ED4
:2050800047D122F07FFF01202060FEE722F07AFF01202060FEE74FF0020B3AE094F90300DB
:2050A0001F4F8DF83D003868D0F830240DF13D01E020904714210DF13E038DF83E00012297
:2050C00024E08DF841B00E210DF14103F7E723F03EF88DF830000C210CAB00128DF831005D
:2050E00013E0E22002A921F061F80421082202AB0CE00C4B02210A2208E059200627012168
:205100008DF834000DAB8DF83570022261201EF0EDFE584613B0BDE8F08FC0467C052043E7
:205120001401002068A402002DE9F0430646D948B57800780024ADF13C0D294640292ADCE8
:20514000402900F0B881202914DC202900F0E981092945D9103900F00B82491E00F0FE81F5
:20516000C91E00F0F281491E00F0E881481E00F0DD8141E1B1F1210000F0CD81401E00F000
:20518000C481401E00F0B781401E00F0AE81401E00F0A38130E14A2911DC4A2900F0678199
:2051A000413900F07D81C91E00F07681491E2ED0C91E00F06481491E00F05D811CE1B1F1C4
:2051C0004B0000F04181801E00F03A81163800F02881401E00F017817C3800F00F810BE19C
:2051E000091E00F0AB80491E4DD0491E00F00482491E00F0ED81491E00F0DD81491E00F03B
:20520000CC81491E1FD0C91E00F0B781F4E0304606A9C01C22F0F6F88DF81E0048B99DF8CE
:205220001800BDF818708DF81F0038128DF8200005E00DF11F00FF21022218F0D1FB032247
:205240000DF11E03EBE130468DF83640C61C304622F0BCFEB778C0F304213FB9052903D0CE
:205260004FF6FF7181420BD1204607E0052903D04FF6FF71814203D14FF0FF30DD49086044
:205280000DF13603CAE1202016F03EFD061C00F0CA81FF21202218F0A3FB731C012021462F
:2052A000082222F055FC751C071C18BF01272146042205AB842022F04BFC083560B99DF889
:2052C000170028709DF8160068709DF81500A8709DF81400E87001E047F0020783202146AE
:2052E000022207AB22F034FC2D1D38B99DF81C002870BDF81C000012687001E047F0040734
:20530000ED1C6120214601226B1E22F021FC08B147F008072146102262202B4622F018FC10
:2053200008B147F01007012120223346672037701EF0DCFD30461EF021FA74E1264630F0F4
:2053400001008DF83B600BD10DF13B001AF06CFD9DF83B1080460E2000EB4100C7B201E04A
:20536000A0460E27384616F0CFFC5FEA00093DD0054621460822012005F8016B2B4622F07B
:20538000E7FB22F0F3FD0835072305F8010B001205F8010BA64A05F8013B1078A54905F802
:2053A000010B4B7833F0010316D19DF83B0028709DF83B308BB141466D1C20469DF83B2006
:2053C00082420ADD0A782A7031F8022B401CC0B212126A70AD1CF1E72E70672021463A4637
:2053E0004B461EF083FD48461EF0C8F9B8F1000F00F0198146469DE7022414E122464720F5
:20540000E02113460DE13046C11C4A7A087A00EB02208A7A8DF82E4010F0D2FA0DF12E03AC
:20542000FCE030468DF82F400822C01C0146684622F0B4F868461BF065FF0DF12F03EDE053
:20544000304611F047F9EEE0F11C6846082222F0A5F88DF80840CDF80CD002208DF8090015
:2054600002A817F08DFD0CAB8DF83000D6E030461EF05AFDD7E0304620F0E8FFD3E0F61C0B
:205480003078717820F0B6FD307033460012707039E0C046595F0020304614F083FDC2E01A
:2054A000F01C22F093FDADF80200684618F0D2FA01AB0822B3E0F11C01A8082222F06EF854
:2054C00068461AF043F9BDF802000DF122038DF8220000128DF8230015E0F5208DF82740A7
:2054E0000DF126038DF826000DE0F5200DF131038DF831003AE0F520FF278DF82A000DF1EE
:205500002A038DF82B70022289E0F5200DF132038DF8320082E0F5200DF133038DF833004F
:205520007CE0F5200DAB8DF8340077E068462146092218F055FA162109222CE06846214618
:20554000062218F04DFA152105E068462146062218F046FA1421062268460CE0F0781EF0C7
:205560003DFD11210DF135038DF83500012257E03278F01C1021034652E023F02DF8054690
:2055800022F0D0FC2C496843B0FBF1F1684621F0F9FF092104226B4642E0622020F070FBA9
:2055A000F61C01463246622022F09AFD0DF137038DF8370032E0612020F062FBF61C0146A2
:2055C0003246612022F08CFD0EAB8DF8380025E0F01C042121F06FFC0490842020F050FB7C
:2055E000014604AA842022F07BFD0DF139038DF8390013E02C650020F01C22F0E7FCADF846
:205600001A00832020F03CFB01460DF11A02832022F066FD0DF13A038DF83A000122294681
:2056200067201EF063FC20460FB0BDE8F083C046785D0020585F002040420F002DE9F04F81
:20564000CF48D04CDFF840830F46390CADF1240D80F06582790927D300230370D7494370D8
:20566000184622F0E3FCD649012022F0DFFCD549062022F0DBFCD449072022F0D7FCD84937
:20568000082022F0D3FC0522D6498DF80C300DF10D0021F083FF41208021062203AB1EF076
:2056A00025FC87F0100044E2B80828BF87F0020080F03F822068390931D217F4706F08BF4D
:2056C000002000F03682380B04D3002022F0A0F987F40067F80A04D3012022F099F987F422
:2056E0008067B80A04D3022022F092F987F40077780A04D3032022F08BF987F48077384677
:2057000017E22168884205D0016829601EF036F8286804E0016821601EF030F8206808BB5B
:20572000606858B1C27EC17E521E491ED6B2C17626B960681EF022F8002060602668002E18
:2057400008BF00280BD04446207808214FF47A7222F082FD18B1207808211BF09BFA87F0D3
:205760000800E6E1017B491E0173C9B20029C8D005460068D3E70546D9F8046028781A28F8
:205780000EDC1A2854D0401E00F06C81401E00F02B81801E00F0B581801E00F01781BBE1FE
:2057A000243800F0A881AD3800F09E81801E03D02A3800F08B81AFE1A87C0930C0B280468C
:2057C00016F0A2FA061C00F0A781A97800F8011B6988091200F8011B99F80C1000F8011BD7
:2057E00099F80E1000F8011BB9F80E10091200F8011B99F8101000F8011B99F8111000F879
:20580000011B99F8141000F8011BB9F81410091200F8011BAA7CA96921F0C0FE4520FF2113
:20582000424633461EF062FB30461DF0A7FF73E1B5F824A0E97B0AF114001FFA80F822F0F8
:205840009AFC002640B9A87B032805D0B8F1F00FD8BF4FF0810B16DD08F10A004FF0820BA4
:205860001FFA80F8B8F1FA0F0DDD0AF1100016F04BFA061C00F0508106F11000A8EB0A041A
:2058800070601FFA84F8404616F03EFA079020B9002E00F041813046A0E00446A87804F833
:2058A000010B6888001204F8010B287904F8010BA888BBF1820F4FEA202004F8010B1AD150
:2058C000A87B04F8010BA87B032805D0A8792070E8880012607004E0A91D2046082221F02C
:2058E0005DFEE87B083404F8010B287C04F8010B288A001207E0A87904F8010BE8880012A4
:2059000004F8010BE87B04F8010B287D04F8010B687D04F8010BA87D04F8010B687E04F86B
:20592000010BE969204621F02DFE241DBBF1820F04D0002004F8010B504606E0002004F855
:20594000010B04F801AB4FEA2A2004F8010B0E480078DEB10B4909680A4B31604FF47A72D1
:205960001E6008210F23337322F076FC20B10648007808211BF08EF9E869B060706807E0B2
:20598000FC5E0020986500209B75002020465444A96A524621F002FE95F82C0004F8010BC5
:2059A000A88D5FFA88F85946001204F8010B95F82E00079E2070442032E7C0468DFE010021
:2059C0003B4F02003D36020025510200A878401DC0B216F099F9002800F09E80064623E73B
:2059E0006143020068A4020029790B2000EB4100C0B220F06DFF002800F08E80A9782E791E
:205A00008DF80010EC788DF802608DF801400DF10301FEB1AA792C79EE880A70022C4FEA10
:205A200026218DF804100DF1050113DB2A7A2C792E890A70032C4FEA26218DF806100DF1D2
:205A4000070107D1AA7A6E890A7031128DF808100DF109012A7BAE890A7032124A7021F084
:205A60004DF859E0002E57D070788DF81500B0788DF816003078FA2819DC9DF8150000F0B5
:205A80001E00162811DA2C499DF815000D4600F01F00820050194068091D30B1895830464D
:205AA00088478DF8140028B9BEE6012000E004208DF814009DF8150020F01F0020287FF4A7
:205AC000B3AE60200021032205ABABE66878AE78EC788DF8180006AB8DF8196003228DF8FE
:205AE0001A404420802103E06B1C4520C02101221EF0FCF910E0F0783346401DC2B2692046
:205B0000F0E7F078401DC4B2A11E701CC9B221F07DFEA41904F8010C484620F0EFFF074880
:205B200000781BF089F85FEA00097FF424AE87F4004009B0BDE8F08FFC5E00209B75002088
:205B40002DE9FC47D44C0F460546F80B80F006826078DFF85883B90F80F0AA81B90880F013
:205B60009D81F90A80F00281390B80F0CC80380907D2F80FC0F0288227F0804719F004FCAF
:205B800022E222F0A5FB814621F008F8002800F0B480082022F03EFA002840F0AE80802093
:205BA00022F038FA002840F0A880684615F01CF8012803D10098002800F09F8094F83102CF
:205BC000002840F09A8000250126E8B221F07AFF48B1837A3BB1867290F9090006FA00F087
:205BE000C0B21EF0A1FC6D1C032DEED3032084F8200004F5C47022F065FB484622F0E8FC2C
:205C0000D34800252A460168056050F8081CD14940F8085C04F15C0020F0D0FE40460068C7
:205C2000006B8047A168401A010BA06AC1F1FF3282422CBF08444FF0FF30A06294F82C00B3
:205C400020B12069A16AB1EBC02F25D920F0B6FF294600B13146081C1BD0BF4840F60901A4
:205C600001804580417B06F00F0221F00F010A434273017B05F00F0321F00F0143EA010224
:205C800002732946416022F05FF8418811F4406FFBD084F82C60A5621CF08AFECE482946A6
:205CA0000560022020F0C0FC02201FF0E3FA112012F080FD207818B96068483022F01EFBFF
:205CC000C648007810B90E2012F074FD94F82D0020B184F82D5005201FF0CCFAC04860628D
:205CE00084F82050B4F9B000B4F9B210884214BF0220072016F0F2FE02E0484622F068FC2A
:205D000027F008073AE720B104201FF0B3FA0020607065681EF0ECFB38B12846ED696FF4C9
:205D2000807100224FF00073A847E06858B140460068006B8047E2686168801AC860000B5E
:205D4000C8600026E660A74904F15C00002220F035FE0221D4F89C0084F8201018B104F114
:205D6000DC0022F0D3FA27F4006707E722F0B0FA064620F013FFD4F894100028894600F077
:205D80008480002900F081809749042504F15C00002284F8205020F011FE304622F018FCC2
:205DA00004F5C47022F08EFA40460068006B8047E0604FF0010884F8018028461FF072FA8E
:205DC000D9F810006060D9F81000416AC90803D3036A29460022984740461AF0F5FC6068C9
:205DE00080F81580606812F0A5FD6568D5F808A040F60A02D01F564600F1010C00E01E46D9
:205E0000736833B119888A4203D0884218BF8C45F5D100217160727B08F00F0322F00F023F
:205E200013437373D9F80C201288904224D06046904221D02B8E03B3696305F1300251802C
:205E400095F83C0001F00F0320F00F00034385F83C3095F83D0008F00F0320F00F000343EF
:205E600085F83D307260707B01F00F0520F00F0045EA0001717300E0E160504621F064FF18
:205E80005146404620F0D0FB02E0304622F0A0FB27F4806798E0C046E84700200BF00EFD30
:205EA000D4F89C0008B927F002078DE08C0100104E4A116841F08001116020B104201FF057
:205EC000D9F90020607022F003FA8246D8F85400016804208847D0B1287DC0B1A068B0B1A9
:205EE0008146D8F800002E69006B8047A0EB09002861000B2861B04202D280194008286161
:205F000040F6C41181422CBFB0F5967F2961504622F05EFB1EF0ECFA80B1EE6928466FF436
:205F2000807100224FF00073B047D4F89400002808BF47F0020701D019F026FA2846AD6998
:205F400000214FF080630A46A84727F000573BE0141004404D0D02007474002022F0B8F9A7
:205F6000D4F8AC6066B306F1280106C90A234FF0E0450B40154008BF002B21D106F128010C
:205F800091E8000306F1280595E8060006F1280322EA090221EA080183E8060022F018FBFB
:205FA000B16879B1B9F1000F08BFB8F1000F09D03069B6F93010B5684B464246A84701E0FF
:205FC00022F006FB27F4804727B104F1DC00394622F09CF9BDE8FC870000046016A40200B5
:205FE000715F0100C95501007D6B0200CC2108402DE9F04FADF17C0D1B91C0491C923CC9AE
:20600000064610A83CC00EC980E80E0000248DF84240327F8DF84340B08D8DF84D40D6F832
:2060200028C0ADF844401746ADF85A00F0898DF854706146ADF84A00087800F00303022BF8
:206040008DF8400000F3FD8123461D93491C1E9343083CD200F00C0EBEF10C0F0CD0430986
:206060003CBF11F8013B8DF84230BEF1080F04BF01238DF84C3001D08DF84C40BEF10C0F8F
:206080000AD0737903F00303012B0CD140F00C0073898DF8400004E04D780B78891C03EB7C
:2060A0000523ADF84430430911D24D780B78891C03EB0523ADF846300B784D78891C03EB77
:2060C0000523ADF8483011F8013B8DF8433011F8013B30F07F058DF855301ED00B7833F0B7
:2060E00003058DF8413040F0A88103F0030EBEF1030F00F0A28113F0030F01F101010ED08A
:2061000011F8013B00F00305022D8DF8573004BF11F8013B8DF8583001E08DF84140149166
:20612000A1EB0C017F1AFFB2BA42C0F28681D21B8DF85470D1B28DF84D100F4300F08181E8
:20614000C10907D370891DF0B9FA002840F079819DF8400000F00C012746091F08BF01273A
:20616000820932D301221E9279B3B28921F0FEFE904202D1F08D000A0DD221F0F7FE904265
:2061800021D0F18D080A38BF101C07D39DF8400000F003032DE07089ADF85A20804621F0BA
:2061A000E5FEBDF85A10884205D040461BF03DFB002800F04681A448026810A9404690472A
:2061C000002840F03E819DF84000F18D00F003030A0A0ED2C2090CD39DF8412012F0030FB7
:2061E00007D100F00C020C2A03D0082A1CBF01221D92DFF86082022B00F00081012B00F06E
:20620000CE8010F0030F40F01C81904890F82F00012803D1B579002D00F013819DF85400FD
:2062200002221A900B0A9DF84240BDF846B0BDF848A09DF855E09DF857C0DDF850908DF86C
:206240006420B0899DF84350ADF85C0075D2454605F11C021468002F52D11D9F17B110A967
:2062600015F06BF97A484178022936D10078012833D1B07C002830D070891DF01FFA0228C6
:2062800001D0707948B37449B2893C208B1F33F8064F944204D19C78F77CBC4200F0D1805A
:2062A000401EF4D16878891F3C234FF6FE7731F8064FA74202D05B1EF9D1C2E00A80F27C04
:2062C0008A700C228A8004211DF038FA28B9687804214FF4FA7221F0BFFFF07C1E9F00900B
:2062E0001C9D0197594C0295B07C1B9B0390B4F8482017A910A813F071FAA2E0F8A1020085
:20630000307C002C8DF8560000F09B8021F02EFEBDF85C20904240F0948030791E9F009045
:206320001C9D01971B9A02951D9B039196F8300010A9049017A8A04783E08DF820208DF816
:2063400022508DF82340ADF830107089ADF818008DF835E0ADF826B0ADF828A0CDF82C9045
:206360001A9B8DF836C0327CADF82A3035798DF83220B47C8DF8335096F832108DF83440BA
:20638000324F8DF83810B7F84800ADF8240096F830708DF8377006A807F0BCF851E01D9F4F
:2063A000B58937B1080A04D2284610A915F0C5F8B5899DF85400B6791030C0B220F088FA4C
:2063C000071C3ED07D81022038703E737C709DF854203A7207F110057D609DF8400080092A
:2063E00028BF01247C721499786821F0D7F845466D1C287839461BF09BFF22E09DF8410086
:20640000B189454624352B6810F0030F10D110A807901248ADF8181006A91FF093F880B1E8
:20642000062141730068407B21461CF06DFD08E03BB110A82246984703E08DF84D408DF834
:2064400054401FB0BDE8F08F3C630020145B0020585F00200C610020341D00201B21020054
:206460002DE9F04F4FF0FF084146ADF14C0D0E910F914FF0000910914E46089609960A966A
:20648000AD4C0B9604F1300B0C96E0680D96494611919EE0E068710306AA042321F052FE02
:2064A000119903AA304620F0A7FD02AA3046012120F0A2FD3046022101AA20F09DFD0698DC
:2064C00000F0FF0028709DF81900069F6870C7F30140E8709DF80E30AB702878FF2834D0FE
:2064E000BDF80C70FE2830D04FF6FF70B8422AD107A81DF055FDE06871034FF088524FF476
:20650000005321F01FFEB8484FF4005750F8041D3F1FBFB2B1F1FF3F07F1885201D1032F72
:20652000F4D810684FF0010A514600F0FF03FF2B18BF8A46491C000A0529F6DB10600798F6
:2065400021F014F85744EF8001E01020E8809DF80A00BDF8087028719DF806302F81BDF806
:2065600004206B7129786A81E068FF292AD0FE2922D07E291AD07C2912D078290BD07029DF
:2065800004D00D99491CC9B20D9120E00C99491CC9B20C911BE00B99491CC9B20B9116E0D0
:2065A0000A990F96491CC9B20A9110E009990E96491CC9B209910AE00899B046491CC9B207
:2065C000089104E009F1010710965FFA87F9761CF6B2E578B54200F31F810D9F002F38D1B8
:2065E0000898022835DA0C98022832DA099802282FDA4D452BD00C98C0B90898A0B90B98CE
:206600000A99084325D01FF059FD854219DCB9F1000F14D094F83200FE211EF0B3FDE578E1
:206620000120DDF8408015E0012013E0089860B9B9F1000F07D11FF041FD854201DC06203A
:2066400008E0032006E00220EBE7022002E0119800E004200028A07000F0C880401E49D0BD
:20666000401E00F0A980401E06D0401E00F09780801E00F093800AE11FF020FD05460C20DB
:2066800084F83C5015FB00B0817E84F83D10C07E84F83E000FF048FEE2782D1895FBF2F01C
:2066A00050432D1AE8B284F83200401C90FBF2F15143401A84F831007C201DF0E1FEFF28A4
:2066C00010D17E201DF0DCFEFF280BD1FF201DF0D7FEFF2806D178201DF0D2FEFF2808BFEF
:2066E00094F8310084F833000C2110FB01B0808BE0868BE00F9F08F1010090FBF5F184F8D4
:2067000032806943FF2FA0EB0100C1B284F8311014D10E98FF2804D10C200E9111FB00B023
:2067200004E00146880000EBC100584484F83310808BE086ABE0C046A05C00203A46D0B27F
:20674000910084F8330001EBC2015944898B1729E18640F29C80C91F01AA89B213F0A0FE35
:206760009DF80F00C0083BD3119F0097BDF81220E18E94F833000323891AC91F01AA89B2AC
:206780000AF0F2FF002840F08280BDF8101000297DD09DF814001BF0A5FD78E0FEE7119E27
:2067A000B54223DD304611F0A5FF6178E578761CF6B201436170F3E708F1010084F8328040
:2067C00090FBF5F16943401A84F831005FFA88F011F090FF6070FE215FFA88F01EF0D2FC98
:2067E000119802F077FF52E00020001111986D1E84F831000C2184F8325010FB01B184F8E0
:206800003300898BE1867E211EF0BCFC94F83200FE211EF0B7FC3AE00C2116FB01B506AA09
:206820000423710321F08EFC1199304603AA20F0E3FB304602AA012120F0DEFB30460221A1
:2068400001AA20F0D9FB0699163501F0FF0201F0FF00FF2A09D0FE2A07D07E2A05D07C2AB9
:2068600003D0782A18BF702A0AD1119F47B9C1F38542032A04D19622B2EB116F3FF422AE52
:20688000304611F037FF002860703FF403AE13B0BDE8F08F2DE9F04FC24CC44AA0790E46AA
:2068A000F108ADF11C0D80F07281BF49330C07D3DFF8FCB24FF6FF7A9146AAF1010A42E0B2
:2068C0000F78710B27D2300A28BF86F0800080F0D581B0080BD2300B38BF0020C0F0CE81F9
:2068E000381C01D110F086FA86F40060C6E1012F18BF022F0CD168460021082217F070F8F4
:20690000684613F007FA18B1207802211AF0C2F986F00200B2E1012F18BF022F10D1401EFA
:206920000AD0801E0CD1207A022809D10120207200201DF0C3F803E0E17900201EF072FDEF
