:10000000003C0120914B0200D1680200D16802003F
:10001000D1680200D1680200D1680200D1680200F4
:10002000D1680200D1680200D1680200D1680200E4
:0C003000D1680200D1680200D9F4000081
:10003C002DE9F04F99B0054680780224532800F240
:10004C00C785DFE810F054009900A800B800C8007C
:10005C00DA00EA000C011B01C5052A01380159011F
:10006C00C505C505C505C505C505C505C505C50534
:10007C00C505C505C505C505C505C505C505C50524
:10008C00C505C505C505650188019401A001AB0135
:10009C00BA01D401EB0107023A02C505C505C50535
:1000AC00C505C505C505600276028C02A202B80220
:1000BC00CD02DE020303C505C505C505C505C5058D
:1000CC00C50538034C036003C5056D037703950321
:1000DC009E03AA03B603C503CF03F2030F04340433
:1000EC003C044E045B0467048B0492049504EC1CE2
:1000FC00E97A2A7B002320461DF0B0FE8DF818000B
:10010C0006AB65200021012222F0E0F8DFF8180B85
:10011C000078012800F25B85204629F0EAFA0028D5
:10012C0000F0558505460079012840F0508529F0EE
:10013C0069F800274FF400018DF83F008DF8380066
:10014C00000ACDF83A108DF841708DF83E708DF89C
:10015C0040008DF839000EAE214606F10A0029F058
:10016C0040FB2978152233460170697887704170FD
:10017C004520FF2100F029BD29F0E8FA6979AA7918
:10018C000023002425F032F88DF838000EAB6520E2
:10019C00012100F053BC29F077F829F0F7F901465A
:1001AC000EA8022229F081FA8DF8180006AB652002
:1001BC00022100F043BC29F067F829F0E7F9014669
:1001CC000EA8032229F071FA8DF8180006AB6520F1
:1001DC00032100F033BC29F057F829F0D7F9EA795C
:1001EC0001460EA80023002426F08AFE8DF8180084
:1001FC0006AB6520042100F021BC29F045F829F05C
:10020C00C5F901460EA8052229F04FFA8DF8180001
:10021C0006AB6520052100F011BC0020DFF8304A48
:10022C0028F014FFADF85800681DA0478046E81D63
:10023C00A04795F809B0824605F10A07BBF1100FEB
:10024C0000F2AE830EAC5E46002E00F0AC83384656
:10025C0029F018FB24F8020B013E0237F4E729F0D1
:10026C0013F829F093F901460EA8102229F01DFA73
:10027C008DF8180006AB65200721DFE329F004F8A0
:10028C0029F084F901460EA8112229F00EFA8DF8F6
:10029C00180006AB65200821D0E329F057FA6A7BD9
:1002AC00691D0023002423F087FC8DF838000EAB69
:1002BC0065200A21C2E302208DF8200029F046FABD
:1002CC00ADF81800681D29F0DDFAEA79064605F14B
:1002DC0008018DF838200EAF781C28F087FD06A891
:1002EC0031463A460023002420F0B2F98DF858002C
:1002FC0016AB65200B21A1E329F028FA002100247C
:10030C0022F076FE8DF838000EAB65200C2195E3BB
:10031C000020DFF83C4928F099FEADF85800681D24
:10032C00A047804695F80F9005F11000A04705F105
:10033C001304AD7C83460F2D00F247830EAE2F467F
:10034C00002F00F04583204629F09CFA26F8020B7A
:10035C00013F0234F4E728F097FF28F07EFE28F0E6
:10036C0035FD40F0468306A829F03BFA46E328F019
:10037C008BFF28F072FE28F029FD40F04D8306A873
:10038C0029F02FFA4DE329F0E1F929F0D2F88DF894
:10039C0038000EAB6520232100F016BCDFF888185E
:1003AC00C8208DF81800E81C0978002900F081831A
:1003BC0028F097F98DF81800A3E36879EE1CFE2855
:1003CC000BD1A879FF2808D12878082805D3304606
:1003DC0029F058FA314625F031F90EA9304627F0AC
:1003EC0075FE002800F09183054600249FE3E81C6D
:1003FC00042125F0ADFEE97929F066FADFF84418FE
:10040C008DF83800022028F095FADFF83C1803200C
:10041C0028F090FA0EAB65202621D5E329F090F94F
:10042C00044605F10E0029F02DFA297C6A7C03465E
:10043C00E878CDE90012AA1D214625F089FBDFF8EA
:10044C0000188DF83800042028F074FA0EAB6520E3
:10045C002721B9E34FF00208E81C8DF8408029F001
:10046C0011FAADF8380068798DF85800A81D29F0FC
:10047C0009FA2E7A044600270935CDE9005716A84B
:10048C000EA92246334620F0F5FE28F01BFF10D1B2
:10049C00DFF890078DF84080CDE9005722463346AF
:1004AC00C08AADF8380016A80EA920F0E3FE8DF82E
:1004BC00180006AB6520282186E30226E81C8DF87F
:1004CC00406029F0DFF929F061F8ED7904460EA8B7
:1004DC00002321462A4627F09BFC28F0F3FE0ED180
:1004EC00DFF840078DF8406021462A460023C08A79
:1004FC00ADF838000EA827F08BFC8DF8180006AB71
:10050C006520292160E328F0BFFEADF83800681D96
:10051C00042125F01DFE6A7AAB7A00240146009472
:10052C000EA825F041FB8DF8180006AB6520302194
:10053C0084E228F0A9FE29F001F8312201238DF87C
:10054C00580016A8CDE90004DFF8F0060EA920F03B
:10055C0091FE8DF8180006AB652031216EE228F073
:10056C0093FE28F0EBFF322201238DF8580016A8D9
:10057C00CDE90004DFF8C4060EA920F07BFE8DF84F
:10058C00180006AB6520322158E228F07DFE28F0D9
:10059C00D5FF332201238DF8580016A8CDE90004AD
:1005AC00DFF898060EA920F065FE8DF8180006AB52
:1005BC006520332142E228F067FEADF83800687BF5
:1005CC000024691D0094C0F3400200F001030EA842
:1005DC0022F0F0FC8DF8180006AB652034212DE2DA
:1005EC0028F052FE6A7BADF83800691D0EA8002376
:1005FC00002426F013F88DF8180006AB6520352181
:10060C001CE22C4614F8030B04281ABFE8782C1DA6
:10061C0002208DF84000204629F034F9DFF81866E6
:10062C00A5780121E278ADF8380000230024317060
:10063C000EA829461EF0E0FC8DF8180028463470F0
:10064C0026F028F806AB65203621F7E129F07EF874
:10065C00ADF83800687904218DF84000A81D25F00C
:10066C0077FD0446AE7AEF7A05F10C0029F00AF911
:10067C00DFF8B0850546214632463B4628F0BCFCE7
:10068C000EA820F0D3FD28F01DFE10D1022021462B
:10069C0032463B468DF84000B8F81600ADF83800ED
:1006AC0028F0AAFC0EA820F0C1FD8DF8180006ABAE
:1006BC006520372188E26C7829F048F80146DFF88C
:1006CC00740500781FF09EFF8DF8380004F0E000F0
:1006DC00202840F07C820EAB65203E2174E26C78C1
:1006EC0029F034F80146DFF84C05007821F0AAFA1D
:1006FC008DF8380004F0E000202840F068820EAB42
:10070C0065203F2160E200206C788DF83800DFF81E
:10071C0018050078411E022980F09481022095E191
:10072C0029F014F828F005FF8DF838000EAB652081
:10073C00422149E2002006908DF83D00CDF83900A9
:10074C00E81C06A926F0EEFB8DF83800069850B18F
:10075C0028F059FC81788DF83B10C1788DF83C104D
:10076C0000798DF83D000EAB6520432106222CE26A
:10077C00E81C27F0B6FF8DF838000EAB652044213D
:10078C0022E228F0E3FF6979AA790DF0EFFF8DF8EA
:10079C0038000EAB6520452116E228F0D7FF6979A9
:1007AC00AA791AF0E9FA8DF838000EAB65204621CB
:1007BC000AE2EC7828F0C4FF0146204622F0AEFC99
:1007CC00B0FA80F0472140098DF838000EABC1E13A
:1007DC00E87800248DF8384023F05EFA0EAB6520E3
:1007EC0047212BE1E8780EA926F0C0FB06468DF8D0
:1007FC00180040000130C5B2284629F047F80028FF
:10080C0000F0A381044600F8016B00219DF818202C
:10081C00914280F0BE809DF83830013100F8023BE7
:10082C009DF8393000F8013CF2E70EAC132120465C
:10083C0028F080F9EE7828F083FF0146304625F049
:10084C0051FF002800F088810021231D8DF83810FD
:10085C0028F0D9FBC11C827818468DF83B2028F073
:10086C00C5FA7CE10020EC78CDF84600CDF84200CA
:10087C00CDF83E00CDF83A0028F062FFAA79ADF829
:10088C0038000F2A28BF0F228DF83A2022B10EA86B
:10089C00E91D033028F0AAFA0EA9204601221CF00B
:1008AC00B5FD8DF8180006AB65204B218CE128F0C6
:1008BC009BF88DF838000EAB65204C2184E1E8786C
:1008CC0029798DF838100EA9032800F05F810228D1
:1008DC0000F06281012840F06681522021F0F6F987
:1008EC0064E128F033FF69790246A81D1BF0AEF8CD
:1008FC008DF838000EAB65204E2165E128F026FFFF
:10090C000146687919F0B4FD8DF838000EAB6520FE
:10091C004F2159E1C34D0822E88A05F13901ADF8A0
:10092C003800C24800788DF83A00A88CADF83B002E
:10093C00688BADF83D000EACE01D28F057FA04F1C1
:10094C000F0005F11C01082228F050FA287E5021D6
:10095C00182223468DF84F00652036E1B248007806
:10096C00002800F0018112200AE120F0ABFB2EE1FF
:10097C0000208DF83800E878010606D5A94910F05A
:10098C007F0018BF012081F868000EAB6520532151
:10099C001AE1652049212A46234621F097FC39E1CA
:1009AC0080208DF863003E78102E52D80DF1180976
:1009BC00013734464D46002C4DD0384628F062FFA6
:1009CC0025F8020B013C0237F5E780208DF8630017
:1009DC0027780F2F54D801340DF1180A3E46002EFB
:1009EC0050D0204628F04EFF2AF8020B013E02346C
:1009FC00F5E7084628F046FFADF81800687E06A912
:100A0C0028F0ECF90EA921201BF072F98DF8580092
:100A1C0016AB6520212111E0084628F033FFADF814
:100A2C001800687E06A928F0D9F90EA922201BF01F
:100A3C005FF98DF8580016AB65202221012221F0B8
:100A4C0045FCC5E0002840F0B580042008F0E0FD2E
:100A5C00B3E080200DE0BBF1100F0CD80EA90020E4
:100A6C0052465B468DE84202039016A8414615F0AB
:100A7C00F9F88DF863000DF1630365200621A3E0FE
:100A8C0080200FE00F2D0FD80EA9002002974A46A8
:100A9C005B46CDE9005106A9CDE9031016A84146E5
:100AAC0015F088F88DF863000DF1630365202021A3
:100ABC008AE016A90EAD2A4618F0CEFB04469DF826
:100ACC005800F0B1614904EB4400002641F8206065
:100ADC0001EB800046609DF94B00B0F1FF3F03DC59
:100AEC0005F1130022F0C8FD0EAD1421284628F0A4
:100AFC0021F80420214614222B4625F07BFA8DF890
:100B0C00186006AB652024215EE0182028F0BEFE9C
:100B1C00002800F083800446BDF83800002118221C
:100B2C00234627F0EDFF0546002818BFC8251920DD
:100B3C0028F0ACFE002867D007460130002D4BD0C2
:100B4C001821FF2227F0F0FF50E0002049218DF8FA
:100B5C00180006AB652037E001208DF838000EAB8D
:100B6C0065204A21132230E028F0F0FD044605F1FF
:100B7C000D0028F087FE0246691D204625F02AF854
:100B8C008DF838000EAB652051211DE0522021F06C
:100B9C009DF82748002104E0522021F097F82448C2
:100BAC000121017002E0522025F06CF80EAB65209B
:100BBC004D2109E001208DF8380004F0E0002028D8
:100BCC0005D10EAB65204021012221F07FFB0024D2
:100BDC00204619B0BDE8F08F3146082228F006F9FE
:100BEC0007F109002146102228F000F96520252183
:100BFC0019223B463D7021F069FB3846192127F03C
:100C0C0099FF384628F040FE002CE0D020461821F1
:100C1C0027F090FF204628F037FED8E7C825FFF7CD
:100C2C00E4BB00BF70840020902400203C250020F1
:100C3C0046260020C091002007260020F424002026
:100C4C00996402000D6A0200DD4C0100145B002067
:100C5C00919802002DE9F04F99B080466FF0070093
:100C6C00DFF8DCA80630ADF852009AF80000022834
:100C7C0014D1DFF8C808007880B9B8F8080010B1B2
:100C8C001020012101E0302000210AF083FC00201B
:100C9C008DF81C0007A9522021F018F80DF11C0941
:100CAC0098F80810D8F804004A4610F0B3F9E8B1E7
:100CBC009DF81E609DF81F409DF82050BDF82670D1
:100CCC0028F09AFA844211D127F003004FF6F871FC
:100CDC0080B288420AD0012D08D8022E06D29AF88A
:100CEC000000022808D19DF84D0028B1D32015F042
:100CFC00FAFE19B0BDE8F08FB8F82800ADF848003E
:100D0C00B8F83200ADF82A009DF82200D0B1D8F81E
:100D1C0004109DF81D209DF83830012027F016F89E
:100D2C0008B1CF20E3E7DFF81C08C078012809D10F
:100D3C00B8F8280028F089FC20B1417901F0E701CE
:100D4C00083141719DF8210068B1BDF82610FF20D3
:100D5C0025F0C8FC9DF82110E0B141F001012C26D2
:100D6C008DF8211017E09DF83900002800F0EB8079
:100D7C009DF83D10FF2902D0002940F02681DFF8B4
:100D8C00C807BDF82620C18A8A4240F0278101207D
:100D9C00222607E0082601F00300012808BF46F0D0
:100DAC00110601209AF800104FF6F877012908D89F
:100DBC003446B20758BF64F07F04002808BF34469D
:100DCC0000E034469DF82200DFF87C575FFA84FB84
:100DDC0030B9E87A20B10BF02200222840F0808054
:100DEC001BF0400004901CD0012903D8A87B80077D
:100DFC0000F1D880119801780C2900F2DB800122D7
:100E0C0041F298438A401A4200F0D480032902D15F
:100E1C0040780D2805D007A821F064FF01283FF485
:100E2C0068AFA88CB8F8441081420AD198F84620D3
:100E3C00B8F84210B8F8280000230093002307F0FC
:100E4C00ADFD9DF82200F8B1B8F84210B8F82800B2
:100E5C0022F036FA002800F08F800646D8F80400FD
:100E6C009DF81D10F2780844417B8A421EBF002277
:100E7C007260F1700130042125F06AF971688842C2
:100E8C00FFF437AF013070609AF80000022834D2BA
:100E9C00A87B80077FF52DAF9DF84D004FF6F876B7
:100EAC0060B1BDF8280027F09DF9002800F00781FB
:100EBC00D8F80400417801F0DF0141709DF82E0054
:100ECC00002800F0DF80D8F80400817901398171A5
:100EDC008DF82E1004F07F00090640F0D680D3E088
:100EEC000BF0420042287FF41CAF1198007800F000
:100EFC00FE0006287FF415AF72E77FF4FAAE95F882
:100F0C002600092802D004287FF4F3AE5FEA8B6038
:100F1C0000F19E80049800283FF4EBAE11989DF8E8
:100F2C0038100078042808BF022900F045810728F2
:100F3C0008BF042900F009810C2840F04D8107A856
:100F4C0015F09EF9D5E6BDF8260022F075FC0238A6
:100F5C00DFF8F415B0FA80F0CA8A4109BDF8260012
:100F6C00904208BF023100293FD09DF81E20002A74
:100F7C0056D001F1400455E09DF84D00B8B3042063
:100F8C0025F08CFE00283FF4B4AE01464FF4B2704D
:100F9C000880B8F828004880DFF8B00500781DF00C
:100FAC00F7FEA6E611980178A1F10C0212F10C0FD4
:100FBC003FF62CAFE88ABDF8262082427FF496AE2D
:100FCC00BDF8280023F07AFF90E6109A9DF83C00BB
:100FDC0020F08EFD30B101200026E3E690F82600CB
:100FEC000428F8D100260020DCE600241AE095F84D
:100FFC006C0001287FF448AF11980078062803D1C3
:10100C00049800287FF440AFF81DBDF82A1080B278
:10101C0081423FF46EAE07A841461EF079F968E6AE
:10102C0001F1200422F008FC0138B0FA80F04009EC
:10103C0044EA00069DF81E0000283FF4B2AE119859
:10104C00007827F023F9012818BF04F07E06A8E6E3
:10105C0098F8460027F0ADFF9DF82E00012840F0CF
:10106C00B480B8F82800BDF82810814240F0AD805B
:10107C00BDF8260022F0E0FB022804BF00208DF80A
:10108C002E00A2E004F07F000446210702D44FF0AA
:10109C00000A34E0E1B24A0722D4C9069DF82110B7
:1010AC0028D5C1F3820212B1072A18BF013A002ACF
:1010BC0008BF044601F0E30040EA820118E0D320A7
:1010CC0015F011FDDFF888040078002800F09F80EF
:1010DC00DFF8801451F82000C0EB0010810098E07C
:1010EC009DF8210000F0E00100F0E30040EAD1019E
:1010FC008DF82110D8F804004FF4805A017295F83D
:10110C002600092801D0042823D1E98ABDF826003D
:10111C0088420AD022F090FB022806D09DF82100CC
:10112C0000F0030001287FF4E4AD9DF81E000028B8
:10113C0047D011989DF838100078042808BF022970
:10114C003AD0072848D1042946D107A817F098FDB2
:10115C00CFE5E7B214F0610F46D0F80709D0B8F824
:10116C00281007A8A94615F0D3FA002864D004F07B
:10117C009F040025E7B2A00609D598F84600D8F8D8
:10118C003C2027F016FF07A815A905F023FC7806CC
:10119C0040F12681B8F8281007A80DF152022B4611
:1011AC000FF0B4FF00286FD0054611980078012885
:1011BC0008BF4AF0100A13E107A9002010F01AFF2B
:1011CC0097E598F8460027F0F4FED8F83C2007A8DD
:1011DC0015A905F0FFFB8CE503287FF48AAD07A861
:1011EC0000210FF0A1FC84E59DF81E0001285AD1C6
:1011FC0011980078032849D0052854D1B8F8281044
:10120C0007A80DF1520200230FF080FF71E5D148C1
:10121C000168D1480268BDF82800904701287FF486
:10122C0068ADCE480168BDF828008847CC480168F5
:10123C00BDF8280088475CE526F016F99DF82E10BD
:10124C000546BDF8280019B9B8F82810884291D085
:10125C00B9F81610814204D1BA48807800283FF4BE
:10126C0089AFB8F8281007A82A4609F035F90028E4
:10127C0000F09B8038074AF0040ABDF8260048BFEE
:10128C00F01DADF8520075E70025A9E0BDF8260069
:10129C0026F0A8FF38B1B8F8281007A80DF15202B3
:1012AC0000230FF033FF9DF82E0088B323F0B4FB1E
:1012BC0000287FF41EAD9DF83900A0B3109A9DF85C
:1012CC003C009DF83D1020F013FC002870D09DF8D8
:1012DC003D00002875D0109928F07BF99DF824303A
:1012EC00ADF8520011209DF823209DF821104AF0F2
:1012FC00400A002B08BF0920002A18BF083000291B
:10130C0018BF0130D8F804100A5C013A0A5462E0A4
:10131C009DF81E0001287FF47EAE119800780328FA
:10132C003FF4E7AC77E69DF82010BDF826000029C5
:10133C00ADF8520000F0D3804020BDF8261009F122
:10134C001D0200EAC4059DF820002B4618F05CFC39
:10135C0038B1D8F804004AF0200A017801F03F01B6
:10136C0001709DF8390048B1BDF8261009F1200034
:10137C0021F09AFC4AF0400AADF852009DF81E008C
:10138C00012806D0BDF82810BDF82600002214F064
:10139C0075FEBDF82810BDF826002A4612F06CFB2D
:1013AC00002818BF4AF0200A15E004F0DF04E0E63C
:1013BC00BDF82610BDF828000B2200231AF0D4FA31
:1013CC0097E4BDF82600ADF8520028F03EF900284D
:1013DC0008BF4AF0400A26F047F805464FF6F87663
:1013EC00B01DBDF8521080B20F1A5E4818BF2F46C0
:1013FC000078012805D1F01DB8F8321080B2814276
:10140C002FD160B2B0F1FF3F3FF773AC002F3FF428
:10141C0070ACB8F8080028F039FA00283FF469AC31
:10142C00B8F80820D8F80410054627F0DFFC9DF822
:10143C001E10002098F80830B8F8282016908DF867
:10144C005410BDF8521015ACCDE9007ACDE9020468
:10145C00284610F08FFB70B3284628F015FAFFF7DA
:10146C0048BCB8F828108142CBD0701CBDF826209F
:10147C0080B28242C5D2BDF828008142C1D028F08A
:10148C00E4F80028BDD0017901390129B9D8408888
:10149C0001218DF85410ADF8600015AD28461EF0F2
:1014AC00D1FB0028ADD0281D1DF06AFB0028A8D068
:1014BC0021F008FDA5E72348407800283FF419AC3B
:1014CC0000208DF81870ADF81900DDF826004FEAF1
:1014DC003040059005A827F009FBFFF70ABC390737
:1014EC003FF52AAF9DF81E1001293FF425AF0021CE
:1014FC0018F04AFB20B1407901380228FFF41CAFE8
:10150C00B8F84410BDF8520021F0DAFE30B1807802
:10151C0026F0EAF901380728FFF40EAFBDF82800D1
:10152C0026F060FE18B104208DF8200004E7BDF809
:10153C002610BDF8280002223FE700BF46260020F7
:10154C00902400206024002070840020C291002090
:10155C0038260020C8B302000C22002014220020E0
:10156C0010220020442600202DE9F0438DB00546C2
:10157C0080780224252800F27380DFE810F0260022
:10158C00A400C400D700EA00F8000601B602B602B7
:10159C001D012E01B602B602B602B602B602460113
:1015AC004B01B602B602540158016101B602B602F3
:1015BC00B602B602B602B602B602B602B6026B01AB
:1015CC006E017101740178017F01DFF8D47500247C
:1015DC000E258DF804403878012807D801A81CF096
:1015EC0039FF04469DF8040005EB4005EEB2304689
:1015FC0028F04CF9002800F087824FF000080546CF
:10160C00431C0021082280F80080012027F078FA82
:10161C0027F0F8FD6872000A0721A872DFF884052C
:10162C00E972007828733878012800F262829DF8FC
:10163C000420002A6A7300F05E8205F10E0000217E
:10164C002346914280F0578213F8022B013100F8A7
:10165C00022B13F8012C00F8012C9DF80420F0E764
:10166C00A0F140010D291FD8DFE811F00E00100188
:10167C003F023F021E012E013F023F023A0145018B
:10168C00500165013F02740101ACE91C0822201DC8
:10169C0027F0ACFB204619F03BFEBDF806004021BC
:1016AC00ADF828000AABEEE0632800F069816428ED
:1016BC0000F07681E02840F0188200244720E021D9
:1016CC00002200230FE2202028F0E0F8002800F090
:1016DC00C1812021FF22044627F026FA631C012039
:1016EC000021082227F00CFA0546002818BF012516
:1016FC0001AB84200021042227F002FA002800F01C
:10170C000582023506E2E81C28F0BCF8ADF80400AE
:10171C00832027F0DAFF014601AA832027F0A4FEDC
:10172C008DF828000AAB6720022190E1E81C042107
:10173C0024F00EFD0190842027F0C7FF014601AA7A
:10174C00842027F091FE8DF828000AAB6720032136
:10175C007DE1612027F0B9FF0146EA1C612027F0EA
:10176C0083FE8DF8040001AB672004216FE1622039
:10177C0027F0ABFF0146EA1C622027F075FE8DF8BE
:10178C00040001AB6720052161E100208DF8040005
:10179C00E81C28F077F86A7900F4F851002A00F078
:1017AC004981B1F5A06F04D04FF6FF71884240F02B
:1017BC004B814FF0FF3045E128F03AF8044628F011
:1017CC0035F8D949604301ACB0FBF1F1204627F064
:1017DC00C9FF672009210422ABE0DFF8B4632D793F
:1017EC00306840B901AC204627F0C7FB01202146E8
:1017FC000EF05CFA3060052D00F06981002D00F0D0
:10180C006981642121F08CFF66E115F8032B6720B8
:10181C0010216EE0E87823F0C9FB8DF8040001ABD1
:10182C006720112113E100246720142102E0002419
:10183C0067201521ADF80840019401AB062252E156
:10184C0000246720162109228DF80C40CDE90144B3
:10185C0001AB48E1F52020210BE0F520212108E027
:10186C00F520222105E04FF6F570232108E0F52044
:10187C0024218DF8040001AB6720E8E0F520252138
:10188C00ADF8040001AB67200222E1E0E81C27F070
:10189C00F9FFADF8060001AC204617F0ADF9231D99
:1018AC00672041210822D3E0E81C0AA926F00EFC8F
:1018BC0000288DF8040000F0CF8001A81821FF2229
:1018CC00013027F031F9F4E0E81C0AA926F0FEFB00
:1018DC0000288DF8040000F0F1804FF0FF30EFE0AD
:1018EC0015F8030F697821F0FFFE28806720482146
:1018FC0002222B46ACE0E87824F078FD01AC0146DE
:10190C0020461DF0E3F86720492111E0EC1C20462D
:10191C0026F098F8002818BF2046B5F80B1019F0DF
:10192C004BF801AC014620461DF0D0F867204A2147
:10193C00242223468CE001ACE91C0822204627F027
:10194C0055FA204627F00AF88DF828000AAB6720D4
:10195C004B217CE04FF0FF3095F80380691D01901E
:10196C00ADF81000CDE90200FE208DF806002879B4
:10197C0003288DF8300020D10AA827F032FF21E08F
:10198C000024E91C08228DF8284001AD284627F0D8
:10199C002DFA28461DF0F4F80AAB67206321A1E06C
:1019AC00B5F80B006A7B0024E91C8DF8044009F0A3
:1019BC0061FF01AB6720642194E0084627F062FFC9
:1019CC00ADF82800AF7B002F00F0DD807E0095F88D
:1019DC000D90304627F05AFF002800F0D48005F116
:1019EC000F013246044627F001FA00940AA940463A
:1019FC004A463B460DF09AF9002800F0BA808378ED
:101A0C0001784278057946798DF806308DF8041006
:101A1C008DF80520C3788DF809608DF808508DF885
:101A2C00073001A98B1D811D40794200184627F013
:101A3C00DDF9A5E0B1F5A06F03D04FF6FF71884238
:101A4C0002D100205549086001AB67200621012214
:101A5C0020F03CFC002448E0182027F017FF40B38E
:101A6C00BDF828100446009006200022182324F00C
:101A7C00ABFAB8B9BDF8285001AE21461022701C43
:101A8C0027F0B4F9444F05EB450506F1110057F862
:101A9C00251027F067FE07EB8500416806F115005D
:101AAC0027F060FE2046182127F044F8204627F046
:101ABC00EBFE01AB672044211922C9E7BDF82800D1
:101ACC00ADF8050001AB672045210322C0E7314981
:101ADC0001220A7020F0B9FF002467200A218DF83A
:101AEC00044001AB012220F0F1FB20460DB0BDE813
:101AFC00F08385F80D806720002132462B4620F0BC
:101B0C00E5FB284627F0C0FE7CBBA3E7019800BA92
:101B1C00C4F809000AAB83200021022226F0F0FF52
:101B2C0020B1043506E000BF40420F00BDF828008C
:101B3C00A4F80D0004F10F0361200021012226F00E
:101B4C00DFFF002818BF083504F1100362200021C4
:101B5C00102226F0D5FF002818BF1035234625701B
:101B6C0067200121202220F0B1FB204627F08CFEBB
:101B7C0070E74FF6FF70ADF808006FF480300190FD
:101B8C00204627F081FE01AB67204D210E225FE736
:101B9C004C91002004260020208C00202C91002049
:101BAC00902400203C2500202DE9F04F85B084784E
:101BBC000226362C00F2BE820546DFE814F06C01DA
:101BCC00740172007C017800BB02BB0281003700FB
:101BDC004C008C009F00AD00BB02B5009001BB0215
:101BEC00BB029A01AD01BB01BB02BB02BB02BB0233
:101BFC00BB02BB02BB0237004C00BB02BB02BB02E8
:101C0C00BB02BB02BB02BB02BB02BB02BB02BB02E0
:101C1C00BB02BB02BB02BB02BB02BB02BB02BD00D0
:101C2C00EB00CB01FF005B005B00DB0127F082FDCA
:101C3C00242840F0AA8102AB352000210422002484
:101C4C0026F05EFF002800F0FC81012002228DF8B6
:101C5C0010000020FCE100208DF8100027F06AFD38
:101C6C000646092C40F0ED8095F8059095F8068015
:101C7C000720EFE0DFF82465306880B1406A70B16E
:101C8C0002A927F060FD0546342C40F02C82284632
:101C9C0027F0F8FD002800F02582042041E2032003
:101CAC003FE2DFF80835612002210A223FE202AC54
:101CBC00E220214623F0E6FF61200421082288E17E
:101CCC0027F038FD0446681D27F0DCFD242C40F07D
:101CDC0087810020FBE1E878032800F29781281D1A
:101CEC0027F0D0FD0246E878DFF8B81431F8101070
:101CFC00DFF8B404007827F032FD88E1E878032897
:101D0C0000F28981DFF89C1431F81010DFF8980488
:101D1C0000781CF0B3FC7FE127F051FCADF8080013
:101D2C0002AB61200C2103E1002661200E2101226F
:101D3C008DF8086002AB1BE2DFF8606401208DF8BF
:101D4C0010003068002800F02C810069002800F099
:101D5C00288102A927F0F7FC042124F0F9F90028C6
:101D6C0000F0EC81044627F091FD002800F01C8166
:101D7C002146054626F0DEFE3068BDF80C102246E2
:101D8C002B4606690298B0478DF81000284627F0BC
:101D9C007BFD09E1DFF804442068002800F008818D
:101DAC008069002800F0048102A927F0CCFC20688F
:101DBC00BDF80C10826902989047FAE0DFF8DC73EA
:101DCC003868002800F0FB80C069002800F0F7801C
:101DDC0002A927F0B8FC9DF80850BDF80AB0BDF870
:101DEC000C90044627F04EFDA6788046F72E28BFAF
:101DFC006FF00806B01C5FFA80FA504627F046FDDB
:101E0C00002800F09D81012D044608BFBBF1000F96
:101E1C0000F09A813868A11CF3B24246C569029859
:101E2C0000914946A8470746002840F093810027B7
:101E3C0061203321524623466670277020F046FA03
:101E4C0088E1681D27F01EFD8146E81D27F01AFD6C
:101E5C008046092002AF242E18BF2F1808BF352644
:101E6C00304609EB080527F030FC854201D90220E9
:101E7C0057E1B9F1000F04D1304641463A4622F001
:101E8C00AFF8304641463A4627F0EEFA002800F00B
:101E9C00E5800A2045E1E878012802D0002840F0CE
:101EAC00488127F00BF840F259600121ADF8080089
:101EBC0002AB61203CE00120EC1C8DF80800E22014
:101ECC0021461FF003FF30B901200821224627F0DC
:101EDC00CBFA8DF8080002AB6120032126E1E878EB
:101EEC00291D012800F0E180002840F0E580E02069
:101EFC00DFE027F01FFC0446681D27F0C3FC242CF0
:101F0C000FBF00200146204627F090FB8DF80800FB
:101F1C0002AB6120122109E127F00CFC24280CBF34
:101F2C00002027F0D2FBADF8080002AB6120132192
:101F3C000222FCE0E8788DF8080099488068D0F817
:101F4C00302402A9E02090478DF8100004AB6120EA
:101F5C001421EBE0914C206898B3806A88B302A9F5
:101F6C0027F0F1FB2068BDF80C10826A02989047AC
:101F7C00014627E0894C206868B3C06858B327F045
:101F8C00D9FB2168C968884726E080466938002655
:101F9C0080B2032838BF0126681D082C40D1057873
:101FAC0041E003208DF8100004AB61203021BDE02E
:101FBC0003208DF8100004AB61203121B6E003271B
:101FCC00CDE0002102AC204627F0CCFB6120322171
:101FDC0004222346ABE0032027F0D3FA3621A5E0F8
:101FEC0005F10806ED790146A8426CD9204600227D
:101FFC0027F034FA09288DF808006AD1002D68D032
:10200C0020462946324627F02FFA62E0022027F0BC
:10201C00B8FA0A218AE0022027F0B3FA0B2185E0F6
:10202C0027F030FC0546404627F04FFB0227A8421C
:10203C0088BF7700CFB100268DF80870612021464B
:10204C0092E002988DF810400422ADF812000220A4
:10205C008DF8110004AB6120082168E0012E62D1DB
:10206C00E22039461FF032FE5BE0471BB8B2F7287E
:10207C0028BFF727B81CC6B2304627F007FC00284B
:10208C0060D01FFA87FB00F1020982464846594688
:10209C0026F050FD404629465A464B4626F030FD68
:1020AC000546002867D00A2770E00878022814D269
:1020BC0052201FF00BFE00E002208DF8080002AB4E
:1020CC0061200F2132E02046324627F0C7F98DF807
:1020DC00080002AB6120072128E002A9522023F05E
:1020EC00D1FDECE702359DF8080015F8018BBDF821
:1020FC000C7001280ED1BDF80A0058B9384641467B
:10210C002A4621F06DFF012F04D1E22029461FF051
:10211C00DDFD01273068394642462B46466A029857
:10212C00B0478DF8100004AB61202146012220F04D
:10213C00CDF80026304605B0BDE8F08F052031E71C
:10214C0010270CE0102776E7A9F169000328BFF4EB
:10215C0061AE0227204627F097FB002FE9D000261E
:10216C008DF80870612033218DF8096002AB0222D2
:10217C0020F0ACF8DEE78AF80170002761202146D8
:10218C00324653468AF8007020F0A0F8504627F0EB
:10219C007BFB002D7FF44FAFCBE700BFD025002099
:1021AC000C010020CCB80200C091002068B80200DD
:1021BC002DE9F04F8FB00C4648070FD4200441D4C2
:1021CC00E00400F19781200600F1C081A00700F126
:1021DC00D481200500F1F3810020B4E1DFF8200563
:1021EC000178062900F2AD81DFE811F007009401B7
:1021FC00AB01AB019901AB01A001DFF81055DFF881
:10220C0004152A7891F82B30022A02D19E0600F18F
:10221C0098815E0700F19D819B0740F19281042318
:10222C00037091F82C30DB0700F08B8191F82E3085
:10223C00002B00F0528225F06EFC0420012102F0EC
:10224C008BFA57E2DFF8C8040394DFF8BCB4DFF86C
:10225C00B094DFF8C474DFF8AC44DFF8B054DFF8A6
:10226C00BCA448F20208008802909BF800001CF005
:10227C0033FA002800F03A8106460078D3282DD195
:10228C00F089404540F019813878002800F015811C
:10229C0099F80000012840F0108126F0F7FC002886
:1022AC0040F00B817088002840F00781A24604ACF6
:1022BC001221204626F03EFC26F0E0FF3046214657
:1022CC0018F088FABDF81C00B0F5285FC0F08880C3
:1022DC00012002211FF0A6F854462AE099F80010BC
:1022EC00884217D1012834D0032840F0E6802878A2
:1022FC000138012800F2E180B078012851D0002883
:10230C0040F0DB807078002800F0BF8000201DF0CA
:10231C00B1FDD2E00A2811D194F82B00BA46B71CB3
:10232C003071A16909B138468847384625F06CF8F8
:10233C005746DFF8D853DFF8E4A3BEE0297800292C
:10234C0040F0BB80092840F0B880A168B01C8847D9
:10235C00B3E028780138012800F2AF80707860B1C2
:10236C0094F8330094F83410013084F83300C0B280
:10237C00884202D9012000219DE099F80100032830
:10238C0058D0022871D0012840F097803878002866
:10239C0000F08C8026F07AFC002800F0928001205E
:1023AC0085E07078002875D026F02CFF4FF6FE7172
:1023BC00884203D1BAF81600884207D0AAF8161042
:1023CC00ADF8281053200AA91FF080FC1EF07AFBF0
:1023DC0025F07AF800208AF826001DF069FA6CE0E6
:1023EC00CF48006809A90AAA16F036FF07460298DA
:1023FC005446C64DDFF824A3874212D29DF838000C
:10240C0010B1FD208DF838000420394614220AAB97
:10241C0023F0F0FDC34907EB470001EB80000121DD
:10242C0041720020012184F83200012002F094F95D
:10243C00B94F42E0A2460AACAB20002122461CF068
:10244C0073FB042004945446DFF8D0A2AF4D8DF8F2
:10245C00140004A80FF0EAFC26F010FF9BF8000013
:10246C004FF4805141F288321DE0012020714FF46D
:10247C008060ADF828000AA818F010FF26F0FEFEC8
:10248C00A4484FF4805102680BE010F003FB606924
:10249C0098B9A2E702204FF4805140F6B83289F87F
:1024AC0002009BF8000027F05AF906E0002084F89F
:1024BC0032000120012102F04FF9304625F0FEFADE
:1024CC00D3E694F8350020B1E0690028F5D08047B8
:1024DC00F3E70020002102220023ADF8280002209F
:1024EC008DF830000AA825F093FCB5E7039880F42A
:1024FC00004028E0854800780138012859D88048E8
:10250C00017803294DD0012953D1417800201EF0C8
:10251C0089FF4EE0012001211EF084FF11E025F01F
:10252C00FAFA0420012102F017F90AE00021322204
:10253C000170744880F82A1073480421007827F041
:10254C000EF984F004000FB0BDE8F08F84F0800029
:10255C00F9E70522027091F82C2092072CD591F8FE
:10256C002E204ABB052202600120487000201CF07E
:10257C0099F9022024F00CFDE3E764480078013857
:10258C0001280BD80020CDE90A000AA812F058FC4B
:10259C0020B15D48022100781BF070FB84F0020032
:1025AC00D1E78178022904D10121817000201EF02D
:1025BC0015FF84F48050C6E705200021B3E753488B
:1025CC000078002840F08680DFF838A1DAF80C504B
:1025DC00002D79D004A80DF1280B01300BF1040665
:1025EC000390002D6DD0A87A18B10138A87200069E
:1025FC0046D19AF83180B8F1000F11D00020A91CF7
:10260C0008228DF82800304626F0F0FB584618F0CA
:10261C007FFE28B12A88BDF82A00314623F0DAFA69
:10262C00AF1C0DF127015A46384616F015FE8146AF
:10263C00384609A923F019F8B8F1000F05D09DF818
:10264C00380040F0020002281CD1DAF80800A0B1D2
:10265C0003983946082226F0C9FB022000220C23DD
:10266C008DF81000BDF82400ADF81A00264800784B
:10267C0004A90091092120F026FA28461EF080F8C2
:10268C00ED68AEE7384623F0B7FD9DF8270001282A
:10269C00DBD15846142126F04DFA224A09EB4900A9
:1026AC0000215B4642F8201002EB800014224160AE
:1026BC004172FF2049468DF83800042023F09AFC23
:1026CC00C3E7DAF80C0028B90F484FF40061007822
:1026DC001BF0D4FF84F4006035E7013A012A09D8D5
:1026EC00032202600120487001201CF0DBF801205D
:1026FC0024F04EFC287800287FF423AF04205CE7FC
:10270C003091002024210020C99100209024002029
:10271C002AB90200D82500201B2600207084002036
:10272C0004910020145B00202DE9F04F89B021F0BA
:10273C0077FBDFF810158122DFF81485DFF814A57C
:10274C00DFF82045DFF814E50A70DFF8FC140860A8
:10275C00DFF8F804FF2101700020DFF80415A8F859
:10276C0000008AF80000DFF8F0040968007891F89E
:10277C0008B04FF6FE718EF8000059448AB2A16879
:10278C00D1F80031DB899A4200F267810422DFF82C
:10279C00DC54A8F80020DFF8D02412689668330EB9
:1027AC00CEF80C60C6F301592B706FF0FF0303EAEF
:1027BC001627B3B2D1F8B86047EA1327AEF8047005
:1027CC0036781EB9B9F1020F00F04781B9F1030F49
:1027DC0000F043811B0A03F0070316B1002B00F035
:1027EC003C81DFF88CC4042B9CF800C008BFBCF102
:1027FC00000F00F032813EB1DFF878643678862E17
:10280C0002D1022B40F02981BB0416D4BBB203F0D9
:10281C000703022B08BFBCF1000F20D0DFF85414C3
:10282C000978862909D10020764621F031FBDFF8A2
:10283C004004B64690F800C0307800284ED0BCF169
:10284C00000F4BD1012800F0088103283FD002284B
:10285C0044D1BEF80400400740F0FF803EE0D1F8C0
:10286C00D40090F88300022800F0808027460520D1
:10287C00147BF246A946A8F8000026F093FC054606
:10288C00DFF8F003007886286DD1B868016C096810
:10289C0011B9D0F84C05804760B20021002627F012
:1028AC0039F8B9680A6C12685077086C006886773A
:1028BC00086C0068C477284626F021FFBAF804108B
:1028CC0099F8000001F010011DF046F84EE0BEF83A
:1028DC00040000F00700032840F0BF80BEF804009D
:1028EC00010700F1BA80810402D4810500F1B580A2
:1028FC009EF80E20C2F38107012F00F0AE809609DE
:10290C00012E00F0AA80B9F1010F11D840F002019C
:10291C0001F0070103290BD117B93F2A40F29D8022
:10292C0037B9A168D1F8AC100978002900F095806E
:10293C004FF6FB71B9F1020F0BEB010C19D1CF4B18
:10294C00D95D9B5D03EB01090023402AB7FA87F29E
:10295C0038BF012352091A40430616D4002A08BF77
:10296C0009F1020915E0284626F0C9FE25F030FBD6
:10297C0075E0C14B402AD95D9B5D03EB010908D37F
:10298C00420648BFA9F1020903E0002A18BF4FF024
:10299C000209C0F300205FFA89F11FFA8CF30A1ABE
:1029AC008EF801009A4258DC60440391B346401AF9
:1029BC00A168AEF806007430D1F8501280B2884786
:1029CC00A6490028886048D07421CDE9019726F0EB
:1029DC00B1F8A24F0020B870A548007820B938791A
:1029EC0000F020008AF8000078789AF80010DFF8E0
:1029FC0078C24FF000092E4600299A493DD0002894
:102A0C004FF000003AD1B88800F00700032807D037
:102A1C00012832D18868D0F8D40090F8820060B3D5
:102A2C00C8684069007818B125F00CFFFE280DD05D
:102A3C008C488068D0F84C02804738B98948806847
:102A4C00D0F844028047002800F0F780834F012023
:102A5C00B870DFF814C22E4610E025F05BFD26F0AE
:102A6C00A1FB814900240A6813681C7112680A6072
:102A7C0026F045FE09B0BDE8F08F0020BC6804F1DB
:102A8C00740184F830B06160A1657978BB88FA88EC
:102A9C000029A381029B228184F83A30337808BF45
:102AAC00994697F80EB084F84990019DA4F85C20E3
:102ABC00FF22B8F80030A273CBF301195E1A797BB0
:102ACC00A8F8006001F0780160F3820101EB0900C5
:102ADC002074280600F0AE80DCF8000004AF039AE6
:102AEC0010FA86F000F10801384626F03BFF56FA42
:102AFC0085F0CBF38105A8F80000207C00F040089D
:102B0C00CDB3B9F1020F06D1B8F1000F03D0B4F870
:102B1C00440004AF06E0BDF810000237A4F84400EE
:102B2C00A4F84200564EF189884203D04FF6FF714B
:102B3C0088425ED1032D11D104F13200394626F0C2
:102B4C0050FE464CF11CA068323024F0DAFB4549AB
:102B5C0000284ED094F80EB008370EE037F8020B70
:102B6C00B1898842608606D04FF6FF713B4C884293
:102B7C003C493ED101E03B49384CBBF1400F20D3DE
:102B8C00B9F1020F06D16DB9B8F1000F0AD1334873
:102B9C00806803E0A068017C490603D439880237B9
:102BAC00A0F84210BBF1C00F06D32C4C3946A068DC
:102BBC00283026F016FE03E0284C3888A1680885DA
:102BCC0028498968A088D1F8AC201278B2B1B9F143
:102BDC00020F13D200F00700012802D003282FD1D6
:102BEC001E4C6DB9264AA368D289B3F84230934281
:102BFC0006D01BF0D0FB19F05BF930E700F00700B2
:102C0C00032806D0012815D1D1F8D40090F8820001
:102C1C0080B1A068D1F848128847104A50B90020FA
:102C2C00D17B9070907BC1F3011100F078000844C7
:102C3C009168087408F086FF11E7084FB87808E728
:102C4C00064CDDE7D69100205C910020DB91002042
:102C5C00DA900020D9910020D89100209C230020EC
:102C6C009C9100200C010020EC900020E9910020A8
:102C7C00E8910020DE910020C0B80200BCB8020030
:102C8C00149000202DE9F04F97B0DFF81085054621
:102C9C00DFF80C6598F800000328307040F04C8188
:102CAC00002088F8000030700DAC204626F0A5FD01
:102CBC002046002124F04DFFDFF8E894B0603A2163
:102CCC00484625F037FF4FF0FF30A9F81400C9F83B
:102CDC001000C9F80C0022F0A1FE002029461EF0BD
:102CEC00D1F806F11001F06026F018FDD6E90502C6
:102CFC00DFF8B474B0FBF2F1C9B2032928BF032189
:102D0C0089F800103970B2F5005F40F01281B0EB19
:102D1C00413FC0F00E81F068002800F00A814FF4AA
:102D2C000050FF224FF000084FF0885BA9F8060016
:102D3C00FF2089F8032089F8058005900020089071
:102D4C0000200B9000200990002007900020069096
:102D5C0000200A9000200C90FF200290FF2004908D
:102D6C00FF200390CCB2A04580F0E9805FFA88F692
:102D7C00002116AA0423304626F008F8DFF8304468
:102D8C003046002115AAA0473046012114AAA047BD
:102D9C003046022113AAA04716996FF06F0050FA23
:102DAC0081F2C8B20E2A06D8012303FA02F245F2C8
:102DBC0001131A4203D1A0F1FE02022A04D242F2FC
:102DCC008352B2EB914F1ED0304614F0C1FBDFF8AA
:102DDC00D0130028087040F0D2803046002116AA8B
:102DEC00042325F0D3FFDFF8C8433046002115AA91
:102DFC00A0473046012114AAA0473046022113AA4D
:102E0C00A0471699C8B208EB4802CA463D4609EBE2
:102E1C008209C1F30142090A4C46FD2804F8160F39
:102E2C0061709DF85610E270A17001D9102135E047
:102E3C00BDF854104FF6FF7291422FD10EA820F01E
:102E4C006BFD304600214FF088524FF400534FF485
:102E5C00005725F09BFF6FF0030313FA87F7B8B206
:102E6C0050F80B104A1C01D10328F6D80122012678
:102E7C00D3B2042B06D8CBB2FF2B18BF16460132A7
:102E8C00090AF5E740F80B10CA480E990068426829
:102E9C00C948904757FA86F081B22078A9F81C10DF
:102EAC009DF85210702889F81A10BDF85010A9F826
:102EBC001E109DF84E1089F81B10BDF84C10A9F887
:102ECC00201011D07828D14614D07C282F4616D04B
:102EDC007E281AD0FE281FD0FF2823D10898CDF8C1
:102EEC000C800130089020E00A98D1462F46013022
:102EFC000A901AE006982F460130069015E00798C4
:102F0C00CDF81080013007900FE00998013009903E
:102F1C001FFA88F0029008E00B98CDF8148001306D
:102F2C000B9002E00C9801300C90397808F10108F4
:102F3C0018E7012088F8000017B0BDE8F08F0C9856
:102F4C00974E00060BD10B98C0B2012807D80A98EF
:102F5C00C0B2012803D80998C0B2012811D99348EE
:102F6C00042200240270CAB2E0B2904210D214F0D3
:102F7C00EFFA31780134084339783070F3E7884E32
:102F8C001BE0089BD8B2A04219D1884800220270DD
:102F9C00002089F8030089F80100481E7E2189F879
:102FAC000200B9F81C00A9F80600002021F0C0F9B5
:102FBC0099F80200FE2121F0BBF93078BCE70A98A1
:102FCC00000624D00B98059A000603D1039A180624
:102FDC0000F08480754802210127D5B289F80220BF
:102FEC00017017FA82F0B0FBF4F101FB140089F8C0
:102FFC000100284614F0ACFA30702846FE2121F06E
:10300C0097F989F80570002000F0D8F8D5E70B98EF
:10301C00059A000621D06548012189F8022001702B
:10302C0011FA82F0049AB0FBF4F101FB140091B296
:10303C00FF2989F801001FD10299FF2919BF89F8CE
:10304C00031001EB410089F8030000EB400009EB91
:10305C008000808BA9F80600AFE7DDE9062010435D
:10306C0000063FF47CAF22F0ADFCA04280F08580DE
:10307C004E48032101703EE0480089F8032010FA05
:10308C0082F009EB8000818B1829A9F8061094D3E3
:10309C000739D0B20EAA89B216F062F99DF8430036
:1030AC004007B0D5B9F80610BDF84620002399F8B2
:1030BC00030000930323891A0EAA073989B207F07B
:1030CC0075F800287FF479AFBDF8441000293FF45F
:1030DC0074AF9DF848001DF08BF96EE722F072FC7E
:1030EC000621A042314838BF03210329017002D0C8
:1030FC00062952D061E722F065FC054689F80C00E0
:10310C0000EB400009EB8000408BA9F80D000DF09E
:10311C0071F839782844B0FBF1F202FB110089F800
:10312C0002000130C2B2B2FBF1F202FB110089F8CD
:10313C0001007C2021F016F9FF2812D17E2021F00D
:10314C0011F9FF280DD1FF2021F00CF9FF2808D12F
:10315C00782021F007F9014699F80100FF2918BFE2
:10316C000846C1B289F80300490051FA80F009EB16
:10317C008000808BA9F806001AE70898000609D091
:10318C0099F80200FE213C46374621F0D1F824780C
:10319C00039A40E7054806210170FEE7FB25002055
:1031AC0018220020D0890020C1910020CD91002050
:1031BC00958F0200D8010010004003402DE9F04F1C
:1031CC009BB00446DFF80805406818B1804700281A
:1031DC0000F03C82DFF8FC04DFF8FCB40B940DF13A
:1031EC00300A4FF0F8080078411E002C099118BFE6
:1031FC0001218BF80F109BF802900BF118049BF82F
:10320C000110002700250A91C0B287421FD2B94590
:10321C0017D0FEB2002152460423304625F0B6FDED
:10322C000C9810F4403F40F0040018BF0135C0B2B8
:10323C007C2806D130460621F82224F017FD84F8AC
:10324C000080DFF890040C3401370078DCE7E9B239
:10325C0001380022884204D19BF80500002800F0B8
:10326C003282DDF82CA05046BAF1000F08BF1020B6
:10327C00049013AF00200390DDE9095600242804C4
:10328C0000F0E6819BF80F0010B901208BF80F00BD
:10329C00F0B200210CAA04234FF0000825F076FDB3
:1032AC000C98BAF1000F1DD010F4403F17D04FF41A
:1032BC000050DFF820140134013DABF810009BF8EE
:1032CC000F00097801388BF80F00012050FA86F0B6
:1032DC00B0FBF1F202FB11068BF80D60CFE7A046B4
:1032EC00CDE90956C0B20A9D0024702803D0E8B27B
:1032FC00702121F01DF85FFA89F600210CAA042335
:10330C00304625F043FD9DF83000FE2803D03046B2
:10331C00FE2121F00DF830460621FE2224F0A6FCF9
:10332C004FF400500BF116018BF80C908BF80D50EC
:10333C00ABF814405A46ABF81000FF208BF80E0087
:10334C00E8B2400050FA85F0D57B01EB8000B0F874
:10335C0006B0DF4804707000A2F812B050FA89F081
:10336C0001EB8003FE20194601F8020F33F8060F1B
:10337C0002910790D7480193047812A820F0CCFA58
:10338C000A980A9A089655FA80F0013890FBF4F1E5
:10339C0001FB14000090D5B20A92B54200F04A81AC
:1033AC00A81BB0FA80F04009059000200690002080
:1033BC00C00740F093801FFA8BF0162871D9C448CF
:1033CC000078002840F03C81ABF1070A28460DAA92
:1033DC001FFA8AF4214615F0C3FFBDF8426006F1CE
:1033EC001000A0421AD89DF83E00962816D19DF8E0
:1033FC003F00C10701D1800703D40020AAEB060BC4
:10340C002CE0AAEB06009DF83D2031462B4684B2F9
:10341C00204619F0FFF920B3ABF1080A1FFA8AF025
:10342C001728C0F00D81AAF11604362828463A4612
:10343C0088BF2024AAEB040AA3B21FFA8AF125F054
:10344C00A5FC2004EAD017FA84F010F8010C962899
:10345C0001D0013CF5E704EB0A0B0020DDF82CA0B1
:10346C00A6E7F01D83B2079813FA80F1B1F5005F5F
:10347C0001D90120F2E780B28B469A4918440A1A06
:10348C002846214625F082FC069801300690BBF5B3
:10349C00005F07BF01204FF40051594600200791EF
:1034AC00ACE7069810B18C4925F0BBFD0098C0B272
:1034BC00854200F0C2800A990120089E50FA81F0E2
:1034CC0084490978B0FBF1F202FB1102824902EB4C
:1034DC00420001EB8000B0F81CB05CE7069810B11C
:1034EC007D4925F09EFD0020DDF828900590784C54
:1034FC002078002840F0A48007981021C0F50052D5
:10350C00103883B20898C1F2001220F021FA217809
:10351C0008431299207071480068426870489047BF
:10352C00059888B16B4800782918013991FBF0F2A5
:10353C0002FB101968495FFA89F0400050FA89F0D3
:10354C0001EB8000B0F81CB063480799089C01237C
:10355C00A0F814B08346018280F80E900198BBF954
:10356C00122001809BF80D10204622F041FABBF985
:10357C0014209BF80E102046022322F039FABBF8D7
:10358C001000BAF1000FC0F5005004D00499884225
:10359C00A4BF01210391049988424FF07C01B8BF6C
:1035AC007821089C204620F0C3FE0CF023FE054633
:1035BC009BF80F000621FC22401B8BF80F002046C5
:1035CC0024F054FB0299FC209BF80E3008709BF8F9
:1035DC00021015FA88F00A9301443E480078B1FBBA
:1035EC00F0F202FB101909F101018BF80290CAB23A
:1035FC00B2FBF0F202FB10118BF8011003EB43014C
:10360C000BEB8101898B102906D10A990131B1FB91
:10361C00F0F202FB10100A900998401BBAF1000F4F
:10362C0009903FF429AE039880F00100C0077FF4A5
:10363C0023AE0DE00120354658E7DDF8009056E743
:10364C0026481299006842682548904700223AE0C3
:10365C007C2020F087FE0446FF281DD17E2020F020
:10366C0081FE0446FF2817D19BF8014004EB44006F
:10367C000BEB8000807DFF280AD016489BF80210C7
:10368C0000780144013991FBF0F202FB101403E0C5
:10369C0020467E2120F04CFEE0B2FE218BF8034048
:1036AC00400050FA84F00BEB8000808BABF80600E6
:1036BC009BF8020020F03CFE00208BF80500BBF8C4
:1036CC001000C0F5005210B21BB0BDE8F08F00BF67
:1036DC0018220020C1910020D0890020D8010010B0
:1036EC0000400340002000112DE9F84305460C462C
:1036FC00480414D4A00025D4A0075FD4600500F1C1
:10370C008180200500F10881200700F13D816000D7
:10371C0040F1F88019F04EFD24F08044F2E025F0E1
:10372C0041FDDFF824140F6D3FB1D7E90A1202F006
:10373C00E04201F00A0189184BD025F0E0FF24F497
:10374C008044DFE0BB48DFF80474016841F080017D
:10375C000160B878012804D1042020F051FE00202B
:10376C00B87025F01FFD0646B348406D0168042073
:10377C008847DFF8E0130A68904219D12A7EBAB163
:10378C00FA68AAB1DFF8C003806C002800F09780BB
:10379C00C16840F603020988914206D0C06840F621
:1037AC0004010088884240F08A8005F1140088E00A
:1037BC0040F6C4120860C5E9042284E009F020FB3D
:1037CC00DFF88403006C002840F09D8024F0020494
:1037DC0098E0D7E90A65D7E90A12AA43B143C7E9C9
:1037EC000A1225F08CFFB8680028A8D056EA05000C
:1037FC00A5D0D7F808C03869B7F9301032462B4637
:10380C00E0479CE725F0CEFC054623F0FBFA0028A8
:10381C0000F0B780CC48876B002F00F0B280DFF847
:10382C002C830420CC49002288F81800C64824F0C8
:10383C000BFF25F08EFFC94825F05EFFC4480068D9
:10384C00006B8047C8F810000125042088F802504E
:10385C0021F0DCFB386990F82810C8F804004907FF
:10386C0003D5436A04210022984701201BF0BCFABF
:10387C00D8F80400457612F0F9FED8F804008168F7
:10388C000B461A465B684BB11E88A6F60306072E3C
:10389C00F7D805FA06F616F0830FF2D0537B03F037
:1038AC00F003013353730023FD6853602D88A5F694
:1038BC000305012D00F28A80C8F810309FE005F155
:1038CC0010001EF0F3F8304625F019FF21F0B6FB7E
:1038DC0078B12E6A28466FF4807100224FF0007385
:1038EC00B0479948806B10B119F064FC01E044F0CA
:1038FC000204EE692846002100224FF08063B04795
:10390C0024F0005434B1984821462830BDE8F843DF
:10391C0025F0D2BFBDE8F8838C4EB078012804D1D5
:10392C00042020F06DFD0020B07021F087FB38B131
:10393C0070686FF4807100224FF00073056AA8471D
:10394C00306950B182480068006B804732697168F9
:10395C00801A000BC860002030617B4D8149002229
:10396C00284624F071FE02203076286C20B17E4867
:10397C000221283025F0A0FF19F01CFC24F400646F
:10398C00C0E725F0E6FE41E025F00CFC054623F0EF
:10399C0039FAA0B1DFF8B48198F8000000070ED412
:1039AC0098F9000000280AD4684613F0EDF808B125
:1039BC00009820B1DFF8B49199F8610048B325F074
:1039CC00C8FE19F0F7FB24F008049BE7034633F814
:1039DC00385FA5B190F8445090F8456005F0F005BB
:1039EC0080F8445006F0F005013580F8455000256C
:1039FC005360C5634587507B00F0F0005073584806
:103A0C000022C2610160012023F04EFE24F4806488
:103A1C0078E700260127602E10D009EB0600817A8A
:103A2C0031B18772407A07FA00F0C0B220F002FD83
:103A3C002036F0E7CC2108408C010010032088F8D8
:103A4C001800464825F058FE25F083FE444F3E4DA5
:103A5C000022786900207861F968F86028464449AA
:103A6C0024F0F2FD3A480068006B8047D8F80C103F
:103A7C00D8F82020411A02EB1130B0EB113F38BFBF
:103A8C004FF0FF3098F82410C8F8200021B1D8F876
:103A9C000810B0EBC12F20D923F016FEB8B140F6B8
:103AAC000900414621F83C0F002048804A7B02F077
:103ABC00F00201324A730A7B02F0F0020A7348608A
:103ACC00F8613960B8F83E0010F4406FFAD000206D
:103ADC00C8F82000012088F824001DF08BF9254837
:103AEC00002101600220002123F0DEFD022020F0E5
:103AFC0087FC102011F0EEFD98F8010020B9D8F8E1
:103B0C000400503025F0D4FE1B48807810B90D20ED
:103B1C0011F0E0FD98F8250028B1002088F8250068
:103B2C00052020F06DFC002088F818001348C8F818
:103B3C001C000220B5F85610B5F85420914208BF6D
:103B4C00072018F04DFC3CE7A81F0020481D002062
:103B5C008C01001048250020ED6D020050880020DB
:103B6C0000100440350C0100E81E0020E884002001
:103B7C0025D201000000046014B8020011040100F9
:103B8C002DE9F04F8DB084780226142C00F21F82A0
:103B9C000546DFE814F02900150015004A008500E1
:103BAC001C021C021C021C021C021C021C021C0219
:103BBC001C021C021C028E009C00AF00BE00CC003C
:103BCC0001206A78022C8DF83100089240F0C080F8
:103BDC00E878291D03288DF82C0040F0E18009A815
:103BEC00082225F003F9E0E010208DF824001020C5
:103BFC0025F04CFE98B10446DFF8E00321466060E6
:103C0C00E81C10F061FA8DF8240028B9204623F046
:103C1C009BF98DF8240010B1204625F035FE0026C6
:103C2C0009AB642000210122C2E10020CDF82A005A
:103C3C00ADF82E00CDF8260002208DF82C00E81CE3
:103C4C0025F020FEADF824006979A8798DF82D10A7
:103C5C0025F05CF98346E81D25F014FE95F80C90D0
:103C6C008046687AAC7A95F80BA04FEA49078DF834
:103C7C003100384625F00AFE002800F01081CDE90D
:103C8C00074806464FF0000805EB0800474570D082
:103C9C000D3025F0F7FD26F8080008F10208F3E7CF
:103CAC00E87820F0CBFC8DF8240009AB64200421CB
:103CBC0089E1E978032900F25281281DDFE811F02F
:103CCC000400510155015D0118F02CFC76E1E81C53
:103CDC0025F0D8FDC04C6668002E00F0E4806A79AF
:103CEC00002A00F0E4803368A91D184425F07EF802
:103CFC000020D9E0B84EEC1C04212046376822F095
:103D0C0027FA002F4AD0B968814200F0A0803F68A2
:103D1C00F7E7A888ADF82400E87809A924F0A2F800
:103D2C008DF832000DF13203642013214BE1002693
:103D3C00E878ADF8246009A923F0B0FABDF82400A6
:103D4C000DF1320314210222ADF8320064202FE170
:103D5C00E81C02218DF82C1025F094FDADF8240000
:103D6C00002005F10608ADF82E0068798DF82D00BD
:103D7C0026E0BBF1000F00F0B580437B0DF1310163
:103D8C000E30CDE90496CDE9000107985946CDE9EE
:103D9C00020A09A8089A1DF0CFFCA4E0012000E15A
:103DAC00084625F06FFDADF82400287B8DF82D001A
:103DBC0005F10D0025F066FDADF82E0005F10F089C
:103DCC0098F8000025F0A2F8054608F1010025F04E
:103DDC0059FD98F8036098F804A098F805B081464E
:103DEC00022C8DF8326009D108F1060025F04AFD4D
:103DFC00074608F1080007F10A0104E098F806707C
:103E0C0008F1070039464DB10A3189B2FB2907D3B5
:103E1C00DFF8C481D8F8040000286ED0022009E035
:103E2C000DF132018DE8030C09A84A463B462946A0
:103E3C0003F004FF089E8DF8310006F0E000202806
:103E4C0040F0C4800DF1310364202146BBE0EC1D31
:103E5C00204625F017FD6D7A002D00F0978005F1B6
:103E6C0002098246484625F011FD002800F0988092
:103E7C000026457080462A460670786800EB0A01D9
:103E8C0008F1020024F0B2FF5FFA89F264201221DB
:103E9C0043461EF01BFA404625F0F6FC97E0102036
:103EAC008DF8320024E010208DF8240016E0D6F8AE
:103EBC0000C0F38AB28A3169757EB77E06F11800AC
:103ECC00CDE900C0301DCDE9025703F0B7FE8DF8E7
:103EDC002400606825F0D8FC0020606009AB6420E9
:103EEC00112170E002208DF83200304625F0CCFC18
:103EFC000DF132036420032165E007F11C0025F06D
:103F0C00C5FC0028C8F8040055D000F11C010C2297
:103F1C00016000208DF83100D8F8040009A90430A4
:103F2C0024F064FFD8F804000F214FF47A72056175
:103F3C002A4DC17680F81AB080F819A00676C7828F
:103F4C00A0F814900821287825F009FC089E002878
:103F5C003FF473AF2878082119F090FE6DE702202A
:103F6C002CE0007819F0BAFE28E0007824F0CEFF9F
:103F7C0018B324F0ADFC002020E025F083FCA979D7
:103F8C0025F0E2F9B0FA80F0400917E03068B84249
:103F9C0001D138683060384625F076FC002000E00E
:103FAC001020002620706420122102222346667005
:103FBC001EF08CF90BE010203CE701208DF824005A
:103FCC0009AB6420102101221EF080F90026304636
:103FDC000DB0BDE8F08F00BFD4240020C0910020AC
:103FEC002DE9F04F8FB00C4608040CD4A00426D455
:103FFC00DFF88853287802282DD1E10740F00181A1
:10400C00A10641D558E0DFF86C0300781AF064FB88
:10401C0090B10178DFF8602305460020602808D0B5
:10402C00135C08308B42F9D1104450F8041C28461C
:10403C008847284623F042FD84F4004595E11DF0A5
:10404C0081FA28B10546FCF705FE284623F036FD1B
:10405C0084F4005589E1A1062ED4012814D8E10678
:10406C0000F11781610600F12F81210600F13D81DD
:10407C00E10500F13F81210500F14181E10400F1EE
:10408C005481610400F15B81A10700F1E080A1057E
:10409C0000F1FA80210700F11181610500F119810D
:1040AC00E0034FF0000540F160811BF0F3FDB648D2
:1040BC00C57084F4803558E1AE4F202138781EF05D
:1040CC00A7FEDFF8C4820125D8F80810084317D0E2
:1040DC0025F0AEFB054625F0A9FB68434FF47A7139
:1040EC00B0FBF1F0D8F80810401A4FEA500538BF71
:1040FC006FF00045002908BF0D46002D00F0C2806E
:10410C0000200421002222F08DFB06464FF0060A07
:10411C004FF0FF094FF6FF780DF1080B002E4DD034
:10412C00304604210022374622F07CFB06463889B3
:10413C00401B38BF002038810004EFD1B87BD0B3CE
:10414C0001280AD17889400707D4386887F80DA070
:10415C00B721407B1DF0AEF9E0E739685A468DF87F
:10416C000690ADF80480086AC97F0CF053FF012853
:10417C001BD1B87BB97A8DF838000907788A40F0E2
:10418C008002ADF8362006D540F4C070ADF836008C
:10419C00387B8DF83A00786910B1007BADF81800C7
:1041AC00584601A9002202F015FC387B87F80DA0B7
:1041BC0015F0EAFEB2E701207873AFE7DFF8C881AB
:1041CC006C4F22F08FFC00200121002222F02AFBF0
:1041DC0018B13878202119F051FD0020042100225B
:1041EC00002622F01FFB002847D00689042100225C
:1041FC0022F018FBA0B10289B1B2914228BF164639
:10420C00F4E7654890F82C100F2906D190F8260099
:10421C00022802D3002020F0C9FE84F00105A4E09E
:10422C00A8B2B1B2814223D9D6FA55F0202180B27E
:10423C004200387825F093FA25F0FAFA054625F075
:10424C00F5FA68434FF47A71B0FBF1F615E0534878
:10425C00007818B302AD284625F0FBF924F0C0FF16
:10426C004F490B784F490A7829461AF039FD22E05C
:10427C003878202119F002FD0026C8F8086084F077
:10428C00200572E000259CE715F07AFA84F400759D
:10429C006BE008F01BF984F0100566E03E48418B9A
:1042AC00012025F0E9FA2878022804D131480121AF
:1042BC0000781AF0E3F984F0020556E03248012147
:1042CC0084F00805817050E00CF020F984F0400572
:1042DC004BE0022808BF15F057FD2F480121808CB8
:1042EC0025F0BCFA84F480653FE023F0DBFF84F01A
:1042FC0080053AE022F0F2F884F4807535E01BF08A
:10430C0005FA2048007801280CD11D48007848B1E6
:10431C004FF47A7100FB01F216484FF400610078FB
:10432C0025F01AFA84F400651FE01748017819B1DA
:10433C00002101701BF0EAF984F4805515E0144853
:10434C00006880B11149097801290CD180471148C6
:10435C00006800B1804707484FF480414FF47A72EF
:10436C00007825F0F9F984F4804528460FB0BDE8B3
:10437C00F08F00BFC29100209CB10200902400205D
:10438C002D2600202E260020602400202B26002025
:10439C00FC21002008220020708400200926002027
:1043AC0031260020332600202DE9FE4F88460804D4
:1043BC0026D45FEAC87004BF0020BDE8FE8FE54834
:1043CC00056825F035FA044625F030FA60434FF4C1
:1043DC007A714FF6FF72B0FBF1F14FF6FF70002DC2
:1043EC0000F01A812B886C88CB1A9BB29C4240F24D
:1043FC001C81E31A94B2A342B8BF1A46ED68EEE7EB
:10440C00DFF840A3CDF804809AF800001AF064F9A4
:10441C00002800F0FC8006460078012840F0EC8073
:10442C00DAF8041096F83390D6F814B096F8138096
:10443C0021B148468847002840F0DE80718896F804
:10444C003100022221F096FF0546002842D0287A3E
:10445C00297CA0F10108FF2900F0BB80707F4F463A
:10446C00C00718BF0027E97C287D0144B94204D855
:10447C00E974FF2101FA00F06874A969A87C96F828
:10448C003020896A10FB0710F16A24F0AFFC287DFC
:10449C00697CB7FBF0F202FB107001228240D2B2B1
:1044AC000A436A74C8457CD196F83010AB7C13FB78
:1044BC000713A9698B844FF4FF7303FA00F0C0B2A1
:1044CC001043FF2868746CD1287C1AF061FCFF2023
:1044DC0028747FE0707FC00700F08E80B07F24F0DE
:1044EC0015FD002800F0888004461C2025F0CEF92C
:1044FC00002800F081801C21054624F01BFBB07FB6
:10450C0002A922F0CBFE9DF809000221287528464D
:10451C0022F01AFF708896F8312096F8301096F831
:10452C003330A880287DEA71FF2202FA00F068740B
:10453C0060680078A9742874302013FB010080B2E5
:10454C0022F0ACFB0028A8615DD004461A20B11CF7
:10455C002060708CA080A01D23F092FCF27F04F1EF
:10456C003000B17F96F82830C4F81CB084F819805C
:10457C00A062307CE273744A217563750121A075C9
:10458C00928C2282F28EA285F28C6282B6F8110095
:10459C00A4F817009AF8000085F8089019F06EFB43
:1045AC0055E725F045F9044625F040F960434FF4F2
:1045BC007A71B0FBF1F0654928806348097800797D
:1045CC004843642148436249097800FB0100688034
:1045DC0000E04F46E87C297D6A7C01440139B942F0
:1045EC0018BFFF2A0CD186F83300708806F11C0125
:1045FC0086F8342016F017FE304623F05FFA03E7F6
:10460C00C845F9D1EFE7284622F0AEFEF4E7019851
:10461C0080F40040BDE8FE8F92B282424BD04948F4
:10462C000121007825F09BF845E0A879022806D1F5
:10463C00287CFF2837D0A86923F040FA33E025F016
:10464C00F7F8044625F0F2F860434FF47A71B0FBAA
:10465C00F1F03F49288095F83800097888421BD240
:10466C0095F83620FF2A06D195F83720013085F8C9
:10467C00380085F8362095F8351095F8394082F0D9
:10468C00FF0300200126C7B2A7421DD206FA07F786
:10469C001F4214D10130F6E7EA8BA87E95F82A1058
:1046AC00E9231EF0FFFC284622F05EFE254801217E
:1046BC00007819F0E3FA88F00100BDE8FE8FFBB238
:1046CC0001441A4385F83620AB8F95F83440C8B2B4
:1046DC0004FB10339EB2A64203D2FF2285F836208B
:1046EC0002E0FF2A08D12346184A174E1278367971
:1046FC0072436426724302E095F83A2023466A809E
:10470C002A8D0E0606D022F0200244432A852A6CFC
:10471C00224404E042F020012A6C2985297A85F88C
:10472C002E10E9796A6285F82D10D9B26984054991
:10473C00496811B188470028B8D105F1100004F080
:10474C0017FAB3E7B424002070840020212600203F
:10475C0027260020447000207FB50138072800F27E
:10476C004C810C46DFE810F008002C0054006E0061
:10477C0089004901A600C900CB48007801380128FE
:10478C0000F23B81002C00F0478100200321002423
:10479C001EF0E0FEC64DC74E0420042132222870C4
:1047AC00307824F0DCFF0820002106F0F3FE30788E
:1047BC006C704FF4805104B0BDE8704019F05EBFCE
:1047CC000020002524F0AAFBBB4801210170042025
:1047DC008DF80D0074B1B548B34C4585207801288F
:1047EC0003D1072022F0B0FF2078022802D1062046
:1047FC0022F0AAFFAE48042132220570AD480078A1
:10480C0024F0ADFFA94890F82B1001F0FE01F2E066
:10481C00A54800780138012800F2EF80A548042152
:10482C003222007824F09BFF002C00F00F819F4C6B
:10483C009F48012101702069002800F0EC801FF0D6
:10484C0047FAF8E70120002C8DF80D007BD0974833
:10485C0000219B4A80F82A10984824F027FD924C9E
:10486C002078012803D1072022F06EFF207802283F
:10487C0070D1062022F068FF6CE002208DF80D004C
:10488C008A48002C73D000218D4A80F82A108B485E
:10489C0024F00CFD002003211EF05CFE824C2078DD
:1048AC00012803D1072022F04FFF2078002877D170
:1048BC00092073E07C4D00208DF80D00002C287829
:1048CC007BD018B9092022F03FFF2878022806D1A6
:1048DC000820002106F05EFE042022F035FF10F0C7
:1048EC0053FF73480021C822017070480D2180F8D5
:1048FC002A10704824F0C5FE78E005208DF80D00D4
:10490C0069480078022878D1002C00F0C3806848F0
:10491C000022C178C270017042F20800002106F03A
:10492C0039FE62480D2190F82B2080F82A10C178AE
:10493C0002F0DF02002980F82B200CBF04200D2090
:10494C0022F002FF59E05848007818B95748022164
:10495C0080F82A105648002132220170554824F064
:10496C0090FE524890F82B1001F0FD0143E0082115
:10497C0080F82A104C490978012911D890F82E009A
:10498C0070B900200DF10A018DF80A0052201DF0BB
:10499C009DF924F03DF81EF0E1F9002022F0D4FE40
:1049AC004348002132220170424824F06AFE3F48FD
:1049BC0090F82B1001F0FB011DE03C4C022812D1A9
:1049CC0094F82E0078B194F82B00002140F02000D0
:1049DC0084F82B0005208DF80D00082006F0DAFD78
:1049EC000A2022F0B1FE022084F82A002F4890F809
:1049FC002B1001F0EF0180F82B102C480022032320
:104A0C0090F82A008DF80C002A48007803A9009130
:104A1C000A211EF058F87FBD244C0720254D4FF479
:104A2C00805184F82A0001208DF80D00287819F0A7
:104A3C0025FE0020002621F069FE2878022141F293
:104A4C00883284F82B6024F08AFED6E7174C0220BB
:104A5C0000218DF80B1084F82A001548017094F889
:104A6C002B000DF10B0100F0FD0084F82B00012050
:104A7C008DF80D0052201DF029F923F0C9FF1EF00E
:104A8C006DF9002022F060FE20690028B5D01FF0DF
:104A9C001FF9F9E70548022180F82A1090F82B102D
:104AAC0041F02001A7E700BF902400202421002022
:104ABC0030910020C99100201E2600207084002017
:104ACC00F425002092B0DFF8D492D9F8000010B190
:104ADC00002180F84510483020F078FC24F062FB6F
:104AEC008046072011F00EF817F0B0FC10B1AC485E
:104AFC0024F0F6FC1AF0D0F901AD284624F0E6F9C2
:104B0C000427002029468DF8047024F0E7F9A54C01
:104B1C00206023F033FE0AAD284624F08FF80020E5
:104B2C0029468DF8287024F091F89F4E306023F0C0
:104B3C002FFE06AD284624F091F8002029468DF86A
:104B4C00187024F093F83168984D286019B998487A
:104B5C0024F0C6FC286810B9964824F0C1FC2068E3
:104B6C0010B9954824F0BCFC1CF0CCFBD9F8000023
:104B7C004FF0FF3438B1CDE9104410A9082223F0CE
:104B8C0083F801281BD1CDE91044082024F07EFEC7
:104B9C00002846D005460026052E04D824F00FFD2B
:104BAC00A8530236F8E74FF6300029460822E88071
:104BBC00824824F01BF9284624F066FE09E0D9F857
:104BCC000010CDE910440029DFD07C48082224F0E5
:104BDC000DF910AA0120082124F040FC092800D06E
:104BEC00D8B921F0B1FB800712D4CDE91044CDE93E
:104BFC000E440EAB01200021082223F081FF60B986
:104C0C000EA810A9082223F03FF8002800F0C0805D
:104C1C006A4A0120082124F027FC6849E2201DF093
:104C2C0055F812F07DFA282024F030FE644E00284E
:104C3C00306055D0634F644C07F10C0524F01DFD1A
:104C4C0024F06CF83068056007F1100524F015FDB0
:104C5C005E498968D1F84C1388473068456007F184
:104C6C00140524F00AFD1BF053FF3068856007F132
:104C7C00180524F002FD19F0BFFB3068C56007F180
:104C8C001C0524F0FAFC1FF04FFA3068056107F19F
:104C9C00200524F0F2FC1EF0F7F83068456107F1AE
:104CAC00240524F0EAFC1CF089FF3068856107F1CB
:104CBC00280524F0E2FC23F079FB3068C56107F18C
:104CCC002C0524F0DAFC20F009FB3068056207F1B2
:104CDC00300524F0D2FC387023F05EFE306845625B
:104CEC0018F08EFC24F0EAF9404624F008FD17F089
:104CFC00BBFC24F08CFC01201DF0E8FC19F0A4FD99
:104D0C0034480078022808D131480078012804D1B1
:104D1C004FF40040012106F03DFC2A4D4FF4804138
:104D2C00287824F0D5FA2C484FF0FF3100680DF0AC
:104D3C000DFCDFF8A8904FF0000868684FF0FF31C9
:104D4C000DF004FC3068002750F82710096821B9D1
:104D5C00791C092F0F46F7D3EFE724F02BFC3168B1
:104D6C0051F827100C68C1F8008024F001FD59F8A7
:104D7C002720002021469047044624F01BFC316874
:104D8C0051F827100A6822430A6024F0F1FCD4E79A
:104D9C000A480EA9082224F029F83EE7D025002065
:104DAC005CB20200189100201C9100202091002080
:104DBC007AB202008DB20200A0B20200CA900020AA
:104DCC009491002000200020D94302000C01002007
:104DDC00462600209024002070910020DCB40200B4
:104DEC002DE9F04F89B08A4608040DD45FEACA70E9
:104DFC0040F01D815FEA8A7000F12B815FEA0A7036
:104E0C0000F13381002042E1A24F387819F064FCA4
:104E1C00DFF88892A04C06464FF0000B48F21508BC
:104E2C00002E00F001813078312838D0322849D05A
:104E3C00D32840F0B380F089404573D0382840F037
:104E4C00AD80CDF820B0CDE906BB304606A920F0E8
:104E5C009DF99DF81C10052968D8307B002840F07E
:104E6C009D809DF81D00002800F09880052800F218
:104E7C009580069823F009FC002840F08F80707C08
:104E8C0087497870708808809DF81D00214601388C
:104E9C008DF81D0006A890E82C002CC17EE0B87897
:104EAC0003287BD899F82E10804823F0EEFB0028BD
:104EBC0074D1FF207C49607170880880B088794972
:104ECC0008806BE06079FF2814D0002016F0F8F809
:104EDC000246B9F8701078783346CDF800B012F06D
:104EEC0067FC6079002859D038780821322224F0E8
:104EFC0036FC53E099F81810706820FA01F2D207CA
:104F0C001ABF3144097A002106F1080200231B2B39
:104F1C0042D020FA03F5ED0702D0D55CA9421ED889
:104F2C000133F4E7304621F051FB37E0FF293DD047
:104F3C00FE2956D199F872109DF81E00884202D8AD
:104F4C0060BBFF292AD11CF0C3FC069900201B284A
:104F5C0059D021FA00F2D20757D10130F7E7B9F84E
:104F6C006E004F49334608804E4802884E480188EF
:104F7C0010200090002012F01BFC0120F870B87873
:104F8C0040B93C2002214EF66022B880387824F0DB
:104F9C00E6FBB8780130B87084F805B0304622F0E2
:104FAC008DFD387819F098FB064639E799F87210A0
:104FBC009DF81E00884203D80028EFD1FF29EDD1BF
:104FCC001CF086FC069838B1D9F82810814203D021
:104FDC00C9F8280022F0C8FBBDF8200023F016FA0F
:104FEC00DCE7307B0028D9D170882D498022002342
:104FFC000880707CCDE900BBCDE902BBCDE904BBD8
:10500C0011F08EFACAE71B2000E0C0B299F8181014
:10501C008142C3D02649087099F80700642100FB2F
:10502C0001F23878012162E78AF400402FE0204930
:10503C001A4C08782076E1201CF048FE22F094FBF4
:10504C000020A4F87000012016F03AF88AF0010054
:10505C001DE010488188B1B101394EF66022818083
:10506C000078022124F07BFB0FE00B4C607938B107
:10507C002179206823F009FB10B96079013860713F
:10508C008AF0080003E0002181708AF0020009B068
:10509C00BDE8F08F442300206C9000207084002029
:1050AC00A6900020D28F00208A8D002000F8FF07E8
:1050BC00C59100202DE9FE4F074608680024B0B1C9
:1050CC00D7E9018A0E4624F06DF88146D8F8E8003D
:1050DC00082888BF0124B068204202D170682042A1
:1050EC0008D003203074484624F009FB00242046E5
:1050FC00BDE8FE8FD8F8C01069B198F8F8100029F7
:10510C00EFD006213174D8F8C410C8F8C4604E61D1
:10511C0098F8FC100DE000210522C8E93066C8E9BA
:10512C003411C8E9361198F8FC10002908BF012287
:10513C00327400220129726109D102204FF4E0215E
:10514C0088F8FC0098F8FB001FF040FE7068894955
:10515C000138884205D804201FF058FF06201FF0A4
:10516C0055FF02201FF052FF98F8F80040B9DAF80A
:10517C003C003168814203D298F8FC0000286CD0C6
:10518C00D8E9361009B118B900E028B324F07DFA3B
:10519C00DAF80000416941F001014161484624F010
:1051AC00AEFA98F8F80008B10124A0E708F16C05F4
:1051BC00D8F8EC10284624F016FA0028F4D0D8F8C9
:1051CC00C00003210174384609F0D4FE28460021A2
:1051DC00002424F008FA8AE79AF8040024F034FB3F
:1051EC00654CDAF810100222206991FAA1F1B1FA9B
:1051FC0081F14368D8F8CC00406800689847206972
:10520C00DAF8141002224368D8F8CC0091FAA1F114
:10521C00B1FA81F14068006898479AF8040022F0CE
:10522C00E3F89AF8040024F011FB24F02EFA002085
:10523C00C8F8E000D8F8C0000068B0F5806F01D95C
:10524C0024F023FA98F8FE000028A1D1DAF8000027
:10525C00416841F0020141609AE798F8F90020B1E9
:10526C00D8F8EC0001307FF48BAF484624F047FAB5
:10527C00B2683AB1D8F8E8000221092838BF0121F8
:10528C00009103E008F1F40200200090746834B13E
:10529C00D8F8E8000227092838BF012702E008F1F6
:1052AC00F6040027DAF80000334D416841F00201A2
:1052BC004160D6F800B0D946BBF1000F40D0D8F809
:1052CC00E800019209284FF0010011D22A68B9F1C7
:1052DC00000F1FD0C0071DD02178DAF800009268AB
:1052EC00904700281EBF3C44A9F101090120EDE7BD
:1052FC002A68B9F1000F16D0C00714D02188DAF84B
:10530C0000009268904700281EBF3C44A9F1010997
:10531C000120EDE7DAF80000D26802A99047DDE938
:10532C000120107007E0DAF80000D26802A990475B
:10533C00DDE9012010800098ABF1010B0244BBE7C2
:10534C00D8F8F000DAF80010CA680240102802D130
:10535C00002AF9D101E0002AF6D0706821F0CCFEC9
:10536C00D8F8C0100020C8F8C400C8F8C0000874F1
:10537C001AE700BFFEFFFF0FC40100102DE9F04F2C
:10538C0085B08846080418D4A9480078012802D8AA
:10539C005FEAC87155D15FEA88714CD4022807D1F5
:1053AC00A4480078012803D15FEA487000F1888096
:1053BC005FEA087057D400202BE1DFF85CA29AF862
:1053CC00000019F089F9002800F021810546807F42
:1053DC00C8B9688C132816D190486E8800F11C0946
:1053EC00002049464F46002818BF071D086850B1D9
:1053FC00014631F8042BB242F4D144683C6024F0ED
:10540C0043FA2046F3E7A87A05F1020B022840F094
:10541C00E480DFF8089295F83170BBF8006009F170
:10542C001C000068A0B10188B14202D18178B94258
:10543C0042D00430F5E779480121017088F0020070
:10544C00E7E07648406900B1804788F00100E0E071
:10545C00D9F81C40002C57D001206168002955D088
:10546C0001300C46F9E77048DFF8B091807BD9F831
:10547C001C60000760D424F0DBF9044624F0D6F954
:10548C006A4A60434FF47A71B0FBF1F0D9F8181006
:10549C001288411A91427AD3B1FBF2FB0BFB02F258
:1054AC00511A08445E49C9F818001FFA8BF00978A4
:1054BC00884288BF8B4641E059490978C170A3E006
:1054CC005E495D4800224FF6FE73002409780230D5
:1054DC0079B130F8025C9D4208D04588013D458089
:1054EC002D0406BF027020F8023C0124013906305D
:1054FC00EEE734B1484804214FF4FA72007824F0F6
:10550C002EF988F0040084E000240020454980B284
:10551C000988884261D2082024F0B8F900285CD0B0
:10552C0000210680877041603D490978C170D9F827
:10553C001C1079B360603FE04FF0010B00205FFA64
:10554C008BF44FF0000A071D002808BF09F11C0757
:10555C0096B1F078C0FA5BF1A042F17006D875688C
:10556C0030463D6024F090F92E46F1E771683046E4
:10557C000AF1010A0E46E6E75FEA0A4007D100206D
:10558C000821C9F818002448007819F077F888F039
:10559C0008003EE0C9F81C002348807B00070BD4B0
:1055AC0024F046F9044624F041F960434FF47A7133
:1055BC00B0FBF1F0C9F818001B48807B00070CD534
:1055CC009AF8000008211DF023FC30B91748082177
:1055DC0002889AF8000024F0BFF82878022810D02E
:1055EC00012811D1297EAA89EB7C05F11C006C697C
:1055FC006E7E8DE85A0005F11003594605F036F819
:10560C0002E0284615F024F9284622F057FA88F4CF
:10561C00004005B0BDE8F08FBF910020A42200200F
:10562C0026260020EE25002070840020F225002084
:10563C0090240020462600207876002003260020A7
:10564C002DE9F04F87B0851C8346284624F051F88D
:10565C0001AC06461821204623F06CFA9BF801A0F9
:10566C0004F10B002946009524F0BBF86FF0010003
:10567C009BF80A1002240122ADF8180000208DF8C6
:10568C001A408DF80C0001F00800C1F3C00789071F
:10569C0082EAD00507D4002808BF0124B946A846E1
:1056AC000027002507E004244FF000094FF0000804
:1056BC00002808BF03248548007850EA0A000BD064
:1056CC00834890F82600082809D123F0DFFA002837
:1056DC005AD0BAF1010F57D14FF0C30901E04FF086
:1056EC00C2090025BAF1000F10D07F48007890B99C
:1056FC00BAF1010F0FD1002E55D000202146012206
:10570C008DF81A0001A814F0FFF80AE001A81AF0AD
:10571C00C5FF86B91CE001A82146524614F0F4F8E6
:10572C00B6B17179BAF1020F41F04002727104BF47
:10573C0041F0600171719BF80A10490603D571792B
:10574C0041F080017171B17900240131B17100E037
:10575C000124B0FA80F149090D422CD107D1002D5A
:10576C0018BF814641F20100494619F0DCF914B921
:10577C00009819F005FABDF818004FF6FE71884232
:10578C0018BF24F08DF816E0DEB33279A24218BFB0
:10579C00BAF1020F12D1D01EC0B201281BD857EAA1
:1057AC00050020D12AE00220214601228DF81A00A2
:1057BC0001A814F0A9F807B0BDE8F08F4FF000096C
:1057CC00009953468DF81A903088ADF8180024F0E3
:1057DC0047F8012586E7501EC0B201280ED849EAC9
:1057EC000800012807D1308820F0F4FF50B9308828
:1057FC00ADF8180008E0308824F052F8009819F041
:10580C00BFF90026BDF818004FF6FE7188421ED174
:10581C0020F0D8FD10B1BDF8180011E0BAF1000F5E
:10582C0004D02C4D288820F0D5FF30B19BF80A000D
:10583C0000F002001FF01AFC00E02888ADF81800F8
:10584C004FF6FE71884202D14FF0C70949E79BF829
:10585C000A200099534624F003F810B14FF00109C7
:10586C003FE71D48016811B1BDF818008847BDF825
:10587C0018000099224605F0FDFF06461748184906
:10588C000A6800784FF4803123F069FF0121154834
:10589C00C17096B1AAF10100C0B2012807D810203E
:1058AC00BAF1020F08BF08207179084370714FF0EC
:1058BC00000901258DF81A9014E74FF6FE700025AB
:1058CC004FF001090026ADF818000BE76C230020FF
:1058DC0070840020E825002010220020C2910020B6
:1058EC0014B9020060240020902400202DE9F04F10
:1058FC008DB0044600209A4616460F46CDE90B00A3
:10590C00CDE9090087488568804614F03CFC1C28CA
:10591C0003D014F038FC1B281BD1308840F6020150
:10592C00884218BFB0F5C15F03D1F07B022810D9B3
:10593C003EE043F6070188420BD196F82400032879
:10594C0007D33069784940F0806020F0604088428D
:10595C002ED100206FB366B3387825FA00F0C0075B
:10596C0026D03046002123F08BFF7048C4E9017625
:10597C00006880B109A800900CA90BAA0AAB3046AC
:10598C0009F06AFF0B980B214FF6FF72502321F0A0
:10599C00CBFDFF280CD023F005FC654F064678782C
:1059AC00012802D840B1012070E0304623F0A7FE58
:1059BC0000200DB0BDE8F08F09F0C2FE5D480DF17E
:1059CC000409016841F0020101605B48C8F800005D
:1059DC00484623F06BFADFF864B15A494A469BF803
:1059EC0001009BF800500390554828301EF070FDC4
:1059FC00554856494A461EF06BFD484623F06EF951
:105A0C00DFF84C81534A19214B46029540461DF054
:105A1C000FF9514A08F11C001A214B461DF008F9E8
:105A2C004E484F4923F03DFE4E484F4923F039FE76
:105A3C004E48006810F4402F06D04D4A07F128005C
:105A4C000421002321F0A8F99BF8020010B10D20CD
:105A5C0010F058F808F1400022F001FE08F138006F
:105A6C0022F0FDFD4349002007223876B8843862C5
:105A7C00386181F860200521C7E902103E49F961BF
:105A8C0038700420002121F00FFE78782C4941F861
:105A9C00204001307870304623F031FEBAF1000F0F
:105AAC0006D10DF1040A35492022504623F05AFF45
:105ABC00DAE90012BAF81000DAE90635002AB2FA6F
:105ACC0082F608BF40F6C4126261216060832563D0
