:20000000003A0120093E020039FB021039FB021039FB021039FB021039FB021039FB021098
:1C00200039FB021039FB021039FB021039FB021039FB021039FB021011FB021002
:20003C002DE9F04F99B0054680780224532800F2C485DFE810F054009900A800B800C8000B
:20005C00DA00EA000C011B01C2052A0138015901C205C205C205C205C205C205C205C205DA
:20007C00C205C205C205C205C205C205C205C205C205C205C205650188019401A001AB0106
:20009C00BA01D401EB0107023A02C205C205C205C205C205C205600276028C02A202B80213
:2000BC00CD02DE020303C205C205C205C205C205C20538034C036003C2056D037703940390
:2000DC009D03A903B503C403CE03F1030E04310439044B045804640488048F049204EC1C20
:2000FC00E97A2A7B002320461CF0D2FC8DF8180006AB65200021012220F070FEDFF8100BF2
:20011C000078012800F25885204627F0EFFC002800F0528505460079012840F04D8527F0F6
:20013C0077FA00274FF400018DF83F008DF83800000ACDF83A108DF841708DF83E708DF83F
:20015C0040008DF839000EAE214606F10A0027F04BFD2978152233460170697887704170B7
:20017C004520FF2100F026BD27F0E4FC6979AA790023002423F0CAFB8DF838000EAB6520F5
:20019C00012100F050BC27F085FA27F0F1FB01460EA8022227F082FC8DF8180006AB652003
:2001BC00022100F040BC27F075FA27F0E1FB01460EA8032227F072FC8DF8180006AB652021
:2001DC00032100F030BC27F065FA27F0D1FBEA7901460EA80023002425F06CF98DF81800EC
:2001FC0006AB6520042100F01EBC27F053FA27F0BFFB01460EA8052227F050FC8DF8180065
:20021C0006AB6520052100F00EBC0020DFF8284A27F02CF9ADF85800681DA0478046E81DD3
:20023C00A04795F809B0824605F10A07BBF1100F00F2AB830EAC5E46002E00F0A983384695
:20025C0027F012FD24F8020B013E0237F4E727F021FA27F08DFB01460EA8102227F01EFCAF
:20027C008DF8180006AB65200721DCE327F012FA27F07EFB01460EA8112227F00FFC8DF81E
:20029C00180006AB65200821CDE327F053FC6A7B691D0023002422F053F98DF838000EAB2F
:2002BC0065200A21BFE302208DF8200027F042FCADF81800681D27F0D7FCEA79064605F1E3
:2002DC0008018DF838200EAF781C26F0AFFF06A831463A46002300241EF062FF8DF85800CF
:2002FC0016AB65200B219EE327F024FC0021002421F00CFC8DF838000EAB65200C2192E3BD
:20031C000020DFF8344927F0B1F8ADF85800681DA047804695F80F9005F11000A04705F14F
:20033C001304AD7C83460F2D00F244830EAE2F46002F00F04283204627F096FC26F8020B54
:20035C00013F0234F4E727F0A5F927F096F826F05DFF40F0438306A827F046FC43E327F02A
:20037C0099F927F08AF826F051FF40F04A8306A827F03AFC4AE327F0DDFB27F0C7FA8DF85F
:20039C0038000EAB6520232100F013BCDFF88018C8208DF81800E81C0978002900F07E8335
:2003BC0026F0AFFB8DF81800A0E36879EE1CFE280BD12878082808D3A879FF2805D1304615
:2003DC0027F052FC314623F041FD0EA9304626F077F8002800F08E83054600249CE3E81C07
:2003FC00042124F07BFAE97927F060FCDFF83C188DF83800022026F0B7FCDFF83418032045
:20041C0026F0B2FC0EAB65202621D2E327F08CFB044605F10E0027F027FC297C6A7C0346C8
:20043C00E878CDE90012AA1D214623F083FFDFF8F8178DF83800042026F096FC0EAB652008
:20045C002721B6E34FF00208E81C8DF8408027F00BFCADF8380068798DF85800A81D27F078
:20047C0003FC2E7A044600270935CDE9005716A80EA9224633461FF0EFFC27F02FF910D18D
:20049C00DFF888078DF84080CDE9005722463346C08AADF8380016A80EA91FF0DDFC8DF89E
:2004BC00180006AB6520282183E30226E81C8DF8406027F0D9FB27F05BFAED7904460EA815
:2004DC00002321462A4625F0D5FE27F007F90ED1DFF838078DF8406021462A460023C08AA9
:2004FC00ADF838000EA825F0C5FE8DF8180006AB652029215DE327F0CDF8ADF83800681DDA
:20051C00042124F0EBF96A7AAB7A0024014600940EA823F03BFF8DF8180006AB6520302173
:20053C0081E227F0B7F827F0F6F9312201238DF8580016A8CDE90004DFF8E8060EA91FF019
:20055C008BFC8DF8180006AB652031216BE227F0A1F827F0E0F9322201238DF8580016A8D3
:20057C00CDE90004DFF8BC060EA91FF075FC8DF8180006AB6520322155E227F08BF827F0C7
:20059C00CAF9332201238DF8580016A8CDE90004DFF890060EA91FF05FFC8DF8180006ABD2
:2005BC00652033213FE227F075F8ADF83800687B0024691D0094C0F3400200F001030EA804
:2005DC0021F086FA8DF8180006AB652034212AE227F060F86A7BADF83800691D0EA80023AA
:2005FC00002424F065FB8DF8180006AB6520352119E22C4614F8030B04281ABFE8782C1DE9
:20061C0002208DF84000204627F02EFBDFF81066A5780121E278ADF8380000230024317086
:20063C000EA829461DF058FB8DF818002846347024F07AFB06AB65203621F4E127F07AFAF4
:20065C00ADF83800687904218DF84000A81D24F045F90446AE7AEF7A05F10C0027F004FBCC
:20067C00DFF8A8850546214632463B4626F0DBFE0EA81FF0CDFB27F031F810D10220214689
:20069C0032463B468DF84000B8F81600ADF8380026F0C9FE0EA81FF0BBFB8DF8180006AB37
:2006BC006520372185E26C7827F044FA0146DFF86C0500781FF088FB8DF8380004F0E00077
:2006DC00202840F079820EAB65203E2171E26C7827F030FA0146DFF84405007820F03EF851
:2006FC008DF8380004F0E000202840F065820EAB65203F215DE200206C788DF83800DFF879
:20071C0010050078411E022980F09181022092E127F010FA27F0FAF88DF838000EAB65206A
:20073C00422146E200200690ADF83C000E90E81C06A925F06AF88DF83800069850B126F041
:20075C0079FE81788DF83B10C1788DF83C1000798DF83D000EAB6520432106222AE2E81C1E
:20077C0026F0CFF98DF838000EAB6520442120E227F0E0F96979AA790DF05AFA8DF838001A
:20079C000EAB6520452114E227F0D4F96979AA7919F014FB8DF838000EAB6520462108E256
:2007BC00EC7827F0C1F90146204621F045FAB0FA80F0472140098DF838000EABBFE1E878AA
:2007DC0000248DF8384021F00FFF0EAB6520472129E1E8780EA924F091FE06468DF818006A
:2007FC0040000130C5B2284627F042FA002800F0A181044600F8016B00219DF8182091428B
:20081C0080F0BC809DF83830013100F8023B9DF8393000F8013CF2E70EAC1321204626F036
:20083C00C1FBEE7827F080F90146304624F0A4FA002800F086810021231D8DF8381026F018
:20085C00F9FDC11C827818468DF83B2026F0EEFC7AE1002012218DF818000EAE304626F0DE
:20087C00A1FBEC7827F060F9AA79ADF838000F2A28BF0F228DF83A201AB1F01CE91D26F0C9
:20089C00D5FC0EA9204601221BF0A2FC8DF8180006AB65204B218CE126F0C0FA8DF8380049
:2008BC000EAB65204C2184E1E87829798DF838100EA9032800F05F81022800F06281012865
:2008DC0040F0668152201FF08DFF64E127F032F969790246A81D1AF067F88DF838000EAB83
:2008FC0065204E2165E127F025F90146687918F05BFE8DF838000EAB65204F2159E1C34D2F
:20091C000822E88A05F13901ADF83800C14800788DF83A00A88CADF83B00688BADF83D00E9
:20093C000EACE01D26F082FC04F10F0005F11C01082226F07BFC287E5021182223468DF843
:20095C004F00652036E1B2480078002800F0018112200AE11FF084F92EE100208DF83800EF
:20097C00E878010606D5A94910F07F0018BF012081F868000EAB652053211AE16520492133
:20099C002A46234620F02AFA39E180208DF863003E78102E52D80DF11809013734464D460A
:2009BC00002C4DD0384627F05FF925F8020B013C0237F5E780208DF8630027780F2F54D8D8
:2009DC0001340DF1180A3E46002E50D0204627F04BF92AF8020B013E0234F5E7084627F02E
:2009FC0043F9ADF81800687E06A926F017FC0EA921201AF00BFA8DF8580016AB65202121B8
:200A1C0011E0084627F030F9ADF81800687E06A926F004FC0EA922201AF0F8F98DF8580002
:200A3C0016AB65202221012220F0D8F9C5E0002840F0B580042008F057FAB3E080200DE04E
:200A5C00BBF1100F0CD80EA9002052465B468DE84202039016A8414613F08AFB8DF86300BA
:200A7C000DF1630365200621A3E080200FE00F2D0FD80EA9002002974A465B46CDE900516D
:200A9C0006A9CDE9031016A8414614F05BF88DF863000DF16303652020218AE016A90EAD30
:200ABC002A4617F02BFD04469DF85800F0B1614904EB4400002641F8206001EB80004660D5
:200ADC009DF94B00B0F1FF3F03DC05F1130021F007FB0EAD1421284626F064FA04202146E2
:200AFC0014222B4623F062FE8DF8186006AB652024215EE0182027F0BBF8002800F08380ED
:200B1C000446BDF8380000211822234626F01CFA0546002818BFC825192027F0A9F8002842
:200B3C0067D007460130002D4BD01821FF2226F033FA50E0002049218DF8180006AB652072
:200B5C0037E001208DF838000EAB65204A21132230E026F0EFFF044605F10D0027F084F8B2
:200B7C000246691D204623F027FC8DF838000EAB652051211DE052201FF034FE2648002143
:200B9C0004E052201FF02EFE23480121017002E0522023F069FC0EAB65204D2109E0012028
:200BBC008DF8380004F0E000202805D10EAB65204021012220F012F90024204619B0BDE895
:200BDC00F08F3146082226F031FB07F109002146102226F02BFB6520252119223B463D708D
:200BFC0020F0FCF83846192126F0DCF9384627F03DF8002CE0D02046182126F0D3F92046A5
:200C1C0027F034F8D8E7C825FFF7E7BBA8F50020A80C00207C0A0020C20E00207201012076
:200C3C00810E00200C0D0020654B0200615002001D40010014CC0020857C02002DE9F04F95
:200C5C0099B081466FF00700DFF8DC880630ADF8520098F80000022814D1DFF8C8080078DC
:200C7C0080B9B9F8080010B11020012101E03020002109F08DFF00208DF81C0007A9522099
:200C9C001FF0B0FD0DF11C0A99F80810D9F8040052460FF01BFBE8B19DF81E709DF81F407D
:200CBC009DF82050BDF8266026F0ACFC844211D145EA070001280DD826F003004FF6F87563
:200CDC0080B2A84206D098F80000022808D19DF84D0028B1D32014F092FD19B0BDE8F08F45
:200CFC00B9F82800ADF84800B9F83200ADF82A009DF82200D0B1D9F804109DF81D209DF8DC
:200D1C003830012025F054FA08B1CF20E3E7DFF81C08C078012809D1B9F8280026F082FEB4
:200D3C0020B1417901F0E701083141719DF8210068B1BDF82610FF2024F01EF89DF821107F
:200D5C00E0B141F001012C268DF8211017E09DF83900002800F005819DF83D10FF2902D06C
:200D7C00002940F02A81DFF8C807BDF82620C18A8A4240F02B810120222607E0082601F050
:200D9C000300012808BF46F01106012098F800103746022938BF67F07F07B20748BF37467D
:200DBC00002808BF37469DF82200002800F0818017F0400B1ED0012905D8DFF87407807B47
:200DDC00800700F1E780119801780C2900F2E880012241F298438A401A4200F0E180032993
:200DFC0002D140780D2805D007A821F0BCFD01283FF473AFDFF83847B9F84410A08C814201
:200E1C000AD199F84620B9F84210B9F8280000230093002307F0F8FB9DF82200F8B1B9F834
:200E3C004210B9F8280020F0D9FF002800F082800646D9F804009DF81D10F2780844417B14
:200E5C008A421EBF00227260F1700130042123F045FD71688842FFF440AF0130706098F8B7
:200E7C00000002283ED2A07B80077FF536AF9DF84D0060B1BDF8280025F0A0FB002800F089
:200E9C001681D9F80400417801F0DF0141709DF82E00002800F0EE80D9F80400817901393D
:200EBC0081718DF82E1007F07F00090640F0E580E2E0DFF87C06C07A00283FF479AF07F078
:200EDC00220022283FF474AFF8B200F0420042287FF41BAF1198007800F0FE0006287FF401
:200EFC0014AF65E77FF4F9AE94F82600092802D004287FF4F2AEF8B2800600F18980BBF1E3
:200F1C00000F3FF4EAAE11980078033809283FF6E4AEDFE810F057010F010A000A005C01E7
:200F3C000A000A000A000A000B00D6E607A814F017FBD2E69DF84D0000284ED0042024F0C9
:200F5C00BDF900283FF4C9AE01464FF4B2700880B9F828004880DFF8DC0500781CF05CFD83
:200F7C00BBE6BDF826001FF079FF0238DFF8C015B0FA80F0CA8A4109BDF82600904208BF40
:200F9C000231002942D09DF81E20002A5AD001F1400759E0119801784A1E0B2AFFF41FAFAE
:200FBC00DFF88C05BDF82620C08A82427FF492AEBDF8280022F05AFB8CE6109A9DF83C00C0
:200FDC001FF000FB30B101200026DFE690F826000428F8D100260020D8E694F86C00012836
:200FFC007FF43DAFBBF1000F04D01198007806283FF435AFE81DBDF82A1080B281423FF465
:20101C006CAE07A849461CF0F3FF66E600271BE099F8460026F0F2F99DF82E00012840F0FC
:20103C00CA80B9F82800BDF82810814240F0C380BDF826001FF012FF022804BF00208DF8C1
:20105C002E00B8E001F120071FF008FF0138B0FA80F0400947EA00069DF81E0000283FF49E
:20107C0094AE1198007825F0E5FA012818BF07F07E068AE607F07F000746390702D44FF0FA
:20109C00000B34E0F9B24A0722D4C9069DF8211028D5C1F3820212B1072A18BF013A002A29
:2010BC0008BF074601F0E30040EA820118E0D32014F0A5FBDFF880040078002800F0A380E2
:2010DC00DFF8781451F82000C0EB001081009CE09DF8210000F0E00100F0E30040EAD1011A
:2010FC008DF82110D9F804004FF4805B017294F82600092801D0042826D1E18ABDF826009B
:20111C0088420AD01FF0AAFE022806D09DF8210000F0030001287FF4E0AD9DF81E000028AB
:20113C0045D01198007803284CD007284FD004287FF4D3AD9DF8380002287FF4CEAD07A914
:20115C00002011F09DFAC8E5FEB217F0610F47D0F00708D0B9F8281007A814F0A3FB00289F
:20117C0066D007F09F074FF00008FEB2B80609D599F84600D9F83C2026F040F907A815A92D
:20119C0005F066F9700640F14B81B9F8281007A80DF1520243460FF015F900286FD08046BF
:2011BC0011980078012808BF4BF0100B38E199F8460026F023F9D9F83C2007A815A905F0FB
:2011DC0047F98AE507A800210EF088FD85E59DF8380004287FF481AD07A816F093FD7CE547
:2011FC009DF81E0001285AD111980078032849D0052854D1B9F8281007A80DF15202002308
:20121C000FF0E0F869E5CD480168CD480268BDF82800904701287FF460ADCA480168BDF803
:20123C0028008847C8480168BDF82800884754E524F004FC9DF82E108046BDF8280019B9E1
:20125C00B9F82810884290D0E18A814204D1B748807801287FF489AFB9F8281007A8424671
:20127C0008F0E4FC002800F0C18030074BF0040BBDF8260048BFE81DADF8520075E74FF027
:20129C000008CDE0BDF8260025F098F938B1B9F8281007A80DF1520200230FF093F89DF8E7
:2012BC002E0098B322F00EF800287FF416AD9DF83900B0B3109A9DF83C009DF83D101FF086
:2012DC0081F9002800F095809DF83D00002800F09A80109926F074FB9DF82430ADF8520039
:2012FC0011209DF823209DF821104BF0400B002B08BF0920002A18BF0830002918BF0130F8
:20131C00D9F804100A5C013A0A5486E09DF81E0001287FF476AE1198007803283FF4DDACEC
:20133C006FE6BDF826003107ADF8520025D49DF8201011BB9DF81E1001291ED0002117F0A5
:20135C00B9FD18B140790138022816D3B9F84410BDF8520020F042FD28B1807824F09EFD12
:20137C000138072809D3BDF8280025F027F9002800F0D18004208DF820004020BDF826107E
:20139C000AF11D0200EAC7049DF82000234617F083FA38B1D9F804004BF0200B017801F032
:2013BC003F0101709DF8390048B1BDF826100AF1200020F043FA4BF0400BADF852009DF834
:2013DC001E00012806D0BDF82810BDF82600002213F018FEBDF82810BDF82600224611F0A0
:2013FC00BDFB002818BF4BF0200B16E007F0DF07B9E6BDF82610BDF828000B22002319F021
:20141C0061FAFFF76ABCBDF82600ADF8520026F009FB002808BF4BF0400B24F00FFB8046F4
:20143C00A81DBDF8521080B20E1A484818BF4646007801282BD1E81DB9F8321080B28142DD
:20145C0025D0B9F82810814221D0681CBDF8262080B282421BD2BDF82800814217D026F0DF
:20147C00E1FAA0B101790139012910D8408801218DF85410ADF8600015AD28461DF0FEF952
:20149C0028B1281D1CF0ECF908B120F0A9FA78B2B0F1FF3F3FF721AC002E3FF41EACB9F8CD
:2014BC00080026F0E5FB00283FF417ACB9F80820D9F80410054625F0B9FE9DF81E1000203C
:2014DC0099F80830B9F8282016908DF85410BDF8521015ACCDE9006BCDE90204284610F07C
:2014FC0027F920B1284626F0C1FBFFF7F6BB0F48407800283FF4F1AB00208DF81860ADF830
:20151C001900DDF826004FEA3040059005A825F011FDFFF7E2BBBDF82610BDF8280002220E
:20153C006CE700BFC20E0020A80C0020600C0020A8F5002074010120B40E002068910200FD
:20155C00EC090020F4090020F0090020C00E00202DE9F0438DB0054680780224252800F208
:20157C007380DFE810F02600A100C100D400E700F5000301B602B6021C012D01B602B6022E
:20159C00B602B602B60245014A01B602B602530157016001B602B602B602B602B602B602A9
:2015BC00B602B602B6026A016D017001730177017E01DFF8D47500240E258DF80440387842
:2015DC00012807D801A81BF0FFFC04469DF8040005EB4005EEB2304626F04AFB002800F097
:2015FC0087824FF000080546431C0021082280F80080012025F0A8FC26F00AF86872000ABC
:20161C000721A872DFF88405E972007828733878012800F262829DF80420002A6A7300F03F
:20163C005E8205F10E0000212346914280F0578213F8022B013100F8022B13F8012C00F845
:20165C00012C9DF80420F0E7A0F140010D291CD8DFE811F00E000F013F023F021D012D0101
:20167C003F023F02390144014F0164013F02730101ACE91C0822201D25F0D8FD204619F071
:20169C003DFABDF806004021EDE0632800F06C81642800F07981E02840F01B8200244720D0
:2016BC00E0210022002312E2202026F0E1FA002800F0C4812021FF22044625F06DFC631C9D
:2016DC0001200021082225F03FFC0546002818BF012501AB84200021042225F035FC0028BD
:2016FC0000F00882023509E2E81C26F0BDFAADF80400832026F0E2F9014601AA832026F079
:20171C00A1F88DF828000AAB6720022193E1E81C042123F0E3F80190842026F0CFF9014623
:20173C0001AA842026F08EF88DF828000AAB6720032180E1612026F0C1F90146EA1C612015
:20175C0026F080F88DF8040001AB6720042172E1622026F0B3F90146EA1C622026F072F818
:20177C008DF8040001AB6720052164E100208DF80400E81C26F078FA6A7900F4F851002AA7
:20179C0000F04C81B1F5A06F04D04FF6FF71884240F04E81DFF8EC034FF0FF3147E126F0F6
:2017BC002FFA044625F0F8FED949604301ACB0FBF1F1204626F0CAF9672009210422ABE0EF
:2017DC00DFF8B4632D79306840B901AC204625F0F2FD012021460DF045FC3060052D00F039
:2017FC006A81002D00F06A81642120F0CDFC67E115F8032B672010216EE0E87820F0A4FDE2
:20181C008DF8040001AB6720112114E100246720142102E0002467201521ADF808400194A4
:20183C0001AB062253E100246720162109228DF80C40CDE9014401AB49E1F52020210BE094
:20185C00F520212108E0F520222105E04FF6F570232108E0F52024218DF8040001AB672004
:20187C00E9E0F5202521ADF828000AAB67200222E2E0E81C26F0F8F9ADF8060001AC204670
:20189C0016F0FCF9231D672041210822D4E0E81C0AA924F015FE00288DF8040000F0D0805B
:2018BC0001A81821FF22013025F076FBF5E0E81C0AA924F005FE00288DF8040000F0F2809C
:2018DC004FF0FF30F0E015F8030F697820F040FC28806720482102222B46ADE0E87823F035
:2018FC00F7F801AC014620461BF061FF6720492111E0EC1C204624F01FFB002818BF204635
:20191C00B5F80B1018F07AF801AC014620461BF04EFF67204A21242223468DE001ACE91CF7
:20193C000822204625F082FC204625F031FA8DF828000AAB67204B217DE04FF0FF3095F815
:20195C000380691D0190ADF81000CDE902004FF6FE70ADF80600287903288DF8300020D194
:20197C000AA826F041F921E00024E91C08228DF8284001AD284625F059FC28461BF070FF9A
:20199C000AAB67206321A1E0B5F80B006A7B0024E91C8DF8044009F06BFA01AB6720642145
:2019BC0094E0084626F060F9ADF82800AF7B002F00F0DD807E0095F80D90304626F058F9E2
:2019DC00002800F0D48005F10F013246044625F02DFC00940AA940464A463B460BF0FEFFA3
:2019FC00002800F0BA80837801784278057946798DF806308DF804108DF80520C3788DF850
:201A1C0009608DF808508DF8073001A98B1D811D40794200184625F009FCA5E0B1F5A06F0B
:201A3C0003D04FF6FF71884202D156480021016001AB6720062101221FF0D0F9002448E0A4
:201A5C00182026F015F940B3BDF828100446009006200022182322F093FEB8B9BDF8285090
:201A7C0001AE21461022701C25F0E0FB444F05EB450506F1110057F8251026F067F807EBC6
:201A9C008500416806F1150026F060F82046182125F088FA204626F0E9F801AB6720442157
:201ABC001922C9E7BDF82800ADF8050001AB672045210322C0E7314901220A701FF08DFD83
:201ADC00002467200A218DF8044001AB01221FF085F920460DB0BDE8F08385F80D80672023
:201AFC00002132462B461FF079F9284626F0BEF87CBBA3E7019800BAC4F809000AAB8320D4
:201B1C000021022225F020FA20B1043506E000BF40420F00BDF82800A4F80D0004F10F0368
:201B3C0061200021012225F00FFA002818BF083504F1100362200021102225F005FA002851
:201B5C0018BF1035234625706720012120221FF045F9204626F08AF870E74FF6FF70ADF869
:201B7C0008006FF480300190204626F07FF801AB67204D210E225FE7080101207E0E0020BD
:201B9C0058FC0020E8000120A80C00207C0A00202DE9F04F85B084780226362C00F2D282DC
:201BBC000546DFE814F077017F01750087017B00CF02CF02840037004C008F00A200B000F9
:201BDC00CF02B8009B01CF02CF02A501B801C601CF02CF02CF02CF02CF02CF02CF0237000E
:201BFC004C00CF02CF02CF02CF02CF02CF02CF02CF02CF02CF02CF02CF02CF02CF02CF023E
:201C1C00CF02CF02CF02C000EE00D60102015B005B00E60125F082FF242840F0B58102AB1B
:201C3C00352000210422002425F08EF9002800F01282012002228DF81000002012E2002072
:201C5C008DF8100025F06AFF0646092C40F0F88095F8059095F806800720FAE0DFF81C758E
:201C7C0001208DF81000386880B1406A70B102A925F05DFF0546342C40F03C82284625F0BE
:201C9C00F3FF002800F03582042052E2032050E2DFF8F834612002210A2250E202ACE22005
:201CBC00214622F0E1FB61200421082295E125F035FF0446681D25F0D7FF242C40F09481D5
:201CDC0000200BE2E878032800F2A481281D25F0CBFF0246E878DFF8AC1431F81010DFF8B6
:201CFC00A804007825F02FFF95E1E878032800F29681DFF8901431F81010DFF88C040078B4
:201D1C001BF076FA8CE125F051FEADF8080002AB61200C210BE1002661200E2101228DF8E9
:201D3C00086002AB94E1DFF8546401208DF810003068002800F034810069002800F0308121
:201D5C0002A925F0F4FE042122F0C8FD002800F0FD81044625F08CFF002800F02481214615
:201D7C00054625F01FF93068BDF80C1022462B4606690298B0478DF81000284625F076FF00
:201D9C0011E1DFF8F8432068002800F010818069002800F00C8102A925F0C9FE2068BDF8A0
:201DBC000C1082690298904702E1DFF8D093D9F80000002800F00281C069002800F0FE8047
:201DDC0002A925F0B4FE05469DF808000024012809D1BDF80A0030B9BDF80C006938032831
:201DFC0038BF01246400284625F03EFFAF788046F72F28BF6FF0080725F0C9FD002800F02C
:201E1C00A7810546ACB9D9F80000BDF80C10AA1CFBB2C469029800924246A047044640B9AE
:201E3C0000246120332132462B466F702C701EF0D5FF284625F01AFF002C40F0C08080E1AE
:201E5C00681D25F011FF8146E81D25F00DFF8046092002AF242E18BF2F1808BF3526304627
:201E7C0009EB080525F02AFE854201D9022060E1B9F1000F04D1304641463A4620F03CFDB0
:201E9C00304641463A4625F0DDFC002800F0F0800A204EE1E878012802D0002840F0518155
:201EBC0025F02CFA40F259600121ADF8080002AB61203CE00120EC1C8DF80800E2202146A8
:201EDC001EF090FC30B901200821224625F0BAFC8DF8080002AB612003212FE1E878291D51
:201EFC00012800F0E980002840F0ED80E020E7E025F014FE0446681D25F0B6FE242C0FBFDB
:201F1C0000200146204625F083FD8DF8080002AB6120122112E125F001FE24280CBF002017
:201F3C0025F0CCFDADF8080002AB61201321022205E1E8788DF8080091488068D0F83024C4
:201F5C0002A9E02090478DF8100004AB61201421F4E08A4C2068C0B3806AB0B302A925F037
:201F7C00E6FD2068BDF80C10826A0298904701462CE0824C206890B3C06880B325F0CEFD85
:201F9C002168C96888472BE080466938002680B2032838BF0126681D082C45D1057846E017
:201FBC0003208DF8100004AB61203021C6E003208DF8100004AB61203121BFE00324002600
:201FDC008DF80840612033213EE0002104AC204625F0BCFD6120322104222346AFE003200B
:201FFC0025F0C1FC3621A9E005F10806ED790146A8426FD92046002225F01EFC09288DF8C3
:20201C0008006DD1002D6BD020462946324625F019FC65E0022025F0A6FC0A218EE00220A6
:20203C0025F0A1FC0B2189E025F01EFE0546404625F044FD0227A84288BF7700FFB100263E
:20205C008DF80870612021468DF8096002AB02221EF0C4FE76E002988DF810400422ADF860
:20207C00120002208DF8110004AB6120082166E0012E60D1E22039461EF0B4FB59E0471BA2
:20209C00B8B2F72828BFF72725F081FC002861D01FFA87FB00F1020982464846594624F00B
:2020BC0081FF404629465A464B4624F04DFF0546002851D00A275AE00878022814D25220FD
:2020DC001EF090FB00E002208DF8080002AB61200F2133E02046324625F0AEFB8DF8080022
:2020FC0002AB6120072129E002A9522022F0BCF9ECE702359DF8080015F8016B012810D157
:20211C00BDF80A0068B9BDF80C8031462A46404620F0F2FBB8F1010F03D1E22029461EF00C
:20213C0061FB3868BDF80C1032462B46476A0298B8478DF8100004AB6120214601221EF026
:20215C004DFE0026304605B0BDE8F08F052028E7102434E7102772E78AF8017000276120F5
:20217C002146324653468AF800701EF037FE504625F07CFD002D7FF462AFE2E7400E00208A
:20219C000C0100206096020072010120FC9502002DE9F04F8DB08B46480714D45FEA0B40A9
:2021BC0045D45FEACB4000F195815FEA0B6000F1BD815FEA8B7000F1D0815FEA0B5000F191
:2021DC00EE810020AFE1DFF814050178062900F2A881DFE811F007008F01A601A6019401CF
:2021FC00A6019B01DFF80055DFF8F4142A7891F82B30022A02D19E0600F193815E0700F1F1
:20221C0098819B0740F18D810423037091F82C30DB0700F0868191F82E30002B00F04B8281
:20223C0023F0E4FE0420012102F046FA50E2DFF8BC04DFF8B054DFF8A494DFF8B874DFF888
:20225C00A044DFF8B4A448F202080088019028781AF0FCFF002800F03A8106460078D328BB
:20227C002DD1F089404540F019813878002800F0158199F80000012840F0108124F03EFF52
:20229C00002840F00B817088002840F00781A24602AC1221204624F085FE25F023FB3046F7
:2022BC00214617F0F5FABDF81400B0F5285FC0F08C80012002211DF083FE54462CE099F8EB
:2022DC000010884219D1012836D0032840F0E680DFF8140400780138012800F2DF80B078EC
:2022FC00012853D0002840F0D9807078002800F0BE8000201DF012F8D0E00A280FD194F802
:20231C002B00BA46B71C3071A16909B138468847384623F063FB5746DFF8DCA3BEE0092840
:20233C0040F0BC80DFF8C0030078002840F0B680A168B01C8847B1E0DFF8AC030078013809
:20235C00012800F2AB80707860B194F8330094F83410013084F83300C0B2884202D901207B
:20237C00002199E099F80100032857D002286ED0012840F093803878002800F0888024F00B
:20239C00BDFE002800F08E80012081E07078002872D025F03DF94FF6FE71884203D1BAF81D
:2023BC001600884207D0AAF81610ADF82010532008A91EF017FA1DF053F923F06FFB002074
:2023DC008AF826001CF0BAF868E0CC48006807A908AA16F093F8074601985446DFF818A3B2
:2023FC00874212D29DF8300010B1FD208DF8300004203946142208AB22F0D8F9C04907EB52
:20241C00470001EB8000012141720020012184F83200012002F050F9B64F3FE0A24608AC0C
:20243C00AB20002122461BF0EFF9042002945446DFF8C4A28DF80C0002A80EF0EBFD25F072
:20245C0051FA28784FF4805141F288321CE0012020714FF48060ADF8200008A817F040FFE8
:20247C0025F040FAA2484FF4805102680BE00FF0FBFB606990B9A5E702204FF4805140F69F
:20249C00B83289F80200287825F05DFB06E0002084F832000120012102F00EF9304623F02D
:2024BC0087FDD4E694F8350020B1E0690028F5D08047F3E70020002102220023ADF820000C
:2024DC0002208DF8280008A823F0D4FEB7E78BF4004028E0844800780138012859D87F4879
:2024FC00017803294DD0012953D1417800201DF067FD4EE0012001211DF062FD11E023F085
:20251C0075FD0420012102F0D7F80AE0002132220170734880F82A1072480421007825F07D
:20253C0012FB8BF004000DB0BDE8F08F8BF08000F9E70522027091F82C2092072CD591F8A6
:20255C002E204ABB052202600120487000201AF0EDFF022022F0E4FFE3E763480078013857
:20257C0001280BD80020CDE9080008A812F03AFA20B15C48022100781AF096FE8BF0020044
:20259C00D1E78178022904D10121817000201DF0F3FC8BF48050C6E705200021B3E75248C9
:2025BC000078002840F08480DFF834A1DAF80C50002D77D002A80130019008AC261D002D4D
:2025DC006DD0A87A18B10138A872000646D19AF83180B8F1000F11D00020A91C08228DF8D7
:2025FC002000304624F022FE204618F087FA28B12A88BDF82200314621F0DEFEAF1C0DF177
:20261C001F012246384615F079FF8146384607A921F033FCB8F1000F05D09DF8300040F064
:20263C00020002281CD1DAF80800A0B101983946082224F0FBFD022000220C238DF80800EC
:20265C00BDF81C00ADF812002648007802A9009109211FF03EF828461CF03AFEED68AEE7A9
:20267C00384622F07AF99DF81F000128DBD12046142124F097FC224A09EB4900002123463D
:20269C0042F8201002EB8000142241604172FF2049468DF83000042022F088F8C3E7DAF828
:2026BC000C0028B90F484FF4006100781AF0A0FD8BF4006037E7013A012A09D8032202602C
:2026DC000120487001201AF031FF012022F028FF287800287FF425AF04205EE7EC000120CB
:2026FC00380800207B010120A80C0020AC960200480E0020970E0020A8F50020C4000120CC
:20271C0014CC00202DE9F04F89B020F031F8DFF8EC148122DFF8F084DFF8F0A4DFF8FC745F
:20273C00DFF8F0E40A70DFF8D8140860DFF8D404FF2101700020DFF8E014A8F800008AF8E0
:20275C000000DFF8CC040968007891F808B04FF6FE718EF8000059448AB2B968D1F800315E
:20277C00DB899A421BD80422DFF8B844A8F80020DFF8AC24126893681D0ACEF80C30C3F356
:20279C000159AEF804501D0E2570D1F8B850B9F1020F2E780CBF002EB9F1030F10D124F02D
:2027BC0099F825F03BFADFF8781400240A6813681C7112680A6025F039FA09B0BDE8F08F18
:2027DC00C3F30F2505F007050EB1002DE7D0DFF858C4042D9CF800C008BFBCF1000FDED0A6
:2027FC0036B1DFF848643678862E01D1022DD6D19D0216D403F4E063B3F5007F08BFBCF1EB
:20281C00000F1ED0DFF824140978862909D1002075461FF0E5FFDFF81004AE4690F800C091
:20283C002878BCF1000F49D1002847D00128B6D003283CD0022841D1BEF804004007AED125
:20285C003CE0D1F8D40090F88300022877D0A1460520147BF246A8F8000025F0DFF905467C
:20287C00DFF8C8030078862866D1B868016C096811B9D0F84C05804760B20021002625F027
:20289C003DFAB9680A6C12685077086C00688677086C0068C477284625F0C8F9BAF8041013
:2028BC0099F8000001F010011BF09CFE47E0BEF8040000F0070003287FF471AFBEF8040074
:2028DC0001073FF56CAF810402D481053FF567AF9EF80E10C1F38105012D3FF460AF8E0965
:2028FC00012E3FF45CAFB9F1010F11D840F0020101F0070103290BD155EA06013FF44FAF01
:20291C0035B9B968D1F8AC10097800293FF447AF4FF6FB71B9F1020F594413D1C54A535D88
:20293C00925D02EB030945EA0602430615D4002A18BF09F1020914E0284625F077F923F02A
:20295C0079FD2EE7BA4A535D925D02EB030946B1420648BFA9F1020903E0002A08BF4FF036
:20297C000209C0F300205FFA89FB8BB2ABEB00028EF801009A423FF712AF0844B968A0EB59
:20299C000B00AEF806007430D1F8501280B28847A049002888603FF402AF7421CDE901B9B2
:2029BC000396AB4624F0FEFA9A4F0020B8709E48007820B9387900F020008AF800007878CA
:2029DC009AF80010964E4FF000092546002993492CD000284FF0000029D1B88800F0070009
:2029FC00032807D0012821D18868D0F8D40090F88200D8B1C8684069007818B124F032F926
:202A1C00FE280DD085488068D0F84C02804738B982488068D0F844028047002800F0EA800B
:202A3C007C4F0120B8707E4E254600E00020BC6804F1740184F83AB06160A1657978BB8840
:202A5C00FA880029A381039B228184F830302B7808BF994697F80EB084F84990A4F85C206B
:202A7C00FF22B8F80030A273CBF301195D1A797B029FA8F8005001F0780160F3820101EB24
:202A9C0009002074380600F0AD80306804AE019A10FA85F000F10801304625F075F955FA7C
:202ABC0087F0CBF38105A8F80000207C00F04007E5B3B9F1020F00D13FB9BDF810000236B3
:202ADC00A4F84400A4F8420002E0B4F8440004AEDFF86481B8F80E10884204D04FF6FF71BB
:202AFC00884240F08280032D12D104F13200314625F07AF8474C08F10301A068323022F07A
:202B1C00D9FE4649002870D094F80EB008360FE036F8020BB8F80C108842608606D04FF682
:202B3C00FF713C4C88423D495FD101E03B49394C0020B0EB9B1F22D04FEA9B10B9F1020F11
:202B5C0008D157EA05010DD136F8021BA268A2F8421007E0A1680A7C52065CBF36F8022BD6
:202B7C00A1F84220032806D1A0683146283025F03BF8284C02E03088A16808852749A088E1
:202B9C008968B9F1010F11D8D1F8AC2012786AB140F0020202F00702032A23D135B9264A9D
:202BBC00A368D289B3F8423093421ED100F00700032806D0012815D1D1F8D40090F8820004
:202BDC0080B1A068D1F848128847124E50B90020F17BB070B07BC1F3011100F078000844F4
:202BFC00B168087408F00CFCDBE516F022FC18F0EDF9D6E5074FB87815E700BF88010120AC
:202C1C00180101208D0101208EFF00208B0101208A010120AC0B0020580101200C0100202B
:202C3C00A80001209B0101209A010120900101204C96020048960200D0FF00202DE9F04F7C
:202C5C009BB0DFF808650546DFF8047530780328387040F04D81002000211822082330706F
:202C7C0038700CAC204623F07DFE2046002121F0C9FDDFF8E0B4B8603A21584624F092F96B
:202C9C004FF0FF30ABF81400CBF81000CBF80C0021F0F8FA002029461CF0E6FE07F11001C6
:202CBC00F86024F032FFD7E90502DFF8AC54B0FBF2F1C9B2032928BF03218BF80010297051
:202CDC00B2F5005F40F01281B0EB413FC0F00E81F868002800F00A814FF40050DFF880A424
:202CFC004FF00008FF22ABF80600FF208BF803208BF8058004900020079000200A900020B5
:202D1C00089000200690002005900020099000200B90FF200190FF200390FF200290CCB28F
:202D3C00A04580F0E8805FFA88F600211AAA0423304624F04BFA3046002119AAD047304621
:202D5C00012118AAD0473046022117AAD0471A996FF06F0050FA81F2C8B20E2A06D80123F9
:202D7C0003FA02F245F201131A4203D1A0F1FE02022A04D242F28352B2EB914F1AD0304652
:202D9C0013F002FD0028387040F0F080304600211AAA042324F01AFA3046002119AAD0478A
:202DBC003046012118AAD0473046022117AAD0471A99C8B208EB48020BEB8209C1F3014233
:202DDC00090A4C46FE2804F8160F61709DF86610E270A17001D3102105E0BDF864104FF654
:202DFC00FF72914223D0A9F81C109DF86210702889F81A10BDF86010A9F81E109DF85E1072
:202E1C0089F81B10BDF85C10A9F820102CD078282ED07C2830D07E2834D0FE2839D0FF28BA
:202E3C003DD10798CDF80880013007903AE012A81FF036FA304600214FF088524FF400535B
:202E5C004FF0885B4FF4005724F0C0F94FF6FC724FF0885357B3043F07EA020000F1885BEC
:202E7C00C058411CF6D024E009980130099019E005980130059015E00698CDF80C8001301B
:202E9C0006900FE00898013008901FFA88F0019008E00A98CDF8108001300A9002E00B98D7
:202EBC0001300B90297808F1010838E7DBF80000002701210126CAB2042A06D8C2B2FF2A00
:202EDC0018BF0E460131000AF5E7CBF80000A548129900684268A448904757FA86F09C4FB1
:202EFC00DFF870B2A9F81C0020787EE7012030701BB0BDE8F08F0B9800060BD10A98C0B2BA
:202F1C00012807D80998C0B2012803D80898C0B201280FD99148042200240270CAB2E0B2B0
:202F3C0090420ED213F030FC39780134084329783870F3E7079BD8B2A04219D18748002257
:202F5C00027000208BF803008BF80100481E7E218BF80200BBF81C00ABF8060000201FF088
:202F7C0071FE9BF80200FE211FF06CFE3878BFE70998000624D00A98049A000603D1029AF2
:202F9C00180600F08380754802210126D5B28BF80220017016FA82F0B0FBF4F101FB14003E
:202FBC008BF80100284613F0EFFB38702846FE211FF048FE8BF80560002000F0D7F8D5E709
:202FDC000A98049A000621D0644801218BF80220017011FA82F0039AB0FBF4F101FB140000
:202FFC0091B2FF298BF801001FD10199FF2919BF8BF8031001EB41008BF8030000EB4000C8
:20301C000BEB8000808BABF80600AFE7DDE90520104300063FF47EAF21F008F9A04280F0CC
:20303C0084804E48032101703DE048008BF8032010FA82F00BEB8000818B1829ABF8061042
:20305C0094D30739D0B212AA89B215F01DFB9DF853004007B0D53F49BDF8562000230093FA
:20307C000323C878C988891A12AA073989B206F071FF00287FF47AAFBDF8541000293FF404
:20309C0075AF9DF858001BF05BFF6FE721F0CEF80621A042314838BF03210329017002D065
:2030BC00062952D062E721F0C1F804468BF80C0000EB40000BEB8000408BABF80D000CF09F
:2030DC00FBFA29782044B0FBF1F202FB11008BF802000130C2B2B2FBF1F202FB11008BF8F3
:2030FC0001007C201FF0C8FDFF2812D17E201FF0C3FDFF280DD1FF201FF0BEFDFF2808D1DE
:20311C0078201FF0B9FD01469BF80100FF2918BF0846C1B28BF80300490051FA80F00BEB1B
:20313C008000808BABF806001BE70798000609D0DFF820B0FE219BF802001FF083FD2C7831
:20315C00029A41E7054806210170FEE7750E0020D800002040FA0020730101207F0101209A
:20317C00E1730200D8010010004003402DE9F04F9DB00446DFF8D804406818B18047002872
:20319C0000F04A82DFF8CCB4DFF8CC240A940DF1380A4FF0F8089BF80000411E002C0B9162
:2031BC0018BF0121D17392F8029002F118045178002700250D91C0B287421ED2B94517D0C8
:2031DC00FEB2002152460423304623F0FFFF0E9810F4403F40F0040018BF0135C0B27C283C
:2031FC0006D130460621F82222F080FF84F800809BF800000C340137DDE7E9B201380022D3
:20321C00DFF85474884203D17879002800F01C82DDF828A00DF154085046BAF1000F08BFA0
:20323C0010200590002001900D9E0B9D0024280400F0CE81F87B08B90120F873F0B2002197
:20325C000EAA042323F0C2FF0E98BAF1000F15D010F4403F15D04FF400509BF80010013487
:20327C00013D3882F87B0138F873012050FA86F0B0FBF1F202FB11067E73D8E7002102913C
:20329C0002E00D960B9502940026C0B2702804D00D987021C0B21FF0D5FC5FFA89F40021D4
:2032BC000EAA0423204623F091FF9DF83800FE2803D02046FE211FF0C5FC20460621FE2242
:2032DC0022F014FF4FF400500D9D07F11601BE82DF4E002287F80C900C943882FF20B87313
:2032FC00E8B232707D73400050FA85F001EB8000B0F806A060009BF8004050FA89F001EBEB
:20331C008002FE20A7F812A0FF7B114601F8020F32F8060F04910990039214A81EF0C0FF3A
:20333C0057FA85F0013890FBF4F101FB14000090099807900020CDF818A0089000200D992F
:20335C00CDB20C998D4200F09880C00740F098801FFA8AF0162871D93078002840F0568155
:20337C005F46AAF1070B28460FAA1FFA8BF4214615F08AF99DF8460096281CD1BDF84A604C
:20339C0006F11000A04216D89DF84700C10701D1800703D40020ABEB060A2CE0ABEB0600F8
:2033BC009DF8452031462B4684B2204618F0E0F920B3AAF1080B1FFA8BF01728C0F02681E7
:2033DC00ABF1160436282846424688BF2024ABEB040BA3B21FFA8BF123F0F8FE2004EAD0C6
:2033FC0018FA84F010F8010C962801D0013CF5E704EB0B0A0020964EBB46A0E7F01D83B29C
:20341C00079813FA80F1B1F5005F01D90120F2E780B28A46934918440A1A2846214623F054
:20343C00D5FE089801300890BAF5005F07BF01204FF40051514600200791ACE7089810B168
:20345C00854924F005F80098C0B2854200F0BD800D99012050FA81F09BF80010B0FBF1F2C0
:20347C0002FB11007C490D9000EB400001EB8000B0F81CA0079809905CE70C9D01240BE091
:20349C00089810B1744923F0E3FFDDF8349000240798CDF818A009903078DDF828A000281E
:2034BC0040F0B48009981021C0F50052103883B20C98C1F200121EF00FFF31780843149910
:2034DC00307066480068426865489047624F06987CB19BF800002918013991FBF0F202FBF7
:2034FC0010195FFA89F0400050FA89F007EB8000808BB882099903980C9CB7F91220012310
:20351C0087F80E9001803982797B204620F0A4FEB7F91420B97B2046022320F09DFE388A1A
:20353C00029CBAF1000FC0F5005004D005998842A4BF01210191059988424FF07C01B8BF24
:20355C0078210C9E30461FF07DFB0CF0B5F80546F87B0621FC22401BF873304622F0C6FD52
:20357C000499FC20BB7B0870B97815FA84F00D9301449BF80000B1FBF0F202FB101909F1EE
:20359C00010187F80290CAB2B2FBF0F202FB1011797003EB430107EB8101898B102906D120
:2035BC000D990131B1FBF0F202FB10100D900B98401BBAF1000F0B903FF436AE019880F05C
:2035DC000100C0077FF430AE02E0DDF800905EE77C201FF051FB0446FF2823D17E201FF021
:2035FC004BFB0446FF281DD17C7804EB440007EB8000807DFF2811D09BF80000B978014463
:20361C00013991FBF0F202FB10140BE0134814990068426812489047002215E020467E2173
:20363C001FF010FBE0B2FE21FC70400050FA84F007EB8000808BF880B8781FF003FB0020E7
:20365C007871388AC0F5005210B21DB0BDE8F08FD80000207301012040FA0020D801001019
:20367C0000400340002000112DE9F84305460C46480414D4A00023D4A0075DD4600500F193
:20369C008080200500F10781200700F13C81600040F1F78018F070FC24F08044F1E024F062
:2036BC00BDFADFF824140F6D3FB1D7E90A1202F0E04201F00A01891848D024F0B7FA5DE015
:2036DC00BC48DFF80874016841F080010160B878012804D104201FF01DFB0020B87024F026
:2036FC009DFA0646B448406D016804208847DFF8E4130A68904219D12A7EBAB1FA68AAB1FA
:20371C00DFF8C403806C002800F09880C16840F603020988914206D0C06840F6040100884A
:20373C00884240F08B8005F1140089E040F6C4120860C5E9042285E009F026FADFF88803CD
:20375C00006C002808BF24F002049AE0D7E90A65D7E90A12AA43B143C7E90A1224F066FA32
:20377C0056EA0501B86818BF002807D0D7F808C03869B7F9301032462B46E04724F48044DD
:20379C007FE024F04BFA054621F028FE002800F0B780CD48876B002F00F0B280DFF82C83A6
:2037BC000420CD49002288F81800C74821F0E9FF24F0C3F9C94824F02BFAC5480068006BF7
:2037DC008047C8F810000125042088F802501FF0C5FF386990F82810C8F80400490703D5FA
:2037FC00436A04210022984701201AF041F9D8F80400457611F05AFBD8F8040081680B4682
:20381C001A465B684BB11E88A6F60306072EF7D805FA06F616F0830FF2D0537B03F0F00315
:20383C00013353730023FD6853602D88A5F60305012D00F28A80C8F810309FE005F1100030
:20385C001CF09EFE304624F0F1F91FF09FFF78B12E6A28466FF4807100224FF00073B04735
:20387C009948806B10B118F087FB01E044F00204EE692846002100224FF08063B04724F0C5
:20389C00005434B1984821462830BDE8F84324F005BABDE8F8838D4EB078012804D104203C
:2038BC001FF038FA0020B0701FF070FF38B170686FF4807100224FF00073056AA84730690D
:2038DC0050B183480068006B804732697168801A000BC860002030617B4D82490022284651
:2038FC0021F04FFF02203076286C20B17E480221283024F0D3F918F03FFB24F40064C0E79A
:20391C0024F01BF941E024F089F9054621F066FDA0B1DFF8B88198F8000000070ED498F982
:20393C00000000280AD4684612F048FA08B1009820B1DFF8B89199F8610048B324F0FDF83B
:20395C0018F01AFB24F008049BE7034633F8385FA5B190F8445090F8456005F0F00580F880
:20397C00445006F0F005013580F8455000255360C5634587507B00F0F0005073584800226D
:20399C00C2610160012022F089F924F4806478E700260127602E11D009EB0600817A31B1E3
:2039BC008772407A07FA00F0C0B21FF0CDF92036F0E700BFCC2108408C010010032088F89F
:2039DC001800464824F024F924F0B7F8444F3E4D0022786900207861F968F8602846444963
:2039FC0021F0CFFE3A480068006B8047D8F80C10D8F82020411A02EB1130B0EB113F38BF4A
:203A1C004FF0FF3098F82410C8F8200021B1D8F80810B0EBC12F20D922F050F9B8B140F640
:203A3C000900414621F83C0F002048804A7B02F0F00201324A730A7B02F0F0020A73486067
:203A5C00F8613960B8F83E0010F4406FFAD00020C8F82000012088F824001BF099FF254818
:203A7C00002101600220002122F018F902201FF051F9102010F0A0FD98F8010020B9D8F8C0
:203A9C000400503024F002F91B48807810B90D2010F092FD98F8250028B1002088F8250044
:203ABC0005201FF037F9002088F818001348C8F81C000220B5F85610B5F85420914208BFA7
:203ADC00072017F071FC3BE7B8060020900500208C010010B40D0020D5530200C0F80020FA
:203AFC0000100440F9FF0000F805002020F60020F9BF010000000460B4950200E5F80000C6
:203B1C002DE9F04F8DB084780226142C00F216820546DFE814F02900150015004A008800CE
:203B3C001302130213021302130213021302130213021302130291009F00B200C100CF0010
:203B5C00012095F80180022C8DF8310040F0C380E878291D03288DF82C0040F0E38009A8FD
:203B7C00082223F063FBE2E010208DF82400102024F07EF898B10446DFF8CC0321466060D9
:203B9C00E81C0FF077FB8DF8240028B9204621F0A3FC8DF8240010B1204624F067F800268B
:203BBC0009AB642000210122B9E101208DF832000020CDF82A00ADF82E00CDF8260002200C
:203BDC008DF82C00E81C24F04FF8ADF824006979A8798DF82D1023F0B9FB8346E81D24F082
:203BFC0043F895F80C908046687AAC7A95F80BA04FEA49078DF83100384624F039F8002815
:203C1C0000F00681CDE9074806464FF0000805EB080047456FD00D3024F026F826F8080021
:203C3C0008F10208F3E7E8781FF05EF98DF8240009AB642004217DE1E978032900F246811B
:203C5C00281DDFE811F0040045014901510117F04DFC6AE1E81C24F007F8BA4C6668002EA1
:203C7C0000F0DA806A79002A00F0DA803368A91D184423F0DBFA0020CFE0B24EEC1C0421E6
:203C9C002046376820F02AFE002F49D0B968814200F096803F68F7E7A888ADF82400E878BB
:203CBC0009A922F011FB8DF832000DF13203642013213FE10026E878ADF8246009A921F0E4
:203CDC00B5FDBDF824000DF1320314210222ADF83200642023E1E81C02218DF82C1023F057
:203CFC00C3FFADF824000020AE1DADF82E0068798DF82D0026E0BBF1000F00F0AC80437B31
:203D1C000DF131010E30CDE90496CDE9000107985946CDE9020A09A8089A1CF0FEFA9BE040
:203D3C000120F5E0084623F09FFFADF82400287B8DF82D0005F10D0023F096FFADF82E00D6
:203D5C0005F10F06307823F001FB0546701C23F08BFF8146F07896F804A096F805B0022C3F
:203D7C008DF8320008D1B01D23F07EFF074606F1080007F10A0102E0B779F01D39463DB15F
:203D9C000A3189B2FB2905D36E4E706800286DD0022009E00DF132018DE8030C09A84A469B
:203DBC003B46294603F0A0F88DF8310008F0E000202840F0C2800DF1310364202146B9E06E
:203DDC00EC1D204623F050FF6D7A002D00F0958005F102098246484623F04AFF002800F012
:203DFC0096800026457080462A460670786800EB0A0108F1020023F019FA5FFA89F26420BB
:203E1C00122143461CF0EAFF404623F02FFF95E010208DF8320024E010208DF8240016E0DF
:203E3C00D6F800C0F38AB28A3169757EB77E06F11800CDE900C0301DCDE9025703F054F83D
:203E5C008DF82400606823F011FF0020606009AB642011216EE002208DF83200304623F0B8
:203E7C0005FF0DF132036420032163E007F11C0023F0FEFE0028706054D000F11C010C2289
:203E9C00016000208DF83100706809A9043023F0CDF970680F214FF47A720561C1769DF8CF
:203EBC003210294DC782A0F8149080F81AB080F819A001762878082123F045FE00283FF445
:203EDC0075AF2878082119F0EFF96FE702202CE0007818F01DFD28E0007823F037FA18B33B
:203EFC0022F024FF002020E023F0BEFEA97923F02BFCB0FA80F0400917E03068B84201D168
:203F1C0038683060384623F0B1FE002000E0102000262070642012210222234666701CF009
:203F3C005DFF0BE010203FE701208DF8240009AB6420102101221CF051FF002630460DB0BD
:203F5C00BDE8F08FEC0C0020720101202DE9F04F8FB00C4608040BD4A00425D4DFF87C5361
:203F7C00287802282CD1E1077CD1A10641D558E0DFF86003007819F069F990B10178DFF886
:203F9C00582305460020602808D0135C08308B42F9D1104450F8041C28468847284622F008
:203FBC0007F884F4004591E11CF09AF828B10546FCF744FE284621F0FBFF84F4005585E114
:203FDC00A1062ED4012814D8E10600F11381610600F12B81210600F13981E10500F13B8132
:203FFC00210500F13D81E10400F15081610400F15781A10700F1DE80A10500F1F6802107CF
:20401C0000F10D81610500F11581E0034FF0000540F15C811AF082FCB348C57084F48035FE
:20403C0054E1AC4F202138781CF098FFDFF8B882D8F80810084324D023F0E2FD054623F018
:20405C00ABFAD8F8081059B168434FF47A72B0FBF2F0401A4FEA500538BF6FF000458DB97D
:20407C00002570E0A44890F82C100F2906D190F82600022802D300201EF066F984F001053C
:20409C0024E1012500200421002220F029FF06464FF006094FF0FF084FF6FF7A0DF1080B8B
:2040BC00002E4DD0304604210022374620F018FF06463889401B38BF002038810004EFD13C
:2040DC00B87BD0B301280AD17889400707D4386887F80D90B721407B1BF0BAFFE0E739686C
:2040FC005A468DF80680ADF804A0086AC97F0CF0EDF801281BD1B87BB97A8DF838000907CD
:20411C00788A40F08002ADF8362006D540F4C070ADF83600387B8DF83A00786910B1007B2B
:20413C00ADF81800584601A9002202F091F9387B87F80D9015F03EF8B2E701207873AFE77B
:20415C00DFF8A481634F20F0EFFF00200121002220F0C6FE18B13878202119F0A5F80020DF
:20417C0004210022002620F0BBFEC8B306890421002220F0B5FE28B10289B1B2914228BF58
:20419C001646F4E7A8B2B1B2814224D988BF08462021401B80B24200387823F0D4FC23F004
:2041BC002FFD054623F0F8F968434FF47A71B0FBF1F615E05148007808B302AD284623F00C
:2041DC0035FC23F013FA4E490B784E490A78294619F0CAFB20E03878202119F065F8002685
:2041FC00C8F8086084F0200570E014F09FFC84F400756BE007F06AFC84F0100566E03E4809
:20421C00418B012023F02AFD2878022804D131480121007818F0ECFF84F0020556E032488B
:20423C00012184F00805817050E00BF0D1FB84F040054BE0022808BF14F0BCFE2E480121AC
:20425C00808C23F0FDFC84F480653FE022F0FEF984F080053AE020F09FFC84F4807535E065
:20427C001AF0C4F81E48007801280CD11D48007848B14FF47A7100FB01F216484FF4006184
:20429C00007823F05DFC84F400651FE01648017819B1002101701AF0A9F884F4805515E022
:2042BC001348006880B11149097801290CD180471048006800B1804706484FF480414FF478
:2042DC007A72007823F03CFC84F4804528460FB0BDE8F08F740101204C8F0200A80C00203E
:2042FC00AA0E0020A90E0020600C0020A70E0020DC090020E8090020A8F50020830E00200E
:20431C00AD0E0020AF0E00202DE9FE4F8846080426D45FEAC87004BF0020BDE8FE8FE548CF
:20433C00056823F06DFC044623F036F960434FF47A714FF6FF72B0FBF1F14FF6FF70002DF7
:20435C0000F01A812B886C88CB1A9BB29C4240F21C81E31A94B2A342B8BF1A46ED68EEE707
:20437C00DFF840A3CDF804809AF8000018F06EFF002800F0FC8006460078012840F0EC80FA
:20439C00DAF8041096F83390D6F814B096F8138021B148468847002840F0DE80718896F8AB
:2043BC003100022220F058FB0546002842D0287A297CA0F10108FF2900F0BB80707F4F46EC
:2043DC00C00718BF0027E97C287D0144B94204D8E974FF2101FA00F06874A969A87C96F8CE
:2043FC003020896A10FB0710F16A22F01FFF287D697CB7FBF0F202FB107001228240D2B2AD
:20441C000A436A74C8457CD196F83010AB7C13FB0713A9698B844FF4FF7303FA00F0C0B2A9
:20443C001043FF2868746CD1287C19F0F5FAFF2028747FE0707FC00700F08E80B07F22F022
:20445C0085FF002800F0888004461C2023F010FC002800F081801C21054622F0A3FDB07F75
:20447C0002A921F0E3F99DF8090002212875284621F064FA708896F8312096F8301096F81A
:20449C003330A880287DEA71FF2202FA00F0687460680078A9742874302013FB010080B202
:2044BC0020F00CFF0028A8615DD004461A20B11C2060708CA080A01D21F014FFF27F04F133
:2044DC003000B17F96F82830C4F81CB084F81980A062307CE273744A217563750121A07577
:2044FC00928C2282F28EA285F28C6282B6F81100A4F817009AF8000085F8089018F0D4FEE2
:20451C0055E723F07DFB044623F046F860434FF47A71B0FBF1F065492880634809780079C5
:20453C004843642148436249097800FB0100688000E04F46E87C297D6A7C01440139B942D5
:20455C0018BFC8450CD186F83300708806F11C0186F8342015F022FD304621F029FD03E734
:20457C00FF2AF9D1EFE7284621F0F8F9F4E7019880F40040BDE8FE8F92B282424BD04948D8
:20459C000121007823F0DFFA45E0A879022806D1287CFF2837D0A86921F00AFD33E023F011
:2045BC002FFB044622F0F8FF60434FF47A71B0FBF1F03F49288095F83800097888421BD2D8
:2045DC0095F83620FF2A06D195F83720013085F8380085F8362095F8351095F8394082F0F5
:2045FC00FF0300200126C7B2A7421DD206FA07F71F4214D10130F6E7EA8BA87E95F82A1051
:20461C00E9231DF0DDFA284621F0A8F925480121007818F049FE88F00100BDE8FE8FFBB2C0
:20463C0001441A4385F83620AB8F95F83440C8B204FB10339EB2A64203D2FF2285F83620F1
:20465C0002E0FF2A08D12346184A174E1278367972436426724302E095F83A2023466A80E1
:20467C002A8D0E0606D022F0200244432A852A6C224404E042F020012A6C2985297A85F87C
:20469C002E10E9796A6285F82D10D9B269840549496811B188470028B8D105F1100004F025
:2046BC009DF8B3E7CC0C0020A8F500209D0E0020A30E002044E100207FB50138072800F28B
:2046DC004A810C46DFE810F008002A0052006C0087004701A400C700CA48007801380128C4
:2046FC0000F23981002C00F045810020032100241DF046FCC54DC64E0420042132222870FE
:20471C00307823F020FA0820002106F041FA30784FF480516C7018F06BFD7FBD00200025A5
:20473C0022F01CFEBB480121017004208DF80D0074B1B548B34C45852078012803D107203E
:20475C0021F0FCFA2078022802D1062021F0F6FAAE48042132220570AD48007823F0F3F92A
:20477C00A94890F82B1001F0FE01F2E0A54800780138012800F2EF80A548042132220078A1
:20479C0023F0E1F9002C00F00F819F4C9F48012101702069002800F0EC801DF041FFF8E7C6
:2047BC000120002C8DF80D007BD0974800219B4A80F82A10984822F085FF924C2078012807
:2047DC0003D1072021F0BAFA2078022870D1062021F0B4FA6CE002208DF80D008A48002C17
:2047FC0073D000218D4A80F82A108B4822F06AFF002003211DF0C4FB824C2078012803D1EF
:20481C00072021F09BFA2078002877D1092073E07C4D00208DF80D00002C28787BD018B9C8
:20483C00092021F08BFA2878022806D10820002106F0AEF9042021F081FA13F0C1F87348EF
:20485C000021C822017070480D2180F82A10704823F008F978E005208DF80D006948007824
:20487C00022878D1002C00F0C38068480022C178C270017042F20800002106F089F962481D
:20489C000D2190F82B2080F82A10C17802F0DF02002980F82B200CBF04200D2021F04EFADC
:2048BC0059E05848007818B95748022180F82A105648002132220170554823F0D3F85248AD
:2048DC0090F82B1001F0FD0143E0082180F82A104C490978012911D890F82E0070B90020E4
:2048FC000DF10A018DF80A0052201BF07BFF22F0A9FA1CF0DFFF002021F020FA4348002177
:20491C0032220170424823F0ADF83F4890F82B1001F0FB011DE03C4C022812D194F82E00F1
:20493C0078B194F82B00002140F0200084F82B0005208DF80D00082006F02AF90A2021F030
:20495C00FDF9022084F82A002F4890F82B1001F0EF0180F82B102C480022032390F82A0041
:20497C008DF80C002A48007803A900910A211CF0B0FE7FBD244C0720254D4FF4805184F8A9
:20499C002A0001208DF80D00287818F031FC0020002620F005FA2878022141F2883284F8C8
:2049BC002B6023F0D0F8D6E7174C022000218DF80B1084F82A001548017094F82B000DF149
:2049DC000B0100F0FD0084F82B0001208DF80D0052201BF007FF22F035FA1CF06BFF00200E
:2049FC0021F0ACF920690028B5D01DF019FEF9E70548022180F82A1090F82B1041F0200174
:204A1C00A7E700BFA80C002038080020EC0001207B0101209A0E0020A8F500206E0E00202E
:204A3C0092B0DFF8D492D9F8000010B1002180F8451048301FF05AF823F0F0F8804607209A
:204A5C0010F028F816F0E6FC10B1AC4823F0EAFA19F066F801AD284622F060FC042700204A
:204A7C0029468DF8047022F061FCA54E306022F08BF80AAD284622F019FB002029468DF8CC
:204A9C00287022F01BFB9F4C206022F087F806AD284622F01BFB002029468DF8187022F047
:204ABC001DFB2168984D286019B9984823F0BAFA286810B9964823F0B5FA306810B995481C
:204ADC0023F0B0FA1BF010FAD9F800004FF0FF3658B1CDE9106610A9082221F015FB411E0B
:204AFC00D9F8002018BF114600E00021CDE9106621B18948082222F099FB17E0082023F0A9
:204B1C00B7F8D8B305460024052C04D822F04EFF28530234F8E74FF6300029460822E8805E
:204B3C007D4822F083FB284623F0A0F810AA0120082122F081FE092800D0D8B91FF076FF40
:204B5C00800712D4CDE91066CDE90E660EAB01200021082222F0F8F960B90EA810A908229C
:204B7C0021F0D2FA002800F0C0806B4A0120082122F068FE6849E2201BF034FE11F0ECFB95
:204B9C00282023F075F8654E0028306055D0644F644C07F10C0522F061FF22F0DFFA306840
:204BBC00056007F1100522F059FF5F498968D1F84C1388473068456007F1140522F04EFFC0
:204BDC001AF074FD3068856007F1180522F046FF18F0CCF93068C56007F11C0522F03EFF63
:204BFC001DF02CFF3068056107F1200522F036FF1CF0D8FE3068456107F1240522F02EFF7F
:204C1C001BF068FD3068856107F1280522F026FF21F0A0FD3068C56107F12C0522F01EFF6A
:204C3C001EF0ECFE3068056207F1300522F016FF387022F0CBF83068456217F091FB22F0AC
:204C5C003FFC404622F0F2FF16F0F2FC22F0D1FE01201CF043FB18F00DFC35480078022804
:204C7C0008D132480078012804D14FF40040012105F08EFF2A4D4FF48041287822F034FDCA
:204C9C002C484FF0FF31006823F0C8F9DFF8A8904FF0000868684FF0FF3123F0BFF93068E1
:204CBC00002750F82710096821B9791C092F0F46F7D3EFE722F0A8F9316851F827100C68E5
:204CDC00C1F8008022F00AF859F82720002021469047044622F098F9316851F827100A68FD
:204CFC0022430A6021F0FAFFD4E70B480EA9082222F09CFA3EE700BF400E0020B48F020091
:204D1C00D4000120D8000120DC000120D28F0200E58F0200F88F0200860001205001012011
:204D3C00B4040020FD2C02000C010020C20E0020A80C00202C010120CC9202002DE9F04F60
:204D5C0089B08A4608040DD45FEACA7040F01C815FEA8A7000F12A815FEA0A7000F13281AB
:204D7C00002041E1A24F387818F070FADFF88892A04C06464FF0000B48F21508002E00F0DA
:204D9C0000813078312837D0322848D0D32840F0B280F089404572D0382840F0AC80CDF8DE
:204DBC0020B0CDE906BB304606A91EF07FFD9DF81C10052967D8307B002840F09C809DF8FF
:204DDC001D000138042800F29680069821F057FE002840F09080707C88490DF1180C7870FA
:204DFC00708808809DF81D00214601388DF81D009CE80D000DC17EE0B87803287BD899F827
:204E1C002E10814821F03BFE002874D1FF207D49607170880880B088794908806BE06079DC
:204E3C00FF2814D0002015F0A9F90246B9F8701078783346CDF800B011F03EFD60790028F0
:204E5C0059D038780821322222F07DFE53E099F81810706820FA01F2D2071ABF3144097AD8
:204E7C00002106F1080200231B2B42D020FA03F5ED0702D0D55CA9421ED80133F4E730460A
:204E9C001FF0EEFE37E0FF293DD0FE2956D199F872109DF81E00884202D860BBFF292AD1B9
:204EBC001BF0C4FA069900201B2859D021FA00F2D20757D10130F7E7B9F86E004F49334695
:204EDC0008804F4802884F48018810200090002011F0F2FC0120F870B87840B93C200221ED
:204EFC004EF66022B880387822F02DFEB8780130B87084F805B0304621F05AF8387818F060
:204F1C00A5F906463AE799F872109DF81E00884203D80028EFD1FF29EDD11BF087FA069807
:204F3C0038B1D9F82810814203D0C9F8280020F015FFBDF8200021F049FCDCE7307B0028FF
:204F5C00D9D170882D49802200230880707CCDE900BBCDE902BBCDE904BB10F0A9FBCAE736
:204F7C001B2000E0C0B299F818108142C3D02749087099F80700642100FB01F238780121B4
:204F9C0062E78AF400402FE020491B4C08782076E1201BF027FC20F0E1FE0020A4F87000AF
:204FBC00012015F0EBF88AF001001DE010488188B1B101394EF6602281800078022122F0E3
:204FDC00C2FD0FE00B4C607938B12179206821F056FD10B96079013860718AF0080003E057
:204FFC00002181708AF0020009B0BDE8F08F00BF540B002028000120A8F500206200012063
:20501C007EFD00207AFA002000F8FF07770101202DE9F04F85B08846080418D4AA480078F4
:20503C00012802D85FEAC87155D15FEA88714CD4022807D1A5480078012803D15FEA4870E2
:20505C0000F188805FEA087057D400202DE1DFF860A29AF8000018F0F9F8002800F0238101
:20507C000546807FC8B9688C132816D191486E8800F11C09002049464F46002818BF071DE7
:20509C00086850B1014631F8042BB242F4D144683C6022F0EBFD2046F3E7A87A05F1020B84
:2050BC00022840F0E680DFF80C9295F83170BBF8006009F11C000068A0B10188B14202D140
:2050DC008178B94242D00430F5E77A480121017088F00200E9E07748406900B1804788F0AE
:2050FC000100E2E0D9F81C40002C57D001206168002955D001300C46F9E77148DFF8B491E1
:20511C00807BD9F81C60000760D422F079FD044622F042FA6B4A60434FF47A71B0FBF1F0BE
:20513C00D9F818101288411A91427CD3B1FBF2FB0BFB02F2511A08445F49C9F818001FFA5F
:20515C008BF00978884288BF8B4641E05A490978C170A5E05F495E4800224FF6FE73002410
:20517C000978023079B130F8025C9D4208D04588013D45802D0406BF027020F8023C012446
:20519C0001390630EEE734B1494804214FF4FA72007822F0D8FC88F0040086E000240020E0
:2051BC00464980B20988884263D2082022F060FD00285ED000210680877041603E4909784E
:2051DC00C170D9F81C1089B3606041E04FF0010B00205FFA8BF44FF0000A071D002808BFC9
:2051FC0009F11C07A6B1F078A04298BF2046A0EB0B00F07006D8756830463D6022F036FD0F
:20521C002E46EFE7716830460AF1010A0E46E4E75FEA0A4007D100200821C9F818002448BB
:20523C00007817F0E5FF88F008003EE0C9F81C002348807B00070BD422F0E2FC044622F0DC
:20525C00ABF960434FF47A71B0FBF1F0C9F818001B48807B00070CD59AF8000008211BF04C
:20527C007DFE30B91748082102889AF8000022F067FC2878022810D0012811D1297EAA8906
:20529C00EB7C05F11C006C696E7E8DE85A0005F11003594604F094FD02E0284614F0E6FF83
:2052BC00284620F085FE88F4004005B0BDE8F08F710101205C0A0020A20E0020680E0020BD
:2052DC00A8F500206C0E0020A80C0020C20E0020B4E700207D0E00202DE9FE4F0746086811
:2052FC000024B0B1D7E9018A0E4622F097FC8146D8F8E800082888BF0124B068204202D161
:20531C007068204208D003203074484622F08EFC00242046BDE8FE8FD8F8C01069B198F868
:20533C00F8100029EFD006213174D8F8C410C8F8C4604E6198F8FC100DE000210522C8E9DC
:20535C003066C8E93411C8E9361198F8FC10002908BF0122327400220129726109D102203D
:20537C004FF4E02188F8FC0098F8FB001EF0EEF8706889490138884205D804201EF0EEF92F
:20539C0006201EF0EBF902201EF0E8F998F8F80040B9DAF83C003168814203D298F8FC007C
:2053BC0000286CD0D8E9361009B118B900E028B322F05CFBDAF80000416941F00101416166
:2053DC00484622F033FC98F8F80008B10124A0E708F16C05D8F8EC10284621F09DFC00287F
:2053FC00F4D0D8F8C00003210174384609F0DCF928460021002421F08FFC8AE79AF8040002
:20541C0022F00EFC654CDAF810100222206991FAA1F1B1FA81F14368D8F8CC004068006873
:20543C0098472069DAF8141002224368D8F8CC0091FAA1F1B1FA81F14068006898479AF8CC
:20545C00040022F0E7FB9AF8040022F0EBFB22F00DFB0020C8F8E000D8F8C0000068B0F533
:20547C00806F01D922F002FB98F8FE000028A1D1DAF80000416841F0020141609AE798F8AF
:20549C00F90020B1D8F8EC0001307FF48BAF484622F0CCFBB2683AB1D8F8E8000221092814
:2054BC0038BF0121009103E008F1F40200200090746834B1D8F8E8000227092838BF0127B2
:2054DC0002E008F1F6040027DAF80000334D416841F002014160D6F800B0D946BBF1000F8C
:2054FC0040D0D8F8E800019209284FF0010011D22A68B9F1000F1FD0C0071DD02178DAF888
:20551C0000009268904700281EBF3C44A9F101090120EDE72A68B9F1000F16D0C00714D0A4
:20553C002188DAF800009268904700281EBF3C44A9F101090120EDE7DAF80000D26802A92E
:20555C009047DDE90120107007E0DAF80000D26802A99047DDE9012010800098ABF1010BC5
:20557C000244BBE7D8F8F000DAF80010CA680240102802D1002AF9D101E0002AF6D0706869
:20559C0020F082F8D8F8C0100020C8F8C400C8F8C00008741AE700BFFEFFFF0FC401001085
:2055BC002DE9F04F87B000F102098246484622F09DFA01AC06461821204621F0F3FC9AF81E
:2055DC00017004F10B00494622F00EFB02209AF80A108DF81A006FF00100ADF818000020EA
:2055FC008DF80C0001F00800890708D480B901254FF0000B00244FF00008012115E068B94D
:20561C0003214FF001084FF0000B002500240CE0022100254FF0010B002404E0042101249E
:20563C004FF0000B00254FF000088448007838430DD0834890F8260008280BD1009121F0D5
:20565C005DFD012F0AD148B14FF0C30B69E04FF0C30B01E04FF0C20B002464E09EB332791C
:20567C000098824218BF022F17D144EA0800012803D1D01EC0B2022807D34BEA0501501E82
:20569C00012917D1C1B2012914D830881FF000FCD0B93088ADF8180018E04FF0000B4946C1
:2056BC003B468DF81AB03088ADF8180022F0CAFA012437E0C0B2012802D8308822F0E0FA5E
:2056DC00484618F0CDF80026BDF818004FF6FE7188421CD11FF0E8F910B1BDF818000FE088
:2056FC0027B1584C20881FF0D3FB30B19AF80A0000F002001CF060FE00E02088ADF818006F
:20571C004FF6FE71884202D14FF0C70B09E09AF80A2049463B4622F095FA002859D04FF025
:20573C00010B0024009977B1012F11D14A48007870B9002E43D0002001228DF81A0001A84B
:20575C0013F0B8FA09E001A819F050FD76B91AE001A83A4613F0AEFAAEB17179022F41F0E8
:20577C004002727104BF41F0600171719AF80A10490603D5717941F080017171B179002511
:20579C000131B17100E00125B0FA80F149090C421CD107D1002C18BF834641F20100594674
:2057BC0014F063FD15B9484618F05AF8BDF818004FF6FE71884218BF22F062FA06E002201B
:2057DC0001228DF81A0001A813F074FA07B0BDE8F08F1D48016811B1BDF818008847BDF815
:2057FC001800009A494605F043FB0646174818490A6800784FF4803122F0A5F90121154800
:20581C00C17036B1022F0DD00099012F0FD110200AE04FF6FE7000244FF0010B0026ADF896
:20583C0018007FE7009908207279104370714FF0000B01248DF81AB075E700BF7C0B00206E
:20585C00A8F50020600E0020F00900207401012098960200600C0020A80C00202DE9F04F4D
:20587C008DB0044600209A4616460F46CDE90B00CDE909008748856880460FF06DFF262819
:20589C0003D00FF069FF25281BD1308840F60201884218BFB0F5C15F03D1F07B022810D9D0
:2058BC003EE043F6070188420BD196F82400032807D33069784940F0806020F0604088422C
:2058DC002ED100206FB366B3387825FA00F0C00726D03046002122F0C5F97048C4E9017693
:2058FC00006880B109A800900CA90BAA0AAB304609F078F80B980B214FF6FF72502320F0AC
:20591C00FDF8FF280CD022F089F9654F06467878012802D840B1012070E0304622F086F983
:20593C0000200DB0BDE8F08F09F040FE5D480DF10409016841F0020101605B48C8F8000002
:20595C00484621F0D3FCDFF864B15A494A469BF801009BF800500390554828301AF05CF940
:20597C00554856494A461AF057F9484621F0DEFBDFF84C81534A19214B46029540461BF039
:20599C00C9F8514A08F11C001A214B461BF0C2F84E484F4922F07EF84E484F4922F07AF881
:2059BC004E48006810F4402F06D04D4A07F12800042100231FF0DCFC9BF8020010B10D201B
:2059DC000FF068F808F1400021F043F808F1380021F03FF84349002007223876B8843862F5
:2059FC00386181F860200521C7E902103E49F96138700420002120F051F978782C4941F84B
:205A1C00204001307870304622F010F9BAF1000F06D10DF1040A35492022504622F0B4F9AE
:205A3C00DAE90012BAF81000DAE90635002AB2FA82F608BF40F6C4126261216060832563E5
:205A5C00760926764FF4FA76C4E9036201226276274AC4E90722C4E90923DAF80C0000B1A0
:205A7C002062DAF8140000B16062DAF8080000B1E06104F13800C82121F094FA04F1500069
:205A9C0000211FF018FB1B4904F1B80022F002F8204646E7CC2108400F000005040D00207D
:205ABC009005002000200940110000E0B4950200F8050020B1610200C8F90020B93B010069
:205ADC00B8060020F9BF0100CDA4010004F90020B1530200C0F800205D610200B44F005093
:205AFC0029EA010020F60020E5F80000789302006F2F01008D7B02002DE9F04F8DB00646CF
:205B1C00806A447874B18D4909788C4280F012818B49023022462AB130F8023B013A21F874
:205B3C00023BF8E78748C18A708988422FD183480078A04240F2FE80B589814A214628469D
:205B5C0020F07CFB284615F0B3FE064682480778BE4204D14FF6FE7015F0AAFE0646BE4268
:205B7C0080F0E880DFF8F48108EBC6094F4657F8040F08B122F07AF8002C00F0B180600042
:205B9C0022F076F80028386040F0AC80D2E0B27C002A00F0CF806A4F0025AC4205D037F834
:205BBC0015208A4203D00135F7E7A04600E0A846002113F07FF9002800F0AD8081464079CC
:205BDC00012840F0A88099F8060010F0180F00F0A280B9F80210204620F01EFCA54202D349
:205BFC00002800F098805848CDE90498B6F80C904FF6FE7A00780890544800780A90002082
:205C1C0006960B9052481130099052480430079000200C90DDE909564FF0000BF6B135F859
:205C3C00117C574518BF4F4502D1013E1C35F5E72046394620F0F0FB0028F6D128780138CD
:205C5C000528F2D80C980BF1010BC007EDD00B985FFA8BF1C0B28142E7D356E0DDE9078611
:205C7C002EB338F8047C574518BF4F4503D1013E08F12408F4E72046394620F0CDFB002878
:205C9C00F5D198F8050001380528F0D898F8000001380228EBD30C980BF1010BC007E6D085
:205CBC000B985FFA8BF1C0B28142E0D32DE00B98000628D15FEA0B6025D001205FFA8BF516
:205CDC000B90012D4FF001000C90A3D021F06EFEC0B2B0FBF5F101FB15000B90012098E7C4
:205CFC00002038601E4989F80140A9F80250097808F83610F4B1E8B1114962000DB0BDE891
:205D1C00F04F21F093BA4FF6FE770498069EDDF8148047800A4FB37CF47CB269B18901252D
:205D3C00581EB07470895FFA88F68DE8D00003950FF00AFE0DB0BDE8F08F00BFBF96020002
:205D5C00D8FE0020A8F50020CA960200B996020024C10020F0A60020A096020050970020C7
:205D7C00BB0E00202DE9F04F87B005462C200E4621F07EFF002844D0778B044621F048FC3C
:205D9C000021E1840121874208BF02212170707BA0703169081A6060204617F0B3FA3178C1
:205DBC00814F01F00301387B012908BF05206070C0B221F08BFA4FF0FF316077A182217F58
:205DDC00326908440A44317D3261081A3075E070A069013017D0207C032816D8DFE800F08D
:205DFC0002170209062021466082284615F0CAFF10B3042021466082284607F09BF8054645
:205E1C001BE01025CBE0A32517E0A12515E00020B3256082F87A80B997F8410001280CD1B6
:205E3C00A07D4FF6FF7618F019FE0025A082B04208BF6FF05E0500E000252078022807D1EF
:205E5C0004F1080620F018FF0146304621F0CCFE280640F0A180554F3878013801281AD83D
:205E7C0094F8260010B994F82700A0B1A078E178227F08441044043021F0FAFE58B1A17876
:205E9C00E2780646207F114408446168021D304621F0CCF900E0002620460DF0FDFC05461F
:205EBC0038780138012873D8002E71D0002D6FD00DF1080800274FF0010B4FF4D00908F1F9
:205EDC00080A94F8260018B994F8270000285FD0A178E278207F114408443146021D6068F6
:205EFC0021F0A4F994F8260020B184F82670C4F8129007E094F8270020B12D4884F82770F2
:205F1C00C4F8120020460DF0C7FC10B10021054639E04046142121F045F8608A8DF819B0EA
:205F3C00F0B9A08A40F20311884216D0682817D16068C17B052929D12A30FF21082220F024
:205F5C00B4FD18B34FF0FF306946CDE900001948006821F049FEFC2000E0FF208DF81800FD
:205F7C00504669460022002512F0C8FA01469DF8000038B10420142243461EF017FC0321C8
:205F9C00002500E0032103299BD101E00221FAE716B1304621F06AFE204621F067FEE8B213
:205FBC0007B0BDE8F08F00BFA8F50020A80C002000000301C40001202DE9FC47054601907C
:205FDC0007788B48C65D8B48F840ADF80260C00740F00C810D2F13D1874D0DF10201A86895
:205FFC00D0F8282453209047BDF802104FF6FD70814214D8019C208988B14FF0000A9CE0BB
:20601C000C2F0ED0072F13D0052F0ED1A878012800F0EC80287C304400F1240916E0A8683E
:20603C00BCE06868C08AC0050AD44FF0000A09E0A87848B1A87D00EBC00006EB800905E071
:20605C004FF0010AB14605E006F11B09ADF802904FF0000A48461FF031F900B30446072F69
:20607C003CD12878207068786070A878A0700028E978E170D5F8051061604FD0A87D0028FE
:20609C00207241D0A96900293ED000EBC00004F110068200304621F0C9F8E66037E00C2FE0
:2060BC0040F0A4802C4654F8040F002800F09E8021F0B4FD804650488068D0F854132046CC
:2060DC00884748461FF0FAF80446404621F0AEFD002C00F08B8021F014FC2EE021F011FC46
:2060FC00052F2AD104F1180561682422284621F09DF86169227C04F13C00656021F096F823
:20611C0060682430606118E000202072E060A86998B121F0ABFD0020A8750DE01B2004F12F
:20613C0010061B2220723046A96921F07FF8E660A86921F09BFD0020A8613048016819B17A
:20615C0020468847002846D10D2F2CD10198426811788B0720D452783F2A1DD8284AC1F3D6
:20617C008301927C914217D190F83000022813D194F8470004F146011CF09CFE01984FF65D
:20619C00FF72418E91421ED14068807902281AD3204618F07BFA48B317488068D0F85413D5
:2061BC0001A8884722E00C2F0DD1019840781A2809D0606838B1C08AC00704D0207C04F19D
:2061DC000F011CF077FEBAF1000F04D10D482146007817F021FC0C2F08D1019850F8041F13
:2061FC0021B105498968D1F85413DAE7BDE8FC87D894020019C206000C0100203C0E002073
:20621C00A8F50020740101202DE9F04F93B004461DF058F808B11120D6E0207F4FF6FE75D9
:20623C00C0B187480078810041EA401061882077FF201EF0A1FD002190B1E08A05F1010977
:20625C004FF0010B40F00400E082207F40F00100207709E04FF0000B00254FF6FE7909E0DD
:20627C004FF0000B4FF6FE7976480078022838BF01218D01678838461AF0F0FD08B10020B8
:20629C00607694F81AA0BAF1000F04D16E4890F800A084F81AA094F90000C6B2B0F1FF3F3F
:2062BC0007DDE07E40B969480178E1760131017002E006F00306267064490495C87A3043F1
:2062DC0004D1207E012804BF00202076DFF8748198F80000012833D8887B800730D5BBF1C2
:2062FC00000F1CD0E08A410606D5BAF1010F03D120F00400E08222E0A188E07E627DADF8E9
:20631C0022708DF82AA0ADF824108DF82B0006A803F08CFC00283FF47EAF26780FE038463B
:20633C001AF09CFD58B1002EDCD0206900780A2805D8012101FA00F010F4836FD2D1434979
:20635C004FF6FE75012E07D120690078022803D1E08A40F04000E08298F80000012806D890
:20637C00BBF1000F04BFE08A10F040002FD088460DF11701204605F0F3F806461FFA89F0D2
:20639C00A84208BFB4F80290EEB12078617D94F82C70B8F816209DF8173007948DF81800BB
:2063BC00608DADF81A00E08A06ACCDE90274CDE900101FFA89F130460BF0BAF9102803D144
:2063DC00304621F053FC102013B0BDE8F08F887B88468007CCD5049EA71D6188607E3A460E
:2063FC00334612F059FA28B100206076E08A40F02000E082387870B1618804F108001BF006
:20641C001DFA81466088814504BF00203870E08A40F04000E0822078012804D0A188608867
:20643C0032460EF0EFFDA188608832460CF096FB00289DD0E08A40F02000E08298E700BFD9
:20645C00A00E0020A80C0020B3960200A8F500202DE9F04F99B012AF884604461C219146EB
:20647C00384620F09FFD204639460BF0B1FA9DF8550010B99DF85C0038B19DF8480041069A
:20649C000AD560891AF0EAFC20B140F235100FF0B6F9EDE09DF84800C0F3401A00F00C0679
:2064BC0010F0200F18BF042E21D1E08D9DF8483010F080010CD15A060AD59DF849209207E8
:2064DC0006D143F0040202F00C020C2A40F0D3800025012213F0030320D0012B4DD0022B20
:2064FC0040F0C680A08912A91AF09EF9C0E0A58921F08EF8854202D1E08D010609D4A58907
:20651C0021F086F8854200F09280E08D010600F18E80000600F18080A08981E0DFF85CB12F
:20653C009BF80B30012B02D1A379002B7CD00223A7898DF84430ADF83C7099BB042E79D170
:20655C00207C514E8DF85E003068002800F0908021F05EF8874240F08B80E08D217994F843
:20657C00302036682B460492CDE9001ACDE902900FA812A94246B0477AE0002918BF012185
:20659C0052EA010003D1A08912A913F007FDA0890797ADF81800A0798DF81A0006A818F0F1
:2065BC0045F965E0ADF8300016989DF84A109DF84B208DF8203094F832300B9060898DF8FE
:2065DC002310DDF84E108DF8222094F830208DF83830ADF81800BBF82400CDF826109DF885
:2065FC005C108DF83720ADF82400207CADF82A10A17C8DF8320020798DF834109DF85F10B9
:20661C008DF833009DF85D008DF836108DF8350006A802F0E3F82BE0A089ADF86200608990
:20663C0012A91CF003FF10B14FF49A702FE74FF0010A3AE71AB912A9384613F0AFFC1148D3
:20665C000078022807D10E480078012803D1204610F0B0FC60B1A07CE17CBBF824204346BD
:20667C00CDE9001ACDE9029012A80FA90EF0B2F819B0BDE8F08F012500222BE7A8F50020C8
:20669C00C20E0020A80C00206C0A00202DE9F04F95B0074680690DF1530200214FF0000AF7
:2066BC0004789C200AF028FD81480078012809D8002004211BF04CFD9DF853105FFA80FAB8
:2066DC00014400E00121C8B24FF000088DF85310A0427ED90D1B0221E8B2022828BF0D462C
:2066FC001A206843C0B221F0C3FA0026002800F0CB80059709A95FFA85F983464FF000089B
:20671C00049006940431CDE9075102255FFA88F0484561D2E0B2824561D91EF0D9F9002899
:20673C0053D064490746888C393120F0C5FF4FF60270ABF8170038888DF82460ABF81200DF
:20675C00ADF82600B97A8BF8191009A811F096FA01460BF10A00012903D1089921F044FAF6
:20677C0003E04FF0FF3141600160387978B1514991F83810013102288BF8181019D8012843
:20679C008BF814501AD18BF81560012019E0494890F838008BF81550398800290A4618BFAF
:2067BC0001228BF8142018BF411E8BF81810002007E0012103288BF81410E4D001208BF8AF
:2067DC0015008BF816000BF11A0B013408F101089CE70025002657E0DDF81C8005E006989E
:2067FC00824534BFA0EB0A04002432480DAD4FF0020AAE1C00F139075FFA88F048453DD21F
:20681C00E1B287202A460AF077FCBDF83E00394620F052FF0BF10A00314621F0E5F9BDF851
:20683C0034002349234B012208F10108ABF812000978022938BF022293F838308BF81520E2
:20685C00A3F1010238BF4FF0FF3202294FF000018BF8182038BF01218BF817A049008BF8D9
:20687C001610002818BF01209DF846108BF8140001348BF819100BF11A0BBDE7DDE904675D
:20689C00069C079D4FF00008787CE9B29DF853300022CDE90268CDE90041B91C09F006FF9C
:2068BC0016B1304621F0E2F915B0BDE8F08F00BFA80C0020A8F50020B0B5794C20780E2862
:2068DC0045D8DFE800F0E44444530844444444444D440808080074480078D8B1A078032804
:2068FC004CD0012840F09880E0780130E070C0B2032800F28B806F484FF6FF71808C88423A
:20691C0000F088806A48012101704FF44170A4F8010081E06A480021E170017000201BF06C
