:20000000003A0120F544020039FB021039FB021039FB021039FB021039FB021039FB0210A6
:1C00200039FB021039FB021039FB021039FB021039FB021039FB021011FB021002
:20003C002DE9F04F99B0054680780224532800F2C785DFE810F054009900A800B800C80008
:20005C00DA00EA000C011B01C5052A0138015901C505C505C505C505C505C505C505C505BF
:20007C00C505C505C505C505C505C505C505C505C505C505C505650188019401A001AB01E5
:20009C00BA01D401EB0107023A02C505C505C505C505C505C505600276028C02A202B80201
:2000BC00CD02DE020303C505C505C505C505C505C50538034C036003C5056D03770395037A
:2000DC009E03AA03B603C503CF03F2030F0434043C044E045B0467048B0492049504EC1C01
:2000FC00E97A2A7B002320461DF072F88DF8180006AB65200021012221F0E0F9DFF8180BE1
:20011C000078012800F25B85204628F0AEF8002800F0558505460079012840F0508527F031
:20013C003BFE00274FF400018DF83F008DF83800000ACDF83A108DF841708DF83E708DF877
:20015C0040008DF839000EAE214606F10A0028F004F9297815223346017069788770417001
:20017C004520FF2100F029BD28F0A6F86979AA790023002423F058FF8DF838000EAB6520A1
:20019C00012100F053BC27F049FE27F0C2FF01460EA8022228F045F88DF8180006AB6520A3
:2001BC00022100F043BC27F039FE27F0B2FF01460EA8032228F035F88DF8180006AB6520C1
:2001DC00032100F033BC27F029FE27F0A2FFEA7901460EA80023002425F00EFD8DF81800A6
:2001FC0006AB6520042100F021BC27F017FE27F090FF01460EA8052228F013F88DF8180005
:20021C0006AB6520052100F011BC0020DFF8304A27F0E8FCADF85800681DA0478046E81D09
:20023C00A04795F809B0824605F10A07BBF1100F00F2AE830EAC5E46002E00F0AC8338468F
:20025C0028F0CBF824F8020B013E0237F4E727F0E5FD27F05EFF01460EA8102227F0E1FF98
:20027C008DF8180006AB65200721DFE327F0D6FD27F04FFF01460EA8112227F0D2FF8DF8B9
:20029C00180006AB65200821D0E328F015F86A7B691D0023002422F05DFC8DF838000EAB60
:2002BC0065200A21C2E302208DF8200028F004F8ADF81800681D28F090F8EA79064605F16B
:2002DC0008018DF838200EAF781C27F05DFB06A831463A46002300241FF0F4FA8DF8580096
:2002FC0016AB65200B21A1E327F0E6FF0021002421F0FCFE8DF838000EAB65200C2195E300
:20031C000020DFF83C4927F06DFCADF85800681DA047804695F80F9005F11000A04705F187
:20033C001304AD7C83460F2D00F247830EAE2F46002F00F04583204628F04FF826F8020B98
:20035C00013F0234F4E727F069FD27F052FC27F00BFB40F0468306A827F0FFFF46E327F035
:20037C005DFD27F046FC27F0FFFA40F04D8306A827F0F3FF4DE327F09FFF27F093FE8DF8D5
:20039C0038000EAB6520232100F016BCDFF88818C8208DF81800E81C0978002900F0818327
:2003BC0026F061FF8DF81800A3E36879EE1CFE280BD1A879FF2808D12878082805D330465C
:2003DC0028F00BF8314624F0B7F80EA9304626F01BFC002800F09183054600249FE3E81C31
:2003FC00042124F007FEE97928F01BF8DFF844188DF83800022027F069F8DFF83C1803203E
:20041C0027F064F80EAB65202621D5E327F04EFF044605F10E0027F0E0FF297C6A7C034694
:20043C00E878CDE90012AA1D214624F00FFBDFF800188DF83800042027F048F80EAB6520C7
:20045C002721B9E34FF00208E81C8DF8408027F0C4FFADF8380068798DF85800A81D27F0B9
:20047C00BCFF2E7A044600270935CDE9005716A80EA92246334620F07DF827F0EDFC10D185
:20049C00DFF890078DF84080CDE9005722463346C08AADF8380016A80EA920F06BF88DF80B
:2004BC00180006AB6520282186E30226E81C8DF8406027F092FF27F02CFEED7904460EA880
:2004DC00002321462A4626F087FA27F0C5FC0ED1DFF840078DF8406021462A460023C08A31
:2004FC00ADF838000EA826F077FA8DF8180006AB6520292160E327F091FCADF83800681D60
:20051C00042124F077FD6A7AAB7A0024014600940EA824F0C7FA8DF8180006AB652030215B
:20053C0084E227F07BFC27F0C2FD312201238DF8580016A8CDE90004DFF8F0060EA920F075
:20055C0019F88DF8180006AB652031216EE227F065FC27F0ACFD322201238DF8580016A8AE
:20057C00CDE90004DFF8C4060EA920F003F88DF8180006AB6520322158E227F04FFC27F069
:20059C0096FD332201238DF8580016A8CDE90004DFF898060EA91FF0EDFF8DF8180006AB69
:2005BC006520332142E227F039FCADF83800687B0024691D0094C0F3400200F001030EA839
:2005DC0021F076FD8DF8180006AB652034212DE227F024FC6A7BADF83800691D0EA80023EC
:2005FC00002424F01BFF8DF8180006AB652035211CE22C4614F8030B04281ABFE8782C1D2C
:20061C0002208DF84000204627F0E7FEDFF81866A5780121E278ADF83800002300243170C2
:20063C000EA829461DF042FE8DF818002846347024F030FF06AB65203621F7E127F03CFE84
:20065C00ADF83800687904218DF84000A81D24F0D1FC0446AE7AEF7A05F10C0027F0BDFE81
:20067C00DFF8B0850546214632463B4627F090FA0EA81FF05BFF27F0EFFB10D1022021467C
:20069C0032463B468DF84000B8F81600ADF8380027F07EFA0EA81FF049FF8DF8180006ABF3
:2006BC006520372188E26C7827F006FE0146DFF8740500781FF0E0F88DF8380004F0E00051
:2006DC00202840F07C820EAB65203E2174E26C7827F0F2FD0146DFF84C05007820F032FC86
:2006FC008DF8380004F0E000202840F068820EAB65203F2160E200206C788DF83800DFF873
:20071C0018050078411E022980F09481022095E127F0D2FD27F0C6FC8DF838000EAB6520C7
:20073C00422149E2002006908DF83D00CDF83900E81C06A925F072FA8DF83800069850B109
:20075C0027F02DFA81788DF83B10C1788DF83C1000798DF83D000EAB6520432106222CE259
:20077C00E81C26F080FD8DF838000EAB6520442122E227F0A1FD6979AA790DF0C9FF8DF85E
:20079C0038000EAB6520452116E227F095FD6979AA7919F0FDFE8DF838000EAB6520462155
:2007BC000AE2EC7827F082FD0146204621F034FDB0FA80F0472140098DF838000EABC1E165
:2007DC00E87800248DF8384022F034FA0EAB652047212BE1E8780EA925F044FA06468DF84F
:2007FC00180040000130C5B2284627F0FAFD002800F0A381044600F8016B00219DF8182089
:20081C00914280F0BE809DF83830013100F8023B9DF8393000F8013CF2E70EAC1321204677
:20083C0026F05EFFEE7827F041FD0146304624F059FE002800F088810021231D8DF83810F7
:20085C0027F0ADF9C11C827818468DF83B2027F09BF87CE10020EC78CDF84600CDF842000D
:20087C00CDF83E00CDF83A0027F020FDAA79ADF838000F2A28BF0F228DF83A2022B10EA86D
:20089C00E91D033027F080F80EA9204601221CF00FF88DF8180006AB65204B218CE126F05F
:2008BC006FFE8DF838000EAB65204C2184E1E87829798DF838100EA9032800F05F81022837
:2008DC0000F06281012840F06681522020F07EFB64E127F0F1FC69790246A81D1AF012FC9E
:2008FC008DF838000EAB65204E2165E127F0E4FC0146687919F0C8F98DF838000EAB652048
:20091C004F2159E1C34D0822E88A05F13901ADF83800C24800788DF83A00A88CADF83B0003
:20093C00688BADF83D000EACE01D27F02DF804F10F0005F11C01082227F026F8287E502146
:20095C00182223468DF84F00652036E1B2480078002800F0018112200AE11FF033FD2EE1F1
:20097C0000208DF83800E878010606D5A94910F07F0018BF012081F868000EAB6520532140
:20099C001AE1652049212A46234620F097FD39E180208DF863003E78102E52D80DF11809F5
:2009BC00013734464D46002C4DD0384627F015FD25F8020B013C0237F5E780208DF86300E2
:2009DC0027780F2F54D801340DF1180A3E46002E50D0204627F001FD2AF8020B013E0234AC
:2009FC00F5E7084627F0F9FCADF81800687E06A926F0C2FF0EA921201AF00EFD8DF8580092
:200A1C0016AB6520212111E0084627F0E6FCADF81800687E06A926F0AFFF0EA922201AF0E1
:200A3C00FBFC8DF8580016AB65202221012220F045FDC5E0002840F0B580042008F038FF43
:200A5C00B3E080200DE0BBF1100F0CD80EA9002052465B468DE84202039016A8414614F006
:200A7C0025FD8DF863000DF1630365200621A3E080200FE00F2D0FD80EA9002002974A460B
:200A9C005B46CDE9005106A9CDE9031016A8414614F0B4FC8DF863000DF16303652020210F
:200ABC008AE016A90EAD2A4618F09CF804469DF85800F0B1614904EB4400002641F8206096
:200ADC0001EB800046609DF94B00B0F1FF3F03DC05F1130021F0D6FD0EAD1421284626F0E8
:200AFC00FFFD0420214614222B4624F0EBF98DF8186006AB652024215EE0182027F071FC42
:200B1C00002800F083800446BDF8380000211822234626F0CBFD0546002818BFC825192055
:200B3C0027F05FFC002867D007460130002D4BD01821FF2226F0CEFD50E0002049218DF888
:200B5C00180006AB652037E001208DF838000EAB65204A21132230E027F0AEFB044605F148
:200B7C000D0027F03AFC0246691D204623F0B0FF8DF838000EAB652051211DE0522020F01D
:200B9C0025FA2748002104E0522020F01FFA24480121017002E0522023F0F2FF0EAB652076
:200BBC004D2109E001208DF8380004F0E000202805D10EAB65204021012220F07FFC002481
:200BDC00204619B0BDE8F08F3146082226F0DCFE07F109002146102226F0D6FE65202521C6
:200BFC0019223B463D7020F069FC3846192126F077FD384627F0F3FB002CE0D020461821BB
:200C1C0026F06EFD204627F0EAFBD8E7C825FFF7E4BB00BF782C0120A80C0020A80D002067
:200C3C00C40E002060380120850E00200C0D0020D1520200A55702000D480100F0F5002083
:200C5C00F78302002DE9F04F99B080466FF00700DFF8DCA80630ADF852009AF800000228EE
:200C7C0014D1DFF8C808007880B9B8F8080010B11020012101E0302000210AF061FC002087
:200C9C008DF81C0007A9522020F0A0F90DF11C0998F80810D8F804004A460FF0E1FFE8B125
:200CBC009DF81E609DF81F409DF82050BDF8267027F06CF8844211D127F003004FF6F871D6
:200CDC0080B288420AD0012D08D8022E06D29AF80000022808D19DF84D0028B1D32013F0C6
:200CFC0034FA19B0BDE8F08FB8F82800ADF84800B8F83200ADF82A009DF82200D0B1D8F83F
:200D1C0004109DF81D209DF83830012025F002FE08B1CF20E3E7DFF81C08C078012809D1F6
:200D3C00B8F8280027F045FA20B1417901F0E701083141719DF8210068B1BDF82610FF2041
:200D5C0024F0D0FB9DF82110E0B141F001012C268DF8211017E09DF83900002800F0EB80BE
:200D7C009DF83D10FF2902D0002940F02681DFF8C807BDF82620C18A8A4240F027810120CA
:200D9C00222607E0082601F00300012808BF46F0110601209AF800104FF6F877012908D828
:200DBC003446B20758BF64F07F04002808BF344600E034469DF82200DFF87C575FFA84FBFA
:200DDC0030B9E87A20B10BF02200222840F080801BF0400004901CD0012903D8A87B8007CA
:200DFC0000F1D880119801780C2900F2DB80012241F298438A401A4200F0D480032902D150
:200E1C0040780D2805D007A821F008F801283FF468AFA88CB8F8441081420AD198F84620F5
:200E3C00B8F84210B8F8280000230093002307F00BFF9DF82200F8B1B8F84210B8F82800A8
:200E5C0021F0BCFA002800F08F800646D8F804009DF81D10F2780844417B8A421EBF002269
:200E7C007260F1700130042124F0C4F871688842FFF437AF013070609AF80000022834D2BE
:200E9C00A87B80077FF52DAF9DF84D004FF6F87660B1BDF8280025F035FF002800F00781D0
:200EBC00D8F80400417801F0DF0141709DF82E00002800F0DF80D8F80400817901398171D3
:200EDC008DF82E1004F07F00090640F0D680D3E00BF0420042287FF41CAF1198007800F082
:200EFC00FE0006287FF415AF72E77FF4FAAE95F82600092802D004287FF4F3AE5FEA8B60D5
:200F1C0000F19E80049800283FF4EBAE11989DF838100078042808BF022900F04581072815
:200F3C0008BF042900F009810C2840F04D8107A814F076FED5E6BDF8260021F067FC02388A
:200F5C00DFF8F415B0FA80F0CA8A4109BDF82600904208BF023100293FD09DF81E20002A01
:200F7C0056D001F1400455E09DF84D00B8B3042024F046FD00283FF4B4AE01464FF4B27093
:200F9C000880B8F828004880DFF8B00500781DF059F8A6E611980178A1F10C0212F10C0F3F
:200FBC003FF62CAFE88ABDF8262082427FF496AEBDF8280022F0A0FE90E6109A9DF83C009F
:200FDC001FF016FF30B101200026E3E690F826000428F8D100260020DCE600241AE095F88A
:200FFC006C0001287FF448AF11980078062803D1049800287FF440AFF81DBDF82A1080B257
:20101C0081423FF46EAE07A841461DF0DBFA68E601F1200421F0FAFB0138B0FA80F0400984
:20103C0044EA00069DF81E0000283FF4B2AE1198007825F0A3FE012818BF04F07E06A8E615
:20105C0098F8460026F081FD9DF82E00012840F0B480B8F82800BDF82810814240F0AD80D5
:20107C00BDF8260021F0D2FB022804BF00208DF82E00A2E004F07F000446210702D44FF05F
:20109C00000A34E0E1B24A0722D4C9069DF8211028D5C1F3820212B1072A18BF013A002A42
:2010BC0008BF044601F0E30040EA820118E0D32013F04BF8DFF888040078002800F09F803F
:2010DC00DFF8801451F82000C0EB0010810098E09DF8210000F0E00100F0E30040EAD10116
:2010FC008DF82110D8F804004FF4805A017295F82600092801D0042823D1E98ABDF8260097
:20111C0088420AD021F082FB022806D09DF8210000F0030001287FF4E4AD9DF81E000028D0
:20113C0047D011989DF838100078042808BF02293AD0072848D1042946D107A817F0DEF93D
:20115C00CFE5E7B214F0610F46D0F80709D0B8F8281007A8A94614F0ADFF002864D004F03E
:20117C009F040025E7B2A00609D598F84600D8F83C2026F0EAFC07A815A905F073FD780620
:20119C0040F12681B8F8281007A80DF152022B460FF0E2FD00286FD0054611980078012827
:2011BC0008BF4AF0100A13E107A9002010F0D0FC97E598F8460026F0C8FCD8F83C2007A861
:2011DC0015A905F04FFD8CE503287FF48AAD07A800210FF0CFFA84E59DF81E0001285AD1A6
:2011FC0011980078032849D0052854D1B8F8281007A80DF1520200230FF0AEFD71E5D148F7
:20121C000168D1480268BDF82800904701287FF468ADCE480168BDF828008847CC480168B9
:20123C00BDF8280088475CE524F0ACFF9DF82E100546BDF8280019B9B8F82810884291D006
:20125C00B9F81610814204D1BA48807800283FF489AFB8F8281007A82A4609F08DFA0028C7
:20127C0000F09B8038074AF0040ABDF8260048BFF01DADF8520075E70025A9E0BDF82600F5
:20129C0025F040FD38B1B8F8281007A80DF1520200230FF061FD9DF82E0088B322F070FB13
:2012BC0000287FF41EAD9DF83900A0B3109A9DF83C009DF83D101FF09BFD002870D09DF88A
:2012DC003D00002875D0109926F041FF9DF82430ADF8520011209DF823209DF821104AF060
:2012FC00400A002B08BF0920002A18BF0830002918BF0130D8F804100A5C013A0A5462E0DE
:20131C009DF81E0001287FF47EAE1198007803283FF4E7AC77E69DF82010BDF826000029FE
:20133C00ADF8520000F0D3804020BDF8261009F11D0200EAC4059DF820002B4618F02CF9ED
:20135C0038B1D8F804004AF0200A017801F03F0101709DF8390048B1BDF8261009F1200069
:20137C0020F03EFD4AF0400AADF852009DF81E00012806D0BDF82810BDF82600002214F0EB
:20139C00F7FABDF82810BDF826002A4612F0AAF8002818BF4AF0200A15E004F0DF04E0E66F
:2013BC00BDF82610BDF828000B22002319F038FE97E4BDF82600ADF8520026F0FAFE002837
:2013DC0008BF4AF0400A24F0DDFE05464FF6F876B01DBDF8521080B20F1A5E4818BF2F4688
:2013FC000078012805D1F01DB8F8321080B281422FD160B2B0F1FF3F3FF773AC002F3FF4BE
:20141C0070ACB8F8080026F0ECFF00283FF469ACB8F80820D8F80410054626F0B5FA9DF80A
:20143C001E10002098F80830B8F8282016908DF85410BDF8521015ACCDE9007ACDE902042F
:20145C00284610F045F970B3284626F0C8FFFFF748BCB8F828108142CBD0701CBDF826208F
:20147C0080B28242C5D2BDF828008142C1D026F0A0FE0028BDD0017901390129B9D84088F2
:20149C0001218DF85410ADF8600015AD28461DF087FD0028ADD0281D1CF0CCFC0028A8D001
:2014BC0020F08EFDA5E72348407800283FF419AC00208DF81870ADF81900DDF826004FEA87
:2014DC003040059005A826F0E7F8FFF70ABC39073FF52AAF9DF81E1001293FF425AF00212B
:2014FC0018F01AF820B1407901380228FFF41CAFB8F84410BDF8520020F060FF30B18078B8
:20151C0025F070F801380728FFF40EAFBDF8280025F0F8FB18B104208DF8200004E7BDF803
:20153C002610BDF8280002223FE700BFC40E0020A80C0020600C0020782C012062380120A1
:20155C00B60E002038990200EC090020F4090020F0090020C20E00202DE9F0438DB00546AC
:20157C0080780224252800F27380DFE810F02600A400C400D700EA00F8000601B602B6027A
:20159C001D012E01B602B602B602B602B60246014B01B602B602540158016101B602B602C7
:2015BC00B602B602B602B602B602B602B6026B016E017101740178017F01DFF8D475002408
:2015DC000E258DF804403878012807D801A81CF09BF804469DF8040005EB4005EEB23046C5
:2015FC0026F0FFFE002800F087824FF000080546431C0021082280F80080012026F056F8E2
:20161C0026F0CAFB6872000A0721A872DFF88405E972007828733878012800F262829DF89B
:20163C000420002A6A7300F05E8205F10E0000212346914280F0578213F8022B013100F887
:20165C00022B13F8012C00F8012C9DF80420F0E7A0F140010D291FD8DFE811F00E0010016E
:20167C003F023F021E012E013F023F023A014501500165013F02740101ACE91C0822201DF5
:20169C0026F082F9204619F013FABDF806004021ADF828000AABEEE0632800F069816428C4
:2016BC0000F07681E02840F0188200244720E021002200230FE2202026F093FE002800F094
:2016DC00C1812021FF22044626F004F8631C01200021082225F0EAFF0546002818BF012595
:2016FC0001AB84200021042225F0E0FF002800F00582023506E2E81C26F06FFEADF8040055
:20171C00832026F09EFD014601AA832026F070FC8DF828000AAB6720022190E1E81C04219C
:20173C0023F068FC0190842026F08BFD014601AA842026F05DFC8DF828000AAB6720032131
:20175C007DE1612026F07DFD0146EA1C612026F04FFC8DF8040001AB672004216FE162201C
:20177C0026F06FFD0146EA1C622026F041FC8DF8040001AB6720052161E100208DF80400DC
:20179C00E81C26F02AFE6A7900F4F851002A00F04981B1F5A06F04D04FF6FF71884240F0AF
:2017BC004B814FF0FF3045E126F0E3FD044626F0B7FAD949604301ACB0FBF1F1204626F02B
:2017DC008AFD672009210422ABE0DFF8B4632D79306840B901AC204626F09BF9012021469A
:2017FC000EF08AF83060052D00F06981002D00F06981642120F09AFF66E115F8032B672073
:20181C0010216EE0E87822F0EFFA8DF8040001AB6720112113E100246720142102E000240A
:20183C0067201521ADF80840019401AB062252E100246720162109228DF80C40CDE901446D
:20185C0001AB48E1F52020210BE0F520212108E0F520222105E04FF6F570232108E0F520EF
:20187C0024218DF8040001AB6720E8E0F5202521ADF8040001AB67200222E1E0E81C26F04D
:20189C00ACFDADF8060001AC204616F0F3FD231D672041210822D3E0E81C0AA925F0B4F950
:2018BC0000288DF8040000F0CF8001A81821FF22013025F00FFFF4E0E81C0AA925F0A4F988
:2018DC0000288DF8040000F0F1804FF0FF30EFE015F8030F697820F00DFF288067204821E9
:2018FC0002222B46ACE0E87823F0A8FC01AC014620461CF045FA6720492111E0EC1C20469F
:20191C0024F0BEFE002818BF2046B5F80B1018F05FFC01AC014620461CF032FA67204A21C7
:20193C00242223468CE001ACE91C0822204626F02BF8204625F0DEFD8DF828000AAB6720B6
:20195C004B217CE04FF0FF3095F80380691D0190ADF81000CDE90200FE208DF80600287957
:20197C0003288DF8300020D10AA826F0F6FC21E00024E91C08228DF8284001AD284626F04D
:20199C0003F828461CF056FA0AAB67206321A1E0B5F80B006A7B0024E91C8DF8044009F09D
:2019BC003FFF01AB6720642194E0084626F015FDADF82800AF7B002F00F0DD807E0095F8AD
:2019DC000D90304626F00DFD002800F0D48005F10F013246044625F0D7FF00940AA94046CC
:2019FC004A463B460DF074F9002800F0BA80837801784278057946798DF806308DF804103F
:201A1C008DF80520C3788DF809608DF808508DF8073001A98B1D811D40794200184625F0E0
:201A3C00B3FFA5E0B1F5A06F03D04FF6FF71884202D100205549086001AB672006210122D6
:201A5C001FF03CFD002448E0182026F0CAFC40B3BDF828100446009006200022182323F072
:201A7C001BFAB8B9BDF8285001AE21461022701C25F08AFF444F05EB450506F1110057F801
:201A9C00251026F028FC07EB8500416806F1150026F021FC2046182125F022FE204626F00C
:201ABC009EFC01AB672044211922C9E7BDF82800ADF8050001AB672045210322C0E7314987
:201ADC0001220A7020F099F8002467200A218DF8044001AB01221FF0F1FC20460DB0BDE87A
:201AFC00F08385F80D806720002132462B461FF0E5FC284626F073FC7CBBA3E7019800BAC5
:201B1C00C4F809000AAB83200021022225F0CEFD20B1043506E000BF40420F00BDF828004A
:201B3C00A4F80D0004F10F0361200021012225F0BDFD002818BF083504F11003622000215E
:201B5C00102225F0B3FD002818BF1035234625706720012120221FF0B1FC204626F03FFCD2
:201B7C0070E74FF6FF70ADF808006FF480300190204626F034FC01AB67204D210E225FE72A
:201B9C00F4370120820E002028330120D4370120A80C0020A80D00202DE9F04F85B0847856
:201BBC000226362C00F2BE820546DFE814F06C01740172007C017800BB02BB0281003700BC
:201BDC004C008C009F00AD00BB02B5009001BB02BB029A01AD01BB01BB02BB02BB02BB024F
:201BFC00BB02BB02BB0237004C00BB02BB02BB02BB02BB02BB02BB02BB02BB02BB02BB02F0
:201C1C00BB02BB02BB02BB02BB02BB02BB02BD00EB00CB01FF005B005B00DB0126F040FB27
:201C3C00242840F0AA8102AB352000210422002425F03CFD002800F0FC81012002228DF8C7
:201C5C0010000020FCE100208DF8100026F028FB0646092C40F0ED8095F8059095F806801A
:201C7C000720EFE0DFF82465306880B1406A70B102A926F01EFB0546342C40F02C8228468D
:201C9C0026F0ABFB002800F02582042041E203203FE2DFF80835612002210A223FE202AC6F
:201CBC00E220214622F06CFF61200421082288E126F0F6FA0446681D26F08FFB242C40F0F4
:201CDC0087810020FBE1E878032800F29781281D26F083FB0246E878DFF8B81431F81010E2
:201CFC00DFF8B404007826F0F3FA88E1E878032800F28981DFF89C1431F81010DFF898048B
:201D1C0000781BF015FE7FE126F017FAADF8080002AB61200C2103E1002661200E210122A5
:201D3C008DF8086002AB1BE2DFF8606401208DF810003068002800F02C810069002800F0C1
:201D5C00288102A926F0B5FA042123F053F9002800F0EC81044626F044FB002800F01C81F1
:201D7C002146054625F0BCFC3068BDF80C1022462B4606690298B0478DF81000284626F06D
:201D9C002EFB09E1DFF804442068002800F008818069002800F0048102A926F08AFA206879
:201DBC00BDF80C10826902989047FAE0DFF8DC733868002800F0FB80C069002800F0F780EF
:201DDC0002A926F076FA9DF80850BDF80AB0BDF80C90044626F001FBA6788046F72E28BFBD
:201DFC006FF00806B01C5FFA80FA504626F0F9FA002800F09D81012D044608BFBBF1000FEC
:201E1C0000F09A813868A11CF3B24246C569029800914946A8470746002840F0938100275A
:201E3C006120332152462346667027701FF046FB88E1681D26F0D1FA8146E81D26F0CDFA7B
:201E5C008046092002AF242E18BF2F1808BF3526304609EB080526F0F4F9854201D90220F7
:201E7C0057E1B9F1000F04D1304641463A4621F069F8304641463A4626F0BAF8002800F034
:201E9C00E5800A2045E1E878012802D0002840F0488125F0E1FD40F259600121ADF8080048
:201EBC0002AB61203CE00120EC1C8DF80800E22021461FF08BF830B901200821224626F05A
:201EDC0097F88DF8080002AB6120032126E1E878291D012800F0E180002840F0E580E02094
:201EFC00DFE026F0DDF90446681D26F076FA242C0FBF00200146204626F056F98DF80800E9
:201F1C0002AB6120122109E126F0CAF924280CBF002026F096F9ADF8080002AB6120132196
:201F3C000222FCE0E8788DF8080099488068D0F8302402A9E02090478DF8100004AB61206C
:201F5C001421EBE0914C206898B3806A88B302A926F0AFF92068BDF80C10826A0298904771
:201F7C00014627E0894C206868B3C06858B326F097F92168C968884726E08046693800268A
:201F9C0080B2032838BF0126681D082C40D1057841E003208DF8100004AB61203021BDE06C
:201FBC0003208DF8100004AB61203121B6E00327CDE0002102AC204626F08DF961203221B9
:201FDC0004222346ABE0032026F09EF83621A5E005F10806ED790146A8426CD920460022B8
:201FFC0026F000F809288DF808006AD1002D68D020462946324625F0FBFF62E0022026F083
:20201C0083F80A218AE0022026F07EF80B2185E026F0E3F90546404626F013F90227A8425D
:20203C0088BF7700CFB100268DF808706120214692E002988DF810400422ADF8120002205B
:20205C008DF8110004AB6120082168E0012E62D1E22039461EF0BAFF5BE0471BB8B2F7285D
:20207C0028BFF727B81CC6B2304626F0BAF9002860D01FFA87FB00F10209824648465946D0
:20209C0025F02EFB404629465A464B4625F00EFB0546002867D00A2770E00878022814D2E7
:2020BC0052201EF093FF00E002208DF8080002AB61200F2132E02046324625F093FF8DF8E9
:2020DC00080002AB6120072128E002A9522022F057FDECE702359DF8080015F8018BBDF806
:2020FC000C7001280ED1BDF80A0058B9384641462A4620F027FF012F04D1E22029461EF041
:20211C0065FF01273068394642462B46466A0298B0478DF8100004AB6120214601221FF068
:20213C00CDF90026304605B0BDE8F08F052031E710270CE0102776E7A9F169000328BFF473
:20215C0061AE0227204626F04AF9002FE9D000268DF80870612033218DF8096002AB0222CD
:20217C001FF0ACF9DEE78AF80170002761202146324653468AF800701FF0A0F9504626F071
:20219C002EF9002D7FF44FAFCBE700BF400E00200C010020D09D0200603801206C9D02001F
:2021BC002DE9F04F8FB00C4648070FD4200441D4E00400F19781200600F1C081A00700F1D5
:2021DC00D481200500F1F3810020B4E1DFF820050178062900F2AD81DFE811F00700940127
:2021FC00AB01AB019901AB01A001DFF81055DFF804152A7891F82B30022A02D19E0600F13E
:20221C0098815E0700F19D819B0740F192810423037091F82C30DB0700F08B8191F82E30EB
:20223C00002B00F0528224F085FA0420012102F08FFA57E2DFF8C8040394DFF8BCB4DFF8AE
:20225C00B094DFF8C474DFF8AC44DFF8B054DFF8BCA448F20208008802909BF800001BF03A
:20227C0095FB002800F03A8106460078D3282DD1F089404540F019813878002800F01581FC
:20229C0099F80000012840F0108125F0DDFA002840F00B817088002840F00781A24604AC67
:2022BC001221204625F01CFA25F0B2FD3046214617F09CFEBDF81C00B0F5285FC0F0888047
:2022DC00012002211EF02EFA54462AE099F80010884217D1012834D0032840F0E6802878E3
:2022FC000138012800F2E180B078012851D0002840F0DB807078002800F0BF8000201CF07D
:20231C008FFFD2E00A2811D194F82B00BA46B71C3071A16909B138468847384623F002FF7F
:20233C005746DFF8D853DFF8E4A3BEE02978002940F0BB80092840F0B880A168B01C884774
:20235C00B3E028780138012800F2AF80707860B194F8330094F83410013084F83300C0B2D1
:20237C00884202D9012000219DE099F80100032858D0022871D0012840F097803878002845
:20239C0000F08C8025F060FA002800F09280012085E07078002875D025F0FEFC4FF6FE71EE
:2023BC00884203D1BAF81600884207D0AAF81610ADF8281053200AA91EF008FE1DF0BCFC56
:2023DC0023F010FF00208AF826001CF01FFC6CE0CF48006809A90AAA16F004FC07460298B2
:2023FC005446C64DDFF824A3874212D29DF8380010B1FD208DF838000420394614220AABD3
:20241C0022F060FDC34907EB470001EB8000012141720020012184F83200012002F098F917
:20243C00B94F42E0A2460AACAB20002122461BF0D5FC042004945446DFF8D0A2AF4D8DF868
:20245C00140004A80FF0A0FA25F0E2FC9BF800004FF4805141F288321DE0012020714FF48E
:20247C008060ADF828000AA818F0E8FA25F0D0FCA4484FF4805102680BE00FF0D5FF606925
:20249C0098B9A2E702204FF4805140F6B83289F802009BF8000025F01BFF06E0002084F829
:2024BC0032000120012102F053F9304624F024F9D3E694F8350020B1E0690028F5D080475E
:2024DC00F3E70020002102220023ADF8280002208DF830000AA824F07FFAB5E7039880F4F0
:2024FC00004028E0854800780138012859D88048017803294DD0012953D1417800201EF0E1
:20251C0011F94EE0012001211EF00CF911E024F011F90420012102F01BF90AE00021322257
:20253C000170744880F82A1073480421007825F0CFFE84F004000FB0BDE8F08F84F0800017
:20255C00F9E70522027091F82C2092072CD591F82E204ABB052202600120487000201BF00E
:20257C00FBFA022023F090FBE3E764480078013801280BD80020CDE90A000AA812F0F0F9DA
:20259C0020B15D48022100781AF002FD84F00200D1E78178022904D10121817000201EF09D
:2025BC009DF884F48050C6E705200021B3E753480078002840F08680DFF838A1DAF80C5046
:2025DC00002D79D004A80DF1280B01300BF104060390002D6DD0A87A18B10138A872000614
:2025FC0046D19AF83180B8F1000F11D00020A91C08228DF82800304625F0C6F9584618F020
:20261C0057FA28B12A88BDF82A00314622F060FAAF1C0DF127015A46384616F0E3FA814647
:20263C00384609A921F09FFFB8F1000F05D09DF8380040F0020002281CD1DAF80800A0B1D1
:20265C0003983946082225F09FF9022000220C238DF81000BDF82400ADF81A0026480078E7
:20267C0004A9009109211FF006FB28461DF0C2F9ED68AEE7384622F0FCFC9DF82700012839
:20269C00DBD15846142125F02BF8224A09EB490000215B4642F8201002EB8000142241604E
:2026BC004172FF2049468DF83800042022F00AFCC3E7DAF80C0028B90F484FF400610078C8
:2026DC001BF036F984F4006035E7013A012A09D8032202600120487001201BF03DFA012085
:2026FC0023F0D2FA287800287FF423AF04205CE7D83701203808002069380120A80C002045
:20271C00169E0200480E0020990E0020782C0120B0370120F0F500202DE9F04F89B020F03A
:20273C004DFBDFF810158122DFF81485DFF814A5DFF82045DFF814E50A70DFF8FC140860C1
:20275C00DFF8F804FF2101700020DFF80415A8F800008AF80000DFF8F0040968007891F88A
:20277C0008B04FF6FE718EF8000059448AB2A168D1F80031DB899A4200F267810422DFF858
:20279C00DC54A8F80020DFF8D02412689668330ECEF80C60C6F301592B706FF0FF0303EA7B
:2027BC001627B3B2D1F8B86047EA1327AEF8047036781EB9B9F1020F00F04781B9F1030F41
:2027DC0000F043811B0A03F0070316B1002B00F03C81DFF88CC4042B9CF800C008BFBCF14A
:2027FC00000F00F032813EB1DFF878643678862E02D1022B40F02981BB0416D4BBB203F024
:20281C000703022B08BFBCF1000F20D0DFF854140978862909D10020764620F007FBDFF8E4
:20283C004004B64690F800C0307800284ED0BCF1000F4BD1012800F0088103283FD0022828
:20285C0044D1BEF80400400740F0FF803EE0D1F8D40090F88300022800F080802746052025
:20287C00147BF246A946A8F8000025F090FD0546DFF8F003007886286DD1B868016C0968CD
:20289C0011B9D0F84C05804760B20021002625F0EEFDB9680A6C12685077086C0068867768
:2028BC00086C0068C477284625F079FDBAF8041099F8000001F010011CF0FCF94EE0BEF8AE
:2028DC00040000F00700032840F0BF80BEF80400010700F1BA80810402D4810500F1B58053
:2028FC009EF80E20C2F38107012F00F0AE809609012E00F0AA80B9F1010F11D840F00201AF
:20291C0001F0070103290BD117B93F2A40F29D8037B9A168D1F8AC100978002900F09580E5
:20293C004FF6FB71B9F1020F0BEB010C19D1CF4BD95D9B5D03EB01090023402AB7FA87F22B
:20295C0038BF012352091A40430616D4002A08BF09F1020915E0284625F021FD24F01CF9A3
:20297C0075E0C14B402AD95D9B5D03EB010908D3420648BFA9F1020903E0002A18BF4FF058
:20299C000209C0F300205FFA89F11FFA8CF30A1A8EF801009A4258DC60440391B346401A8C
:2029BC00A168AEF806007430D1F8501280B28847A6490028886048D07421CDE9019724F068
:2029DC008FFEA24F0020B870A548007820B9387900F020008AF8000078789AF80010DFF82B
:2029FC0078C24FF000092E4600299A493DD000284FF000003AD1B88800F00700032807D001
:202A1C00012832D18868D0F8D40090F8820060B3C8684069007818B124F0D6FCFE280DD0C2
:202A3C008C488068D0F84C02804738B989488068D0F844028047002800F0F780834F0120E0
:202A5C00B870DFF814C22E4610E024F0E7FA25F09EFC814900240A6813681C7112680A6031
:202A7C0025F09DFC09B0BDE8F08F0020BC6804F1740184F830B06160A1657978BB88FA8828
:202A9C000029A381029B228184F83A30337808BF994697F80EB084F84990019DA4F85C20FE
:202ABC00FF22B8F80030A273CBF301195E1A797BA8F8006001F0780160F3820101EB09006B
:202ADC002074280600F0AE80DCF8000004AF039A10FA86F000F10801384625F00FFD56FA6D
:202AFC0085F0CBF38105A8F80000207C00F04008CDB3B9F1020F06D1B8F1000F03D0B4F844
:202B1C00440004AF06E0BDF810000237A4F84400A4F84200564EF189884203D04FF6FF7190
:202B3C0088425ED1032D11D104F13200394625F014FC464CF11CA068323023F080FA45497F
:202B5C0000284ED094F80EB008370EE037F8020BB1898842608606D04FF6FF713B4C88429A
:202B7C003C493ED101E03B49384CBBF1400F20D3B9F1020F06D16DB9B8F1000F0AD1334808
:202B9C00806803E0A068017C490603D439880237A0F84210BBF1C00F06D32C4C3946A0686C
:202BBC00283025F0DAFB03E0284C3888A168088528498968A088D1F8AC201278B2B1B9F154
:202BDC00020F13D200F00700012802D003282FD11E4C6DB9264AA368D289B3F8423093426E
:202BFC0006D017F040FA18F0F7FC30E700F00700032806D0012815D1D1F8D40090F88200E2
:202C1C0080B1A068D1F848128847104A50B90020D17B9070907BC1F3011100F07800084419
:202C3C009168087408F064FF11E7084FB87808E7064CDDE776380120043801207B38012024
:202C5C00863701207938012078380120AC0B0020443801200C010020983701208938012064
:202C7C00883801207E380120C49D0200C09D0200C03601202DE9F04F9BB0DFF81885054648
:202C9C00DFF8146598F800000328307040F04F81002000211822082388F8000030700CACEF
:202CBC00204624F003FA2046002122F037F9DFF8EC94B0603A21484624F012FD4FF0FF30D7
:202CDC00A9F81400C9F81000C9F80C0021F03AFE002029461DF056FA06F11001F06025F0E3
:202CFC00D3FAD6E90502DFF8B874B0FBF2F1C9B2032928BF032189F800103970B2F5005FA2
:202D1C0040F01281B0EB413FC0F00E81F068002800F00A814FF40050FF224FF000084FF045
:202D3C00885BA9F80600FF2089F8032089F8058004900020079000200A9000200890002047
:202D5C000690002005900020099000200B90FF200190FF200390FF200290CCB2A04580F0B2
:202D7C00E9805FFA88F600211AAA0423304624F0DBFDDFF834443046002119AAA047304683
:202D9C00012118AAA0473046022117AAA0471A996FF06F0050FA81F2C8B20E2A06D8012319
:202DBC0003FA02F245F201131A4203D1A0F1FE02022A04D242F28352B2EB914F1ED030460E
:202DDC0014F0E2F8DFF8D0130028087040F0D280304600211AAA042324F0A6FDDFF8C84302
:202DFC003046002119AAA0473046012118AAA0473046022117AAA0471A99C8B208EB48028A
:202E1C00CA463D4609EB8209C1F30142090A4C46FD2804F8160F61709DF86610E270A17063
:202E3C0001D9102135E0BDF864104FF6FF7291422FD112A81FF05AFD304600214FF08852D4
:202E5C004FF400534FF4005724F06EFD6FF0030313FA87F7B8B250F80B104A1C01D1032887
:202E7C00F6D801220126D3B2042B06D8CBB2FF2B18BF16460132090AF5E740F80B10CB482A
:202E9C00129900684268CA48904757FA86F081B22078A9F81C109DF86210702889F81A10C7
:202EBC00BDF86010A9F81E109DF85E1089F81B10BDF85C10A9F8201011D07828D14614D0E5
:202EDC007C282F4616D07E281AD0FE281FD0FF2823D10798CDF808800130079020E00998C2
:202EFC00D1462F46013009901AE005982F460130059015E00698CDF80C80013006900FE0F4
:202F1C000898013008901FFA88F0019008E00A98CDF8108001300A9002E00B9801300B900F
:202F3C00397808F1010818E7012088F800001BB0BDE8F08F0B98984E00060BD10A98C0B2B4
:202F5C00012807D80998C0B2012803D80898C0B2012811D99348042200240270CAB2E0B26C
:202F7C00904210D214F010F831780134084339783070F3E7884E1BE0079BD8B2A04219D158
:202F9C00884800220270002089F8030089F80100481E7E2189F80200B9F81C00A9F806008F
:202FBC00002020F0ADF999F80200FE2120F0A8F93078BCE70998000624D00A98049A000690
:202FDC0003D1029A180600F08480764802210127D5B289F80220017017FA82F0B0FBF4F19C
:202FFC0001FB140089F80100284613F0CDFF30702846FE2120F084F989F80570002000F026
:20301C00D9F8D5E70A98049A000621D06548012189F80220017011FA82F0039AB0FBF4F143
:20303C0001FB140091B2FF2989F801001FD10199FF2919BF89F8031001EB410089F80300A8
:20305C0000EB400009EB8000808BA9F80600AFE7DDE90520104300063FF47CAF21F046FC78
:20307C00A04280F085804F48032101703EE0480089F8032010FA82F009EB8000818B18296A
:20309C00A9F8061094D30739D0B212AA89B215F06FFE9DF853004007B0D5B9F80610BDF89B
:2030BC005620002399F8030000930323891A12AA073989B207F0CAF900287FF479AFBDF802
:2030DC00541000293FF474AF9DF858001CF0CAFA6EE721F00BFC0621A042324838BF032129
:2030FC000329017002D0062952D061E721F0FEFB054689F80C0000EB400009EB8000408B60
:20311C00A9F80D000CF09CFE39782844B0FBF1F202FB110089F802000130C2B2B2FBF1F2DE
:20313C0002FB110089F801007C2020F003F9FF2812D17E2020F0FEF8FF280DD1FF2020F059
:20315C00F9F8FF2808D1782020F0F4F8014699F80100FF2918BF0846C1B289F80300490068
:20317C0051FA80F009EB8000808BA9F806001AE70798000609D099F80200FE213C46374622
:20319C0020F0BEF82478029A40E7064806210170FEE700BF790E0020D80000201031012063
:2031BC00613801206D3801203D7B0200D8010010004003402DE9F04F9BB00446DFF808057F
:2031DC00406818B18047002800F03C82DFF8FC04DFF8FCB40B940DF1300A4FF0F8080078D9
:2031FC00411E002C099118BF01218BF80F109BF802900BF118049BF80110002700250A912B
:20321C00C0B287421FD2B94517D0FEB2002152460423304624F088FB0C9810F4403F40F08D
:20323C00040018BF0135C0B27C2806D130460621F82223F0F1FA84F80080DFF890040C3418
:20325C0001370078DCE7E9B201380022884204D19BF80500002800F03282DDF82CA05046AF
:20327C00BAF1000F08BF1020049013AF00200390DDE909560024280400F0E6819BF80F000A
:20329C0010B901208BF80F00F0B200210CAA04234FF0000824F048FB0C98BAF1000F1DD00D
:2032BC0010F4403F17D04FF40050DFF820140134013DABF810009BF80F00097801388BF8E5
:2032DC000F00012050FA86F0B0FBF1F202FB11068BF80D60CFE7A046CDE90956C0B20A9D86
:2032FC000024702803D0E8B2702120F009F85FFA89F600210CAA0423304624F015FB9DF8E2
:20331C003000FE2803D03046FE211FF0F9FF30460621FE2223F080FA4FF400500BF11601DC
:20333C008BF80C908BF80D50ABF814405A46ABF81000FF208BF80E00E8B2400050FA85F0DF
:20335C00D57B01EB8000B0F806B0DF4804707000A2F812B050FA89F001EB8003FE20194621
:20337C0001F8020F33F8060F02910790D7480193047812A81FF0BAFA0A980A9A089655FADE
:20339C0080F0013890FBF4F101FB14000090D5B20A92B54200F04A81A81BB0FA80F040095D
:2033BC000590002006900020C00740F093801FFA8BF0162871D9C4480078002840F03C81C7
:2033DC00ABF1070A28460DAA1FFA8AF4214615F0CFFCBDF8426006F11000A0421AD89DF86A
:2033FC003E00962816D19DF83F00C10701D1800703D40020AAEB060B2CE0AAEB06009DF800
:20341C003D2031462B4684B2204618F0EFFC20B3ABF1080A1FFA8AF01728C0F00D81AAF190
:20343C001604362828463A4688BF2024AAEB040AA3B21FFA8AF124F077FA2004EAD017FA7F
:20345C0084F010F8010C962801D0013CF5E704EB0A0B0020DDF82CA0A6E7F01D83B20798EC
:20347C0013FA80F1B1F5005F01D90120F2E780B28B469A4918440A1A2846214624F054FA3C
:20349C00069801300690BBF5005F07BF01204FF40051594600200791ACE7069810B18C4903
:2034BC0024F08BFB0098C0B2854200F0C2800A990120089E50FA81F084490978B0FBF1F252
:2034DC0002FB1102824902EB420001EB8000B0F81CB05CE7069810B17D4924F06EFB0020E1
:2034FC00DDF828900590784C2078002840F0A48007981021C0F50052103883B20898C1F20F
:20351C0000121FF00FFA217808431299207071480068426870489047059888B16B480078EB
:20353C002918013991FBF0F202FB101968495FFA89F0400050FA89F001EB8000B0F81CB0FA
:20355C0063480799089C0123A0F814B08346018280F80E900198BBF9122001809BF80D10CE
:20357C00204621F0D9F9BBF914209BF80E102046022321F0D1F9BBF81000BAF1000FC0F5B5
:20359C00005004D004998842A4BF01210391049988424FF07C01B8BF7821089C20461FF01F
:2035BC00AFFE0CF04DFC05469BF80F000621FC22401B8BF80F00204623F02EF90299FC2087
:2035DC009BF80E3008709BF8021015FA88F00A9301443E480078B1FBF0F202FB101909F1CC
:2035FC0001018BF80290CAB2B2FBF0F202FB10118BF8011003EB43010BEB8101898B1029E4
:20361C0006D10A990131B1FBF0F202FB10100A900998401BBAF1000F09903FF429AE0398A9
:20363C0080F00100C0077FF423AE0DE00120354658E7DDF8009056E726481299006842685D
:20365C002548904700223AE07C201FF073FE0446FF281DD17E201FF06DFE0446FF2817D1E2
:20367C009BF8014004EB44000BEB8000807DFF280AD016489BF8021000780144013991FB2D
:20369C00F0F202FB101403E020467E211FF038FEE0B2FE218BF80340400050FA84F00BEB73
:2036BC008000808BABF806009BF802001FF028FE00208BF80500BBF81000C0F5005210B2BC
:2036DC001BB0BDE8F08F00BFD80000206138012010310120D801001000400340002000116F
:2036FC002DE9F84305460C46480414D4A00023D4A0075DD4600500F18080200500F1078129
:20371C00200700F13C81600040F1F78018F0A4FF24F08044F1E024F03AFEDFF824140F6D85
:20373C003FB1D7E90A1202F0E04201F00A01891848D024F034FE5DE0BC48DFF80874016895
:20375C0041F080010160B878012804D104201FF03FFE0020B87024F01AFE0646B448406D33
:20377C00016804208847DFF8E4130A68904219D12A7EBAB1FA68AAB1DFF8C403806C002853
:20379C0000F09880C16840F603020988914206D0C06840F604010088884240F08B8005F181
:2037BC00140089E040F6C4120860C5E9042285E009F0C4FEDFF88803006C002808BF24F037
:2037DC0002049AE0D7E90A65D7E90A12AA43B143C7E90A1224F0E3FD56EA0501B86818BF64
:2037FC00002807D0D7F808C03869B7F9301032462B46E04724F480447FE024F0C8FD054617
:20381C0022F08EF9002800F0B780CD48876B002F00F0B280DFF82C830420CD49002288F8EA
:20383C001800C74822F061FB24F04CFDC94824F0A8FDC5480068006B8047C8F81000012513
:20385C00042088F8025020F0FFFA386990F82810C8F80400490703D5436A0421002298472D
:20387C0001201AF01BFCD8F80400457611F0D4FFD8F8040081680B461A465B684BB11E88B4
:20389C00A6F60306072EF7D805FA06F616F0830FF2D0537B03F0F003013353730023FD68D8
:2038BC0053602D88A5F60305012D00F28A80C8F810309FE005F110001DF078FA304624F029
:2038DC006EFD20F0D9FA78B12E6A28466FF4807100224FF00073B0479948806B10B118F09B
:2038FC00BBFE01E044F00204EE692846002100224FF08063B04724F0005434B19848214623
:20391C002830BDE8F84324F084BDBDE8F8838D4EB078012804D104201FF05AFD0020B07013
:20393C0020F0AAFA38B170686FF4807100224FF00073056AA847306950B183480068006B38
:20395C00804732697168801A000BC860002030617B4D82490022284622F0C7FA02203076D4
:20397C00286C20B17E480221283024F052FD18F073FE24F40064C0E724F0A4FC41E024F09D
:20399C0006FD054622F0CCF8A0B1DFF8B88198F8000000070ED498F9000000280AD46846C8
:2039BC0012F072FD08B1009820B1DFF8B89199F8610048B324F086FC18F04EFE24F0080441
:2039DC009BE7034633F8385FA5B190F8445090F8456005F0F00580F8445006F0F005013588
:2039FC0080F8455000255360C5634587507B00F0F000507358480022C2610160012022F0EB
:203A1C00E1FC24F4806478E700260127602E11D009EB0600817A31B18772407A07FA00F01A
:203A3C00C0B21FF0EFFC2036F0E700BFCC2108408C010010032088F81800464824F0A1FC46
:203A5C0024F040FC444F3E4D0022786900207861F968F8602846444922F047FA3A480068EF
:203A7C00006B8047D8F80C10D8F82020411A02EB1130B0EB113F38BF4FF0FF3098F824105F
:203A9C00C8F8200021B1D8F80810B0EBC12F20D922F0A8FCB8B140F60900414621F83C0FA3
:203ABC00002048804A7B02F0F00201324A730A7B02F0F0020A734860F8613960B8F83E00FB
:203ADC0010F4406FFAD00020C8F82000012088F824001CF0EBFA2548002101600220002165
:203AFC0022F070FC02201FF073FC102011F070FA98F8010020B9D8F80400503024F081FCA2
:203B1C001B48807810B90D2011F062FA98F8250028B1002088F8250005201FF059FC0020DF
:203B3C0088F818001348C8F81C000220B5F85610B5F85420914208BF072017F073FF3BE7E8
:203B5C00BC060020940500208C010010B40D0020195B0200902F01200010044091080100EC
:203B7C00FC050020F02C0120D9C6010000000460309D02006D0001002DE9F04F8DB08478FC
:203B9C000226142C00F21F820546DFE814F02900150015004A0085001C021C021C021C025E
:203BBC001C021C021C021C021C021C021C028E009C00AF00BE00CC0001206A78022C8DF8FE
:203BDC003100089240F0C080E878291D03288DF82C0040F0E18009A8082223F0D5FEE0E0FA
:203BFC0010208DF82400102024F0FBFB98B10446DFF8E00321466060E81C0FF0D1FE8DF8CB
:203C1C00240028B9204622F01BF88DF8240010B1204624F0E4FB002609AB64200021012293
:203C3C00C2E10020CDF82A00ADF82E00CDF8260002208DF82C00E81C24F0CFFBADF824007A
:203C5C006979A8798DF82D1023F02EFF8346E81D24F0C3FB95F80C908046687AAC7A95F81F
:203C7C000BA04FEA49078DF83100384624F0B9FB002800F01081CDE9074806464FF00008B7
:203C9C0005EB0800474570D00D3024F0A6FB26F8080008F10208F3E7E8781FF083FC8DF8DC
:203CBC00240009AB6420042189E1E978032900F25281281DDFE811F00400510155015D0194
:203CDC0017F052FF76E1E81C24F087FBC04C6668002E00F0E4806A79002A00F0E480336827
:203CFC00A91D184423F050FE0020D9E0B84EEC1C04212046376821F07DF9002F4AD0B96823
:203D1C00814200F0A0803F68F7E7A888ADF82400E87809A922F08AFE8DF832000DF13203A0
:203D3C00642013214BE10026E878ADF8246009A922F052F9BDF824000DF132031421022260
:203D5C00ADF8320064202FE1E81C02218DF82C1024F043FBADF82400002005F10608ADF810
:203D7C002E0068798DF82D0026E0BBF1000F00F0B580437B0DF131010E30CDE90496CDE94E
:203D9C00000107985946CDE9020A09A8089A1CF075FEA4E0012000E1084624F01EFBADF88E
:203DBC002400287B8DF82D0005F10D0024F015FBADF82E0005F10F0898F8000023F074FE52
:203DDC00054608F1010024F008FB98F8036098F804A098F805B08146022C8DF8326009D119
:203DFC0008F1060024F0F9FA074608F1080007F10A0104E098F8067008F1070039464DB1E9
:203E1C000A3189B2FB2907D3DFF8C481D8F8040000286ED0022009E00DF132018DE8030CFC
:203E3C0009A84A463B46294604F052F9089E8DF8310006F0E000202840F0C4800DF13103D6
:203E5C0064202146BBE0EC1D204624F0C6FA6D7A002D00F0978005F102098246484624F0F7
:203E7C00C0FA002800F098800026457080462A460670786800EB0A0108F1020023F084FD50
:203E9C005FFA89F26420122143461DF017FB404624F0A5FA97E010208DF8320024E0102008
:203EBC008DF8240016E0D6F800C0F38AB28A3169757EB77E06F11800CDE900C0301DCDE9B6
:203EDC00025704F005F98DF82400606824F087FA0020606009AB6420112170E002208DF834
:203EFC003200304624F07BFA0DF132036420032165E007F11C0024F074FA0028C8F80400D3
:203F1C0055D000F11C010C22016000208DF83100D8F8040009A9043023F036FDD8F8040019
:203F3C000F214FF47A7205612A4DC17680F81AB080F819A00676C782A0F8149008212878B5
:203F5C0024F0C6F9089E00283FF473AF2878082119F01EF86DE702202CE0007819F048F824
:203F7C0028E0007823F0A0FD18B323F087FA002020E024F032FAA97923F0AAFFB0FA80F03E
:203F9C00400917E03068B84201D138683060384624F025FA002000E0102000262070642016
:203FBC0012210222234666701DF088FA0BE010203CE701208DF8240009AB6420102101222C
:203FDC001DF07CFA002630460DB0BDE8F08F00BFEC0C0020603801202DE9F04F8FB00C464F
:203FFC0008040CD4A00426D4DFF88853287802282DD1E10740F00181A10641D558E0DFF83B
:20401C006C03007819F0C2FC90B10178DFF8602305460020602808D0135C08308B42F9D1B9
:20403C00104450F8041C28468847284622F064FB84F4004595E11CF005FC28B10546FCF735
:20405C0001FE284622F058FB84F4005589E1A1062ED4012814D8E10600F11781610600F1B5
:20407C002F81210600F13D81E10500F13F81210500F14181E10400F15481610400F15B8151
:20409C00A10700F1E080A10500F1FA80210700F11181610500F11981E0034FF0000540F106
:2040BC0060811AF0A5FFB648C57084F4803558E1AE4F202138781DF081FADFF8C482012503
:2040DC00D8F80810084317D024F053F9054623F027FE68434FF47A71B0FBF1F0D8F808107A
:2040FC00401A4FEA500538BF6FF00045002908BF0D46002D00F0C28000200421002221F007
:20411C00A5FA06464FF0060A4FF0FF094FF6FF780DF1080B002E4DD03046042100223746B0
:20413C0021F094FA06463889401B38BF002038810004EFD1B87BD0B301280AD178894007C6
:20415C0007D4386887F80DA0B721407B1CF032FBE0E739685A468DF80690ADF80480086A12
:20417C00C97F0CF07DFD01281BD1B87BB97A8DF838000907788A40F08002ADF8362006D593
:20419C0040F4C070ADF83600387B8DF83A00786910B1007BADF81800584601A9002202F01C
:2041BC0061FD387B87F80DA015F076FBB2E701207873AFE7DFF8C8816C4F21F057FB002097
:2041DC000121002221F042FA18B13878202118F0DFFE002004210022002621F037FA00289C
:2041FC0047D006890421002221F030FAA0B10289B1B2914228BF1646F4E7654890F82C10DA
:20421C000F2906D190F82600022802D300201FF0EBFD84F00105A4E0A8B2B1B2814223D935
:20423C00D6FA55F0202180B24200387824F050F824F09FF8054623F073FD68434FF47A713A
:20425C00B0FBF1F615E05348007818B302AD284623F0B3FF23F08EFD4F490B784F490A7828
:20427C00294619F097FE22E03878202118F090FE0026C8F8086084F0200572E000259CE7AB
:20429C0014F086FF84F400756BE008F0F7F884F0100566E03E48418B012024F098F82878D4
:2042BC00022804D131480121007819F041FB84F0020556E03248012184F00805817050E09C
:2042DC000BF04AFF84F040054BE0022808BF15F0E3F92F480121808C24F06BF884F480654F
:2042FC003FE022F057FD84F080053AE021F00AF884F4807535E01AF08DFB204800780128DA
:20431C000CD11D48007848B14FF47A7100FB01F216484FF40061007823F0D7FF84F4006572
:20433C001FE01748017819B1002101701AF072FB84F4805515E01448006880B111490978A5
:20435C0001290CD180471148006800B1804707484FF480414FF47A72007823F0B6FF84F400
:20437C00804528460FB0BDE8F08F00BF62380120C4960200A80C0020AB0E0020AC0E0020AE
:20439C00600C0020A90E0020DC090020E8090020782C0120870E0020AF0E0020B10E002052
:2043BC002DE9FE4F8846080426D45FEAC87004BF0020BDE8FE8FE548056823F0DAFF044644
:2043DC0023F0AEFC60434FF47A714FF6FF72B0FBF1F14FF6FF70002D00F01A812B886C88DD
:2043FC00CB1A9BB29C4240F21C81E31A94B2A342B8BF1A46ED68EEE7DFF840A3CDF8048096
:20441C009AF8000019F0C2FA002800F0FC8006460078012840F0EC80DAF8041096F83390D5
:20443C00D6F814B096F8138021B148468847002840F0DE80718896F83100022220F0C2FE1C
:20445C000546002842D0287A297CA0F10108FF2900F0BB80707F4F46C00718BF0027E97CD9
:20447C00287D0144B94204D8E974FF2101FA00F06874A969A87C96F83020896A10FB0710F2
:20449C00F16A23F081FA287D697CB7FBF0F202FB107001228240D2B20A436A74C8457CD18E
:2044BC0096F83010AB7C13FB0713A9698B844FF4FF7303FA00F0C0B21043FF2868746CD1FB
:2044DC00287C19F0BFFDFF2028747FE0707FC00700F08E80B07F23F0E7FA002800F0888046
:2044FC0004461C2023F07DFF002800F081801C21054623F0F5F8B07F02A921F06DFD9DF800
:20451C00090002212875284621F0BCFD708896F8312096F8301096F83330A880287DEA71C0
:20453C00FF2202FA00F0687460680078A9742874302013FB010080B221F062FA0028A8614E
:20455C005DD004461A20B11C2060708CA080A01D22F07AFAF27F04F13000B17F96F8283036
:20457C00C4F81CB084F81980A062307CE273744A217563750121A075928C2282F28EA285B3
:20459C00F28C6282B6F81100A4F817009AF8000085F8089018F0FCFC55E723F0EAFE044603
:2045BC0023F0BEFB60434FF47A71B0FBF1F065492880634809780079484364214843624975
:2045DC00097800FB0100688000E04F46E87C297D6A7C01440139B94218BFFF2A0CD186F820
:2045FC003300708806F11C0186F8342016F0EBF9304622F081F803E7C845F9D1EFE728469E
:20461C0021F050FDF4E7019880F40040BDE8FE8F92B282424BD049480121007823F058FE0F
:20463C0045E0A879022806D1287CFF2837D0A86922F062F833E023F09CFE044623F070FB40
:20465C0060434FF47A71B0FBF1F03F49288095F83800097888421BD295F83620FF2A06D1D1
:20467C0095F83720013085F8380085F8362095F8351095F8394082F0FF0300200126C7B275
:20469C00A7421DD206FA07F71F4214D10130F6E7EA8BA87E95F82A10E9231DF081FD28466D
:2046BC0021F000FD25480121007818F071FC88F00100BDE8FE8FFBB201441A4385F8362087
:2046DC00AB8F95F83440C8B204FB10339EB2A64203D2FF2285F8362002E0FF2A08D1234679
:2046FC00184A174E1278367972436426724302E095F83A2023466A802A8D0E0606D022F0DB
:20471C00200244432A852A6C224404E042F020012A6C2985297A85F82E10E9796A6285F8A5
:20473C002D10D9B269840549496811B188470028B8D105F1100004F071FBB3E7CC0C00206F
:20475C00782C01209F0E0020A50E0020C41701207FB50138072800F24C810C46DFE810F068
:20477C0008002C0054006E0089004901A600C900CB4800780138012800F23B81002C00F02E
:20479C0047810020032100241DF0EAFEC64DC74E0420042132222870307823F099FD082002
:2047BC00002106F0CDFE30786C704FF4805104B0BDE8704019F0BCB80020002523F07CF910
:2047DC00BB480121017004208DF80D0074B1B548B34C45852078012803D1072021F032FE89
:2047FC002078022802D1062021F02CFEAE48042132220570AD48007823F06AFDA94890F863
:20481C002B1001F0FE01F2E0A54800780138012800F2EF80A54804213222007823F058FD11
:20483C00002C00F00F819F4C9F48012101702069002800F0EC801EF019FAF8E70120002CF1
:20485C008DF80D007BD0974800219B4A80F82A10984823F0F5FA924C2078012803D107204C
:20487C0021F0F0FD2078022870D1062021F0EAFD6CE002208DF80D008A48002C73D000219B
:20489C008D4A80F82A108B4823F0DAFA002003211DF066FE824C2078012803D1072021F069
:2048BC00D1FD2078002877D1092073E07C4D00208DF80D00002C28787BD018B9092021F0ED
:2048DC00C1FD2878022806D10820002106F038FE042021F0B7FD10F0D5FB73480021C82269
:2048FC00017070480D2180F82A10704823F081FC78E005208DF80D0069480078022878D1A0
:20491C00002C00F0C38068480022C178C270017042F20800002106F013FE62480D2190F8AA
:20493C002B2080F82A10C17802F0DF02002980F82B200CBF04200D2021F084FD59E05848DF
:20495C00007818B95748022180F82A105648002132220170554823F04CFC524890F82B10A5
:20497C0001F0FD0143E0082180F82A104C490978012911D890F82E0070B900200DF10A01FD
:20499C008DF80A0052201CF021FB22F00DFE1DF081FA002021F056FD434800213222017038
:2049BC00424823F026FC3F4890F82B1001F0FB011DE03C4C022812D194F82E0078B194F8E4
:2049DC002B00002140F0200084F82B0005208DF80D00082006F0B4FD0A2021F033FD022065
:2049FC0084F82A002F4890F82B1001F0EF0180F82B102C480022032390F82A008DF80C0028
:204A1C002A48007803A900910A211DF034F97FBD244C0720254D4FF4805184F82A000120CE
:204A3C008DF80D00287818F083FF0020002620F06DFD2878022141F2883284F82B6023F014
:204A5C0047FCD6E7174C022000218DF80B1084F82A001548017094F82B000DF10B0100F0CF
:204A7C00FD0084F82B0001208DF80D0052201CF0ADFA22F099FD1DF00DFA002021F0E2FCD3
:204A9C0020690028B5D01EF0F1F8F9E70548022180F82A1090F82B1041F02001A7E700BF69
:204ABC00A80C002038080020D8370120693801209C0E0020782C0120720E002092B0DFF86C
:204ADC00D492D9F8000010B1002180F8451048301FF09AFB23F05BFC8046072010F036FC2F
:204AFC0016F0D6FF10B1AC4823F056FE19F02EFB01AD284622F0B8FF0427002029468DF84D
:204B1C00047022F0B9FFA54C206022F0EFFB0AAD284622F071FE002029468DF8287022F06A
:204B3C0073FE9F4E306022F0EBFB06AD284622F073FE002029468DF8187022F075FE316815
:204B5C00984D286019B9984823F026FE286810B9964823F021FE206810B9954823F01CFE1F
:204B7C001BF050FDD9F800004FF0FF3438B1CDE9104410A9082221F05DFE01281BD1CDE971
:204B9C001044082023F02DFC002846D005460026052E04D823F0D1FAA8530236F8E74FF64E
:204BBC00300029460822E880824822F0EDFE284623F015FC09E0D9F80010CDE91044002952
:204BDC00DFD07C48082222F0DFFE10AA0120082123F008FA092800D0D8B920F0DDFA800714
:204BFC0012D4CDE91044CDE90E440EAB01200021082222F05BFD60B90EA810A9082221F04F
:204C1C0019FE002800F0C0806A4A0120082123F0EFF96849E2201CF0D9F911F051FF2820E6
:204C3C0023F0DFFB644E0028306055D0634F644C07F10C0523F0D9FA22F03EFE3068056040
:204C5C0007F1100523F0D1FA5E498968D1F84C1388473068456007F1140523F0C6FA1BF092
:204C7C0091F83068856007F1180523F0BEFA18F01DFD3068C56007F11C0523F0B6FA1EF069
:204C9C003BFA3068056107F1200523F0AEFA1DF079F93068456107F1240523F0A6FA1CF050
:204CBC000DF93068856107F1280523F09EFA22F0F5F83068C56107F12C0523F096FA1FF0EC
:204CDC002BFA3068056207F1300523F08EFA387022F02EFC3068456217F0E4FE22F0B3FFFC
:204CFC00404623F05CFB16F0E1FF23F049FA01201CF004FE18F002FF34480078022808D13D
:204D1C0031480078012804D14FF40040012106F017FC2A4D4FF48041287823F0A3F82C489D
:204D3C004FF0FF31006823F033FDDFF8A8904FF0000868684FF0FF3123F02AFD30680027AF
:204D5C0050F82710096821B9791C092F0F46F7D3EFE722F000FD316851F827100C68C1F856
:204D7C00008022F063FB59F82720002021469047044622F0F0FC316851F827100A682243F9
:204D9C000A6022F053FBD4E70A480EA9082222F0FBFD3EE7400E002084970200C03701206D
:204DBC00C4370120C8370120A2970200B5970200C8970200763701203C380120B804002072
:204DDC00B93302000C010020C40E0020A80C0020183801204C9A02002DE9F04F89B08A461F
:204DFC0008040DD45FEACA7040F01D815FEA8A7000F12B815FEA0A7000F13381002042E1CE
:204E1C00A24F387818F0C2FDDFF88892A04C06464FF0000B48F21508002E00F001813078FC
:204E3C00312838D0322849D0D32840F0B380F089404573D0382840F0AD80CDF820B0CDE9DB
:204E5C0006BB304606A91FF0BFF89DF81C10052968D8307B002840F09D809DF81D00002861
:204E7C0000F09880052800F29580069822F0CFF9002840F08F80707C8749787070880880D7
:204E9C009DF81D00214601388DF81D0006A890E82C002CC17EE0B87803287BD899F82E10E8
:204EBC00804822F0B4F9002874D1FF207C49607170880880B088794908806BE06079FF28E0
:204EDC0014D0002015F008FD0246B9F8701078783346CDF800B012F03BF96079002859D0F1
:204EFC0038780821322223F0F3F953E099F81810706820FA01F2D2071ABF3144097A0021CE
:204F1C0006F1080200231B2B42D020FA03F5ED0702D0D55CA9421ED80133F4E7304620F07A
:204F3C0055FA37E0FF293DD0FE2956D199F872109DF81E00884202D860BBFF292AD11BF0B9
:204F5C0047FE069900201B2859D021FA00F2D20757D10130F7E7B9F86E004F4933460880F0
:204F7C004E4802884E48018810200090002012F0EFF80120F870B87840B93C2002214EF698
:204F9C006022B880387823F0A3F9B8780130B87084F805B0304621F0AFFB387818F0F6FC47
:204FBC00064639E799F872109DF81E00884203D80028EFD1FF29EDD11BF00AFE069838B196
:204FDC00D9F82810814203D0C9F8280021F04AFABDF8200021F09EFFDCE7307B0028D9D115
:204FFC0070882D49802200230880707CCDE900BBCDE902BBCDE904BB10F0B6FFCAE71B20F4
:20501C0000E0C0B299F818108142C3D02649087099F80700642100FB01F23878012162E706
:20503C008AF400402FE020491A4C08782076E1201BF0CCFF21F016FA0020A4F8700001205D
:20505C0015F04AFC8AF001001DE010488188B1B101394EF6602281800078022123F038F9CE
:20507C000FE00B4C607938B12179206822F0CFF810B96079013860718AF0080003E00021DF
:20509C0081708AF0020009B0BDE8F08F540B002018370120782C0120523701207E36012077
:2050BC006E34012000F8FF07653801202DE9FE4F074608680024B0B1D7E9018A0E4623F0FE
:2050DC0066F98146D8F8E800082888BF0124B068204202D17068204208D003203074484686
:2050FC0023F05DF900242046BDE8FE8FD8F8C01069B198F8F8100029EFD006213174D8F899
:20511C00C410C8F8C4604E6198F8FC100DE000210522C8E93066C8E93411C8E9361198F876
:20513C00FC10002908BF0122327400220129726109D102204FF4E02188F8FC0098F8FB0028
:20515C001EF062FD706889490138884205D804201EF07AFE06201EF077FE02201EF074FE47
:20517C0098F8F80040B9DAF83C003168814203D298F8FC0000286CD0D8E9361009B118B9D1
:20519C0000E028B323F039F8DAF80000416941F001014161484623F002F998F8F80008B1C6
:2051BC000124A0E708F16C05D8F8EC10284622F05BF90028F4D0D8F8C0000321017438468A
:2051DC0009F0AAFE28460021002422F04DF98AE79AF8040023F0DDF8654CDAF81010022251
:2051FC00206991FAA1F1B1FA81F14368D8F8CC004068006898472069DAF81410022243684C
:20521C00D8F8CC0091FAA1F1B1FA81F14068006898479AF8040023F0B6F89AF8040023F0AD
:20523C00BAF822F0EAFF0020C8F8E000D8F8C0000068B0F5806F01D922F0DFFF98F8FE0001
:20525C000028A1D1DAF80000416841F0020141609AE798F8F90020B1D8F8EC0001307FF40D
:20527C008BAF484623F09BF8B2683AB1D8F8E8000221092838BF0121009103E008F1F40217
:20529C0000200090746834B1D8F8E8000227092838BF012702E008F1F6040027DAF8000082
:2052BC00334D416841F002014160D6F800B0D946BBF1000F40D0D8F8E800019209284FF0B1
:2052DC00010011D22A68B9F1000F1FD0C0071DD02178DAF800009268904700281EBF3C441F
:2052FC00A9F101090120EDE72A68B9F1000F16D0C00714D02188DAF80000926890470028A9
:20531C001EBF3C44A9F101090120EDE7DAF80000D26802A99047DDE90120107007E0DAF8CD
:20533C000000D26802A99047DDE9012010800098ABF1010B0244BBE7D8F8F000DAF8001054
:20535C00CA680240102802D1002AF9D101E0002AF6D0706820F04CFDD8F8C0100020C8F83C
:20537C00C400C8F8C00008741AE700BFFEFFFF0FC40100102DE9F04F85B08846080418D461
:20539C00A9480078012802D85FEAC87155D15FEA88714CD4022807D1A4480078012803D118
:2053BC005FEA487000F188805FEA087057D400202BE1DFF85CA29AF8000018F0E7FA002847
:2053DC0000F021810546807FC8B9688C132816D190486E8800F11C09002049464F460028EE
:2053FC0018BF071D086850B1014631F8042BB242F4D144683C6022F0F2FF2046F3E7A87A20
:20541C0005F1020B022840F0E480DFF8089295F83170BBF8006009F11C000068A0B10188A5
:20543C00B14202D18178B94242D00430F5E779480121017088F00200E7E07648406900B1C7
:20545C00804788F00100E0E0D9F81C40002C57D001206168002955D001300C46F9E770485D
:20547C00DFF8B091807BD9F81C60000760D422F080FF044622F054FC6A4A60434FF47A71B3
:20549C00B0FBF1F0D9F818101288411A91427AD3B1FBF2FB0BFB02F2511A08445E49C9F8A4
:2054BC0018001FFA8BF00978884288BF8B4641E059490978C170A3E05E495D4800224FF616
:2054DC00FE7300240978023079B130F8025C9D4208D04588013D45802D0406BF027020F8B1
:2054FC00023C012401390630EEE734B1484804214FF4FA72007822F0EBFE88F0040084E04C
:20551C0000240020454980B20988884261D2082022F067FF00285CD00021068087704160AA
:20553C003D490978C170D9F81C1079B360603FE04FF0010B00205FFA8BF44FF0000A071D5F
:20555C00002808BF09F11C0796B1F078C0FA5BF1A042F17006D8756830463D6022F03FFF0D
:20557C002E46F1E7716830460AF1010A0E46E6E75FEA0A4007D100200821C9F81800244854
:20559C00007818F0D5F988F008003EE0C9F81C002348807B00070BD422F0EBFE044622F083
:2055BC00BFFB60434FF47A71B0FBF1F0C9F818001B48807B00070CD59AF8000008211BF0D3
:2055DC00FDFF30B91748082102889AF8000022F07CFE2878022810D0012811D1297EAA890B
:2055FC00EB7C05F11C006C696E7E8DE85A0005F11003594605F08AF902E0284614F034FDE1
:20561C00284621F079F888F4004005B0BDE8F08F5F3801205C0A0020A40E00206C0E00203F
:20563C00782C0120700E0020A80C0020C40E0020801E0120810E00202DE9F04F87B0851C8A
:20565C008346284622F011FE01AC06461821204622F046F89BF801A004F10B0029460095B6
:20567C0022F07BFE6FF001009BF80A1002240122ADF8180000208DF81A408DF80C0001F0EF
:20569C000800C1F3C007890782EAD00507D4002808BF0124B946A8460027002507E0042463
:2056BC004FF000094FF00008002808BF03248548007850EA0A000BD0834890F8260008281C
:2056DC0009D122F0C1F800285AD0BAF1010F57D14FF0C30901E04FF0C2090025BAF1000FFF
:2056FC0010D07F48007890B9BAF1010F0FD1002E55D00020214601228DF81A0001A813F043
:20571C000BFE0AE001A81AF003F986B91CE001A82146524613F000FEB6B17179BAF1020FDA
:20573C0041F04002727104BF41F0600171719BF80A10490603D5717941F080017171B17944
:20575C0000240131B17100E00124B0FA80F149090D422CD107D1002D18BF814641F2010020
:20577C00494616F050F814B9009818F063FBBDF818004FF6FE71884218BF22F03CFE16E001
:20579C00DEB33279A24218BFBAF1020F12D1D01EC0B201281BD857EA050020D12AE0022078
:2057BC00214601228DF81A0001A813F0B5FD07B0BDE8F08F4FF00009009953468DF81A90C2
:2057DC003088ADF8180022F0F6FD012586E7501EC0B201280ED849EA0800012807D13088BD
:2057FC001FF00CFF50B93088ADF8180008E0308822F001FE009818F01DFB0026BDF8180099
:20581C004FF6FE7188421ED11FF004FD10B1BDF8180011E0BAF1000F04D02C4D28881FF0AA
:20583C00EDFE30B19BF80A0000F002001EF03CFB00E02888ADF818004FF6FE71884202D10E
:20585C004FF0C70949E79BF80A200099534622F0B2FD10B14FF001093FE71D48016811B17D
:20587C00BDF818008847BDF818000099224605F0D7FF0646174818490A6800784FF48031ED
:20589C0022F026FD01211548C17096B1AAF10100C0B2012807D81020BAF1020F08BF0820CF
:2058BC007179084370714FF0000901258DF81A9014E74FF6FE7000254FF001090026ADF832
:2058DC0018000BE77C0B0020782C0120640E0020F009002062380120049E0200600C0020A0
:2058FC00A80C00202DE9F04F85B0BAB1D0E9008A0DF11009002B14460D46074618BF99468E
:20591C0022F045FD064698F8070050B198F82C0160B122F0BCFC6FF008041DE16FF00904C6
:20593C001AE122F0B4FC6FF00E0415E1012088F82C010020C8E94C54C8F8384188F80B0024
:20595C00C8F84001C8F83C0088F80D00504622F0D7FA22F09CFC21F00FFD98F8052008B9EB
:20597C00002A77D00E99CDE90197481E10F1030F08D83AB908F5CA74204622F0FEFC204646
:20599C0022F0FDFC08F58A7408F5A27622F0FFFC07460DF10C0BD8F83801002800F0BE8002
:2059BC0098F80B00002840F08D8098F80D00002840F08F8030460021B14621F055FD22F0C4
:2059DC007EFC204659461EF058FE074622F0DFFC0646D8F83801D8F84011874288BF0746BB
:2059FC00039829443A4622F089FD204639461DF025F8D8F83801D8F84011C01BC8F838015E
:205A1C00C819C8F8400122F042FC012F03DBD8F838010028D5D122F0BAFC0746D8F840012D
:205A3C0028B1504622F06CFA029810F01DFE98F80500012851D0022866D0D8F838114E46C2
:205A5C0000296AD022F03BFC22F036FB22F09FFC0746A0E798F84400C00615D5D8F84060C6
:205A7C00D8F84830384610210022B0470CE0D8F8400121462A1850461DF012FDD8F8401181
:205A9C00241A0144C8F84011002CF0D1504621F0FBFF0028FAD0504622F026FA98F844003A
:205ABC00800607D5D8F84040D8F84830384620210022A047002488F82C41D8F84001C9F825
:205ADC00000049E00020019E6FF00D0488F80B0032E0019E6FF00C042EE0D8F8380100246C
:205AFC00019EA0BB384688F82C4122F058FC98F81100DDF808904FF0010A88F812A078B30A
:205B1C00002422F044FC16E0D8F840010024002808BF6FF00F04019E12E010B1019E002452
:205B3C000AE022F0CCFB22F0C7FA22F0C5FA002422F02DFC019E074698F80500012806D003
:205B5C00002088F82C0108F5CA7022F01AFCD8F84001306022F0B3FB204605B0BDE8F08F5D
:205B7C00002401200028CBD0D8F84830D8F84021D8F8D87148462946A8F811A00094B8478E
:205B9C0098F8120088F81140ECE770472DE9F04F8DB0044600209A4616460F46CDE90B009E
:205BBC00CDE909008748856880460FF0E3FF262803D00FF0DFFF25281BD1308840F602017F
:205BDC00884218BFB0F5C15F03D1F07B022810D93EE043F6070188420BD196F8240003280F
:205BFC0007D33069784940F0806020F0604088422ED100206FB366B3387825FA00F0C007EB
:205C1C0026D03046002122F0E6FB7048C4E90176006880B109A800900CA90BAA0AAB30469D
:205C3C0009F040FC0B980B214FF6FF72502320F009FBFF280CD022F0AAFB654F064678785D
:205C5C00012802D840B1012070E0304622F0A7FB00200DB0BDE8F08F09F098FB5D480DF169
:205C7C000409016841F0020101605B48C8F80000484621F0E9FEDFF864B15A494A469BF862
:205C9C0001009BF800500390554828301AF076FB554856494A461AF071FB484621F0F4FD2F
:205CBC00DFF84C81534A19214B46029540461AF0DBF8514A08F11C001A214B461AF0D4F870
:205CDC004E484F4922F0A9FA4E484F4922F0A5FA4E48006810F4402F06D04D4A07F12800E8
:205CFC00042100231FF0E6FE9BF8020010B10D200FF02CFB08F1400021F073FA08F13800BC
:205D1C0021F06FFA4349002007223876B8843862386181F860200521C7E902103E49F96139
:205D3C0038700420002120F04DFB78782C4941F8204001307870304622F031FBBAF1000F7D
:205D5C0006D10DF1040A35492022504622F0D6FBDAE90012BAF81000DAE90635002AB2FAA0
:205D7C0082F608BF40F6C4126261216060832563760926764FF4FA76C4E903620122627632
:205D9C00274AC4E90722C4E90923DAF80C0000B12062DAF8140000B16062DAF8080000B1D2
:205DBC00E06104F13800C82121F09AFC04F1500000211FF022FD1B4904F1B80022F02DFAEB
:205DDC00204646E7CC2108400F000005040D00209405002000200940110000E0309D0200B8
:205DFC00FC050020F968020098300120A9430100BC060020D9C601009DAC0100D42F01203D
:205E1C00F55A0200902F0120A5680200B44F0050FDF00100F02C01206D000100189B020085
:205E3C00DB9D0000178302002DE9F04F85B0D0E900498046D9F80000D0F840A01AF4F06FFA
:205E5C00C0F844A039D0216CB9B300225FEA4A512260A27317D5D4E91401411A40461EF03E
:205E7C00C9FDD9F800008169C90605D401688DF80B109DF80B10F6E721684A1CA17B2260BA
:205E9C0009B90121A173616C40684FF0004600F00F0505EA0100B0FA80F126FA01F1014092
:205EBC0004D0276C17B1A36C4046B847B5FA85F026FA00F028404042A063D4F8E001D9F864
:205EDC003C100AF0400B40680068D0F80425114051EA0B0165D0404618F0C6FD59464046D1
:205EFC00BBF1000F18BF01210FF0EEFE207901284AD1206F002847D0CDF80490D8F8009083
:205F1C0004AE09F14C052846314620F032F8D9F870100746D9F86800D9F878208F4288BFF1
:205F3C000F46049910443A4622F0E8FA284639461EF08CFBD9F87000D9F87810C01B394417
:205F5C00C9F87000C9F878100FB10028DBD1404618F08AFD404600210FF0B6FEDDF804903F
:205F7C00BBF1000F02D0A079012801D0206F58B90020A36CA16EA26FD4F81051206784F846
:205F9C00640000904046A847BBF1000F1CBF0120E07404F17C0022F034FAD4F8E00140686B
:205FBC00006800F204500068D9F83810084255D0D4F83C01002851D0404617F049F8404681
:205FDC0010F052FB607901283BD1D4F83801C0B304F58A7503A928461EF04FFB0646D4F850
:205FFC003801D4F83011D4F84021864288BF064603981144324622F081FA284631461CF0D1
:20601C001DFDD4F83801D4F84011801B3144C4F838014046C4F8401110F026FBD4F838016A
:20603C0078B994F82C0160B1002084F82C01A36CD4F83011D4F84021D4F8D851009040462C
:20605C00A847D4F83C0128B9D9F80000816B41F40061816304F5A27022F0D3F95FEA0A5088
:20607C0026D5D9F8000081690907FCD4016B21F480710163217A89B10020207294F8440041
:20609C00800606D5256C25B1A36C404620210022A84702201DF09CF9D9F80000816B21F49F
:2060BC0000618163607918B904F5A27022F0A9F905B0BDE8F08F70472DE9FC470446019052
:2060DC0005789448465D9448E840ADF80260C00740F01E810D2D13D1904E0DF10201B068F2
:2060FC00D0F8282453209047BDF802104FF6FD70814214D8208990B14FF0000AA146AEE056
:20611C000C2D0ED0072D13D0052D0ED1A078012800F0FE80207C304400F1240716E0B0683B
:20613C00CDE06068C08AC0050AD44FF0000A09E0A07848B1A07D00EBC00006EB800705E079
:20615C004FF0010A374605E006F11B07ADF802704FF0000A38461FF053FC38B38146072D3C
:20617C0044D1207889F80000607889F80100A07889F802000028E17889F80310D4F80510EA
:20619C00C9F804105AD0A07D002889F8080049D0A169002946D000EBC00009F11006820077
:2061BC00304621F0F1FBC9F80C6040E00C2D40F0AF80A14659F8040F002800F0A98022F0CD
:2061DC00E6F8804655488068D0F854134846884738461FF015FC8146404622F0E0F8B9F16F
:2061FC00000F00F0958021F058FF38E021F055FF052D34D109F11806D9F80410242230469A
:20621C0021F0C2FBD9F8141099F8102009F13C00C9F8046021F0B8FBD9F804002430C9F8D5
:20623C0014001CE0002089F80800C9F80C00A069A8B122F0D4F80020A0750FE01B2009F123
:20625C0010061B2289F808003046A16921F09CFBC9F80C60A06922F0C2F80020A061304883
:20627C00016819B148468847002846D10D2D2BD1606801788A0720D42A4AC1F38301927C7D
:20629C0091421AD140783F2817D894F83000022813D199F8470009F146011CF093FC0198FF
:2062BC004FF6FF72418E91421FD14068807902281BD3484618F07CFD50B318488068D0F89F
:2062DC00541301A8884723E00C2D0ED160781A280BD0D9F8040040B1C08AC00705D099F876
:2062FC00100009F10F011CF06DFCBAF1000F04D10D484946007817F0A5FE0C2D08D10198B3
:20631C0050F8041F21B105498968D1F85413D9E7BDE8FC87649C020019C206000C010020BD
:20633C003C0E0020782C0120623801202DE9F04F8DB00646806A447874B18D4909788C4289
:20635C0080F012818B49023022462AB130F8023B013A21F8023BF8E78748C18A7089884223
:20637C002FD183480078A04240F2FE80B589814A2146284620F014FB284615F0D7FD06469C
:20639C0082480778BE4204D14FF6FE7015F0CEFD0646BE4280F0E880DFF8F48108EBC6090E
:2063BC004F4657F8040F08B122F019F8002C00F0B180600022F015F80028386040F0AC8006
:2063DC00D2E0B27C002A00F0CF806A4F0025AC4205D037F815208A4203D00135F7E7A046BA
:2063FC0000E0A846002113F097F8002800F0AD8081464079012840F0A88099F8060010F023
:20641C00180F00F0A280B9F80210204620F0B6FBA54202D3002800F098805848CDE904985F
:20643C00B6F80C904FF6FE7A00780890544800780A90002006960B90524811300990524816
:20645C000430079000200C90DDE909564FF0000BF6B135F8117C574518BF4F4502D1013EB0
:20647C001C35F5E72046394620F088FB0028F6D1287801380528F2D80C980BF1010BC00729
:20649C00EDD00B985FFA8BF1C0B28142E7D356E0DDE907862EB338F8047C574518BF4F459B
:2064BC0003D1013E08F12408F4E72046394620F065FB0028F5D198F8050001380528F0D8A7
:2064DC0098F8000001380228EBD30C980BF1010BC007E6D00B985FFA8BF1C0B28142E0D366
:2064FC002DE05FEA0B6028D00B98000625D101205FFA8BF50B90012D4FF001000C90A3D016
:20651C0021F01BFEC0B2B0FBF5F101FB15000B90012098E7002038601E4989F80140A9F864
:20653C000250097808F83610F4B1E8B1114962000DB0BDE8F04F21F027BA4FF6FE77049843
:20655C00069EDDF8148047800A4FB37CF47CB269B1890125581EB07470895FFA88F68DE8F9
:20657C00D00003950FF0F8FD0DB0BDE8F08F00BF2C9E0200C8350120782C0120379E02007D
:20659C00269E02004C0E012020070120F69D020050DA0020BD0E00202DE9F04F87B00546B5
:2065BC002C200E4621F01DFF002844D0778B044621F0F2FB0021E1840121874208BF022111
:2065DC002170707BA0703169081A6060204617F00BFA3178834F01F00301387B012908BF11
:2065FC0005206070C0B221F01FFA4FF0FF316077A182217F326908440A44317D3261081A4D
:20661C003075E070A069013017D0207C032816D8DFE800F0021702090620214660822846DB
:20663C0015F0EEFE10B3042021466082284607F05BF905461BE01025CFE0A32517E0A125B5
:20665C0015E00020B3256082F87A80B997F8410001280CD1A07D4FF6FF7618F069FD002564
:20667C00A082B04208BF6FF05E0500E000252078022807D104F1080620F0B0FE0146304644
:20669C0021F06BFE280640F0A580574F3878013801281AD894F8260010B994F82700A0B1B8
:2066BC00A078E178227F08441044043021F099FE58B1A178E2780646207F1144084461685F
:2066DC00021D304621F060F900E0002620460DF0DBFC05463878012802D12DB9002575E008
:2066FC00022873D1002D71D0002E73D00DF1080800274FF0010B4FF4D00908F1080A94F8FE
:20671C00260018B994F8270000285FD0A178E278207F114408443146021D606821F034F90D
:20673C0094F8260020B184F82670C4F8129007E094F8270020B12D4884F82770C4F8120089
:20675C0020460DF0A1FC10B10021054639E04046142120F0C5FF608A8DF819B0F0B9A08A3D
:20677C0040F20311884216D0682817D16068C17B052929D12A30FF21082220F053FD18B394
:20679C004FF0FF306946CDE900001948006821F0E4FDFC2000E0FF208DF818005046694652
:2067BC000022002512F01EFA01469DF8000038B10420142243461EF085FB0321002500E0FD
:2067DC00032103299BD101E00221FAE716B1304621F005FE204621F002FEE8B207B0BDE83E
:2067FC00F08F00BF782C0120A80C002000000301B03701202DE9F04F93B004461DF0C0F8F3
:20681C0008B1112006E1207F4FF6FE75B8B183480078810041EA401061882077FF201EF0DF
:20683C0061FE002180B1E08A05F1010B012640F00400E082207F40F00100207707E00020F4
:20685C0000264FF6FE7B08E000264FF6FE7B74480078022838BF012188010490678838466B
:20687C001BF0D4FF08B10020607694F81AA0BAF1000F04D16B4890F800A084F81AA094F9FC
:20689C000000C5B2B0F1FF3F07DDE07E40B966480178E1760131017002E005F003052570B6
:2068BC00207EDFF88491012805D199F80B0010B90DB900202076DFF8688198F800000128D9
:2068DC0031D899F80E0080072DD5E6B1E08A410606D5BAF1010F03D120F00400E08222E041
:2068FC00A188E07E627DADF822708DF82AA0ADF824108DF82B0006A803F03EFF00283FF4CE
:20691C0080AF25780FE038461BF080FF58B1002DDCD0206900780A2805D8012101FA00F099
